:100000000C9463000C948B000C948B000C948B006C
:100010000C948B000C948B000C948B000C948B0034
:100020000C948B000C948B000C948B000C948B0024
:100030000C948B000C948B000C948B000C948B0014
:100040000C94A90A0C948B000C94770A0C94510A16
:100050000C948B000C948B000C948B000C948B00F4
:100060000C948B000C948B000000000024002700EF
:100070002A0000000000250028002B0000000000DE
:1000800023002600290004040404040404040202DA
:100090000202020203030303030301020408102007
:1000A0004080010204081020010204081020000012
:1000B0000008000201000003040700000000000027
:1000C0000000CE0B1A0F11241FBECFEFD8E0DEBF09
:1000D000CDBF12E0A0E0B1E0ECE0F6E202C0059096
:1000E0000D92A234B107D9F724E0A2E4B2E001C036
:1000F0001D92AA30B207E1F710E0C2E6D0E004C0DA
:100100002197FE010E94F312C136D107C9F70E9460
:100110002B0D0C94F9120C9400001F93CF93DF93D6
:10012000182FC0915B02D0915C028A3041F4E881C3
:10013000F9810190F081E02D6DE0CE010995E88113
:10014000F9810190F081E02D612FCE01099521E028
:1001500030E0019711F430E020E0C901DF91CF9148
:100160001F910895CF93DF93C0915B02D0915C0201
:10017000E881F9810084F185E02DCE010995892B74
:10018000B9F3E881F9810284F385E02DCE01DF9196
:10019000CF910994DC01ED91FC910190F081E02D6B
:1001A0000994AF92BF92CF92DF92EF92FF920F939A
:1001B0001F93CF93DF936C017B018B01040F151FFD
:1001C000EB015E01AE18BF08C017D10759F0699165
:1001D000D601ED91FC910190F081E02DC6010995C9
:1001E000892B79F7C501DF91CF911F910F91FF9076
:1001F000EF90DF90CF90BF90AF900895FC01538DAA
:10020000448D252F30E0842F90E0821B930B5417F0
:1002100010F0CF96089501970895FC01918D828D7D
:10022000981761F0A28DAE0FBF2FB11D5D968C9116
:10023000928D9F5F9F73928F90E008958FEF9FEF55
:100240000895FC01918D828D981731F0828DE80F11
:10025000F11D858D90E008958FEF9FEF0895FC01CB
:10026000918D228D892F90E0805C9F4F821B910998
:100270008F73992708958DE892E00E942F0121E065
:10028000892B09F420E0822F089580E090E0892BEB
:1002900029F00E943B0181110C9400000895FC019B
:1002A000A48DA80FB92FB11DA35ABF4F2C91848DD7
:1002B00090E001968F739927848FA689B7892C9334
:1002C000A089B1898C91837080648C93938D848D87
:1002D000981306C00288F389E02D80818F7D80838A
:1002E0000895EF92FF920F931F93CF93DF93EC014A
:1002F00081E0888F9B8D8C8D98131AC0E889F989CD
:10030000808185FF15C09FB7F894EE89FF896083CF
:10031000E889F98980818370806480839FBF81E050
:1003200090E0DF91CF911F910F91FF90EF90089592
:10033000F62E0B8D10E00F5F1F4F0F731127E02E6D
:100340008C8D8E110CC00FB607FCFACFE889F989A5
:10035000808185FFF5CFCE010E944F01F1CFEB8D5B
:10036000EC0FFD2FF11DE35AFF4FF0829FB7F89479
:100370000B8FEA89FB8980818062CFCFCF93DF9397
:10038000EC01888D8823B9F0AA89BB89E889F989AD
:100390008C9185FD03C0808186FD0DC00FB607FCE2
:1003A000F7CF8C9185FFF2CF808185FFEDCFCE0115
:1003B0000E944F01E9CFDF91CF910895833081F002
:1003C00028F4813099F08230A9F008958730A9F09F
:1003D0008830C9F08430B1F4809180008F7D03C0F3
:1003E000809180008F7780938000089584B58F7707
:1003F00084BD089584B58F7DFBCF8091B0008F7749
:100400008093B00008958091B0008F7DF9CFCF9395
:10041000DF93E4EBF0E08491E0EAF0E0D491ECE8E3
:10042000F0E0C491CC23A1F081110E94DE01EC2FF9
:10043000F0E0EE0FFF1FE458FF4FA591B491EC914F
:10044000ED2381E090E009F480E0DF91CF91089501
:1004500080E090E0FACF1F93CF93DF93282F30E016
:10046000F901E255FF4F8491F901E656FF4FD4910F
:10047000F901EA57FF4FC491CC23A9F0162F81113F
:100480000E94DE01EC2FF0E0EE0FFF1FEE58FF4F51
:10049000A591B4918FB7F894EC91111108C0D09543
:1004A000DE23DC938FBFDF91CF911F910895DE2B68
:1004B000F8CFCF93DF9390E0FC01E656FF4F2491F5
:1004C0008A579F4FFC0184918823D1F090E0880FD8
:1004D000991FFC01E859FF4FA591B491FC01EE581A
:1004E000FF4FC591D49161110EC09FB7F8948C91C4
:1004F000E22FE0958E238C932881E223E8839FBF2F
:10050000DF91CF9108958FB7F894EC91E22BEC93A3
:100510008FBFF6CF8E50806480937C0080917A00EC
:10052000806480937A0080917A0086FDFCCF809170
:1005300078009091790008953FB7F894809149022E
:1005400090914A02A0914B02B0914C0226B5A89B13
:1005500005C02F3F19F00196A11DB11D3FBFBA2F55
:10056000A92F982F8827BC01CD01620F711D811D15
:10057000911D42E0660F771F881F991F4A95D1F79A
:100580000895CB0108954F925F926F927F92BF9230
:10059000CF92DF92EF92FF920F931F93CF93DF934F
:1005A000EC0129013A018B01C12CD12C7601C41434
:1005B000D504E604F7040CF03FC0F801B1908F01B8
:1005C0008F8580FF0BC0E881F9810084F185E02DE3
:1005D00020E144E070E060E0CE010995EB85FC8508
:1005E0008D859E85E817F90760F4B0828B859C8520
:1005F00001969C878B872FEFC21AD20AE20AF20A71
:10060000D6CF6B2D70E0E881F981028CF38DE02D5F
:10061000CE010995019679F7C701B601DF91CF9117
:100620001F910F91FF90EF90DF90CF90BF907F9040
:100630006F905F904F90089573016201EDCFCF935B
:10064000DF93EC01E881F9810288F389E02D0995B7
:100650008F3F980731F02D813E812F5F3F4F3E83C2
:100660002D83DF91CF9108958FEF9FEF089560E084
:1006700070E0CB01089590E080E00895FF920F9321
:100680001F93CF93DF938C01EB016F3F7607B9F097
:10069000F62EEAE06E1306C06DE0F80180899189BC
:1006A0000E94CA006F2DF801808991890E94CA00BA
:1006B000CE01DF91CF911F910F91FF900895D0E06F
:1006C000C0E0F6CF7F928F929F92AF92BF92CF926F
:1006D000DF92EF92FF920F931F93CF93DF938C01E2
:1006E00049015A01EB01C12CD12C7601C814D9045F
:1006F000EA04FB04B4F479908AE0781206C06DE055
:10070000F801808991890E94CA00672DF8018089CB
:1007100091890E94CA00FFEFCF1ADF0AEF0AFF0A91
:10072000E5CFC501B401DF91CF911F910F91FF90EB
:10073000EF90DF90CF90BF90AF909F908F907F9081
:100740000895CF93DF93EC0188899989DC01ED91BD
:10075000FC910084F185E02D0995892BA9F3888906
:100760009989DC01ED91FC910284F385E02DDF9104
:10077000CF910994CF93DF93EC0188899989DC01AB
:10078000ED91FC910084F185E02D0995892BA9F369
:1007900088899989DC01ED91FC910484F585E02D2F
:1007A000DF91CF9109948F929F92AF92BF92CF9297
:1007B000DF92EF92FF920F931F93CF93DF938C0101
:1007C00049015A01EB01C12CD12C7601D801509678
:1007D0008D919C91DC01ED91FC910284F385E02DDB
:1007E00009958F3F61F0C814D904EA04FB043CF476
:1007F0008993BFEFCB1ADB0AEB0AFB0AE7CFC701ED
:10080000B601DF91CF911F910F91FF90EF90DF9094
:10081000CF90BF90AF909F908F900895DC0150963D
:100820008D919C91DC01ED91FC910084F185E02D8E
:10083000099490E080E0089590E080E0089590E0D1
:1008400080E0089508950895DC01ED91FC913697BC
:100850000190F081E02DE80FF91F89EB91E0918381
:10086000808383EC91E097838683089529EB31E0C0
:10087000FC013183208323EC31E037832683089504
:10088000FB0120813181FC0131832083FB01428106
:10089000538126503109F90120813181820F931F44
:1008A000FC0151834083089525ED31E0FC01318343
:1008B00020832FED31E0318F208F69EC71E00C94B3
:1008C0004004DC01ED91FC91369720813181820F4B
:1008D000931F0C9454040895DC01ED91FC9136971C
:1008E0000190F081E02DE80FF91F85EA91E09183F6
:1008F00080838FEA91E093838283089525EA31E033
:10090000FC01318320832FEA31E033832283089571
:10091000FB0120813181FC0131832083FB01428175
:10092000538126503109F90120813181820F931FB3
:10093000FC0151834083089521EF31E0FC013183B4
:1009400020832BEF31E0358B248B65EE71E00C9426
:100950008804DC01ED91FC91369720813181820F72
:10096000931F0C949C0408950895CF93DF93EC019A
:100970002881222349F00E949C026D837E838F830D
:100980009887DF91CF9108952FB7F8944091450251
:100990005091460260914702709148022FBF4D83EB
:1009A0005E836F837887EDCF2F923F924F925F9255
:1009B0006F927F928F929F92AF92BF92CF92DF926F
:1009C000EF92FF920F931F93CF93DF93CDB7DEB7D4
:1009D00063970FB6F894DEBF0FBECDBF1C019C011C
:1009E0002A593F4F3A832983D9018C91882309F4EE
:1009F00062C20E949C02AB01BC01E981FA8185813F
:100A00009681A781B085481759076A077B0708F0C8
:100A10005EC28C019D010095109520953095400F88
:100A2000511F621F731F4183528363837483E98163
:100A3000FA81418152816381748101851285238508
:100A40003485401751076207730708F41BC2800FF3
:100A5000911FA21FB31F85839683A783B087F101DF
:100A6000EE59FF4F80819181019709F00BC2D101AE
:100A7000DC968D909D90AD90BC90DF977A97FA8B25
:100A8000E98B80829182A282B382CB01BA010E945B
:100A9000CF1120E030E04AE754E40E9427112B01F7
:100AA0003C01F101E05CFF4F2081318142815381A3
:100AB0000E9486126B017C01F101E45BFF4FFC8315
:100AC000EB83C082D182E282F382A3019201389744
:100AD00060817181828193810E9427118101005B75
:100AE0001F4FF80160837183828393837496208102
:100AF000318121303105F1F4B7FAB094B7F8B094F0
:100B0000A989BA898D929D92AD92BC921397F7FAFA
:100B1000F094F7F8F094EB81FC81C082D182E282FC
:100B2000F382AB01BC017058D8014D935D936D9376
:100B30007C931397F10144A455A466A477A440AE16
:100B400051AE62AE73AE80A591A5A2A5B3A584AB4C
:100B500095ABA6ABB7AB84A095A0A6A0B7A0D101DA
:100B600080AA91AAA2AAB3AA0280F381E02DFA83F7
:100B7000E98320813181428153819C962D933D935D
:100B80004D935C939F971696ED91FC9160817181D6
:100B900082819381F10160A771A782A793A70E9428
:100BA000B5106B017C01D1019496CD92DD92ED924E
:100BB000FC929797A3019201E981FA81608171818A
:100BC000828193810E94B5102B013C01F101E05A12
:100BD000FF4F8081918191012C5A3F4F3A832983A5
:100BE000009709F07BC1A7019601A989BA896D9187
:100BF0007D918D919C910E948612E981FA8160839A
:100C0000718382839383D8016D917D918D919C91A5
:100C10009058A30192010E9486122B013C01F10120
:100C2000E45AFF4F4082518262827382A70196018B
:100C3000C501B4010E94B61020E030E040E05FE35F
:100C40000E948612EB81FC81208131814281538197
:100C50000E948612F101E85AFF4F208131814281C2
:100C600053810E94B6108B0188879F83D1015896CB
:100C7000BC91BB83F101F18DF983D1015A96BC91EE
:100C8000BD83F101F38DFE832B8139814B2F5F2FC3
:100C90000E94221187FD1FC0D1015496BC91BB83D5
:100CA000F101F589F983D1015696BC91BD83F1011B
:100CB000F789FE832B8139814B2F5F2FB8018885FF
:100CC0009F810E948112181634F00B8319832885A6
:100CD0002D833F813E83F101EC5AFF4F208131810A
:100CE00042815381D10118966D917D918D919C9196
:100CF0001B970E94B6106B017C01AC019B01C301E4
:100D0000B2010E94B6104B015C01F101F485FD8730
:100D1000D1011D96BC91BE87F101F685FF87D101F7
:100D20001F96BC91B88BAC019B016D857E858F2F82
:100D30009B2F0E94B51069877A878B879C8720E05C
:100D400030E0A9010E94221187FDD5C029853A858E
:100D50004B855C856D857E858F8598890E942211E3
:100D600087FF08C0ED85E987FE85FA872F852B87E9
:100D700038893C87D10150960C91509751961C911F
:100D800051975296BC91BF83F101F389F88798017E
:100D90004B2F5F2FC501B4010E94B5105B018B8BF7
:100DA000998B9B01AC01B8018F8198850E948112BB
:100DB00018160CF4A5C020E030E0A901B5018B891C
:100DC00099890E948112181624F4A12CB12C1B8A37
:100DD000198A95014B8959896B8179818D819E8111
:100DE0000E94221187FD13C029853A854B855C85B9
:100DF0006B8179818D819E810E94811218160CF081
:100E000085C0A984BA848B858B8B9C85998BC50101
:100E1000AB89B989F101E85AFF4F80839183A2839E
:100E2000B3839501AD01C701B6010E94B610A301BD
:100E300092010E94B6107B018B8399839B01AC01C8
:100E4000B8018F8198850E948112181684F097014D
:100E50004B8159816D857E858F8598890E942211ED
:100E600087FD5BC08701EB81EF83F981F887D101B2
:100E70001496ED91FC91C801AF81B8858083918370
:100E8000A283B38363960FB6F894DEBF0FBECDBFC7
:100E9000DF91CF911F910F91FF90EF90DF90CF9056
:100EA000BF90AF909F908F907F906F905F904F908A
:100EB0003F902F9008958FB7F8944091450250913C
:100EC000460260914702709148028FBF96CD481B41
:100ED000590B6A0B7B0BE981FA81A5CD019709F0CB
:100EE00092CEA989BA896D917D918D919C919058EE
:100EF000A301920180CE19861A861B861C863ACFE2
:100F000058012F812B8B3885398B63CFAB80B9800B
:100F1000AD81AB8BBE81B98B7ACF0D851E852F85B8
:100F20002F8338893887A3CFFC0114A215A216A2FB
:100F300017A210A611A612A613A614A615A616A6E9
:100F400017A610AA11AA12AA13AA14AA15AA16AAB9
:100F500017AA10AE11AE12AE13AEDC01AC5ABF4FE1
:100F60001D921D921D921C92139714961D921D9214
:100F70001D921C92139714961D921D921D921C9205
:100F800013978A599F4F0C94B5042F923F924F921A
:100F90005F926F927F928F929F92AF92BF92CF9209
:100FA000DF92EF92FF920F931F93CF93DF9300D0C6
:100FB000CDB7DEB73C01F8018F89988D9A8389837C
:100FC000098D1A8DD30113967C936E931297159603
:100FD0005C934E93149717963C932E93169720800C
:100FE00031804280538020E030E0A901C201B1018C
:100FF0000E94811287FD35C020E030E0A901F70191
:1010000060817181828193810E94811287FD29C054
:1010100020E030E0A901D6016D917D918D919C91E8
:101020000E94811287FD1DC0F30124AE35AE46AE8D
:1010300057AEF70180819181A281B381F301E05C19
:10104000FF4F80839183A283B383F60180819181D6
:10105000A281B381F301EC5BFF4F80839183A28374
:10106000B383D5018D919C91F301E05AFF4F918399
:101070008083F80180819181A281B381F30180870F
:101080009187A287B387D4018D919C91EC59FF4F32
:101090009183808383010E591F4FF80180819181D4
:1010A000019719F4C3010E949407A981BA814D9157
:1010B0005C9170E060E0C3018A599F4FFC0110828F
:1010C00041875287638774870E94B504C3010E94D9
:1010D0009407F801808191810197D9F081E090E037
:1010E00091838083C3010F900F90DF91CF911F9167
:1010F0000F91FF90EF90DF90CF90BF90AF909F90B7
:101100008F907F906F905F904F903F902F900C94B6
:1011100094070F900F90DF91CF911F910F91FF9047
:10112000EF90DF90CF90BF90AF909F908F907F9087
:101130006F905F904F903F902F900895FA01460F67
:10114000571FE417F50729F02191DC012D93CD01FC
:10115000F8CF0895CF92DF92EF92FF92CF93DF9373
:10116000C1E020E030E0A901609156027091570281
:1011700080915802909159020E94811218160CF029
:10118000C0E06C2F85E00E942B02C0905602D090E8
:101190005702E0905802F090590220E030E0A90197
:1011A000C701B6010E9481121816ACF4C701B6013E
:1011B0000E949911EB0161E083E00E94590220979F
:1011C00071F460E083E0DF91CF91FF90EF90DF90CA
:1011D000CF900C942B02C701B6019058E9CFCF3FB6
:1011E000D10511F461E0EECFE1EBF0E0E491E33002
:1011F00049F140F4E130B1F0E230F9F0C038D10506
:101200008CF7DFCFE73041F1E83071F1E430B1F72E
:1012100080918000806280938000D0938B00C09387
:101220008A0004C084B5806884BDC7BDDF91CF91BA
:10123000FF90EF90DF90CF90089584B5806284BDD9
:10124000C8BDF4CF80918000806880938000D093E7
:101250008900C0938800EACF8091B00080688093B5
:10126000B000C093B300E2CF8091B0008062809361
:10127000B000C093B400DACFCF93DF93D0E0C0E0EA
:10128000009771F0FC0101900020E9F73197AF0160
:10129000481B590BBC018DE892E00E94D100EC0183
:1012A00042E050E069E172E08DE892E00E94D100F6
:1012B0008C0F9D1FDF91CF910895CF93C82F8CE1A4
:1012C00092E00E943C098C2F90E0855D9D4F0E942A
:1012D0003C0980914202909143028B5C9D4F0E9499
:1012E0003C09C111FECF81E0CF9108950C942510E7
:1012F000CF93DF93EC010E949C04CE01DF91CF914C
:101300000C942510DC01ED91FC9136972081318100
:10131000820F931F0C947809CF93DF93EC010E9406
:101320005404CE01DF91CF910C942510DC01ED9196
:10133000FC91369720813181820F931F0C948C0988
:101340000C9425100C942510DC01ED91FC9136973E
:1013500020813181820F931F0C94A2090C942510D7
:10136000DC01ED91FC91369720813181820F931F32
:101370000C94AE090C9425100C942510CF92DF929A
:10138000EF92FF92CF93DF93F89460E085E00E94A4
:101390002B0285E08A95F1F7000061E085E00E946C
:1013A0002B0285E08A95F1F700000E940702C7E151
:1013B000D0E0C12CD12C7601892B99F482E090E009
:1013C000909343028093420280E00E945D0960E0B6
:1013D00070E0CB01DF91CF91FF90EF90DF90CF9045
:1013E0000895CC0CDD1CEE1CFF1C5D9885E08A95F1
:1013F000F1F700005D9A85E08A95F1F700000E9400
:101400000702092E000CAA0BBB0BC82AD92AEA2A0C
:10141000FB2A219731F7C0FC09C083E090E090934C
:1014200043028093420281E00E945D098AE68A9528
:10143000F1F700C07894C701B60127E0969587952B
:10144000779567952A95D1F7C5CFCF92DF92EF9226
:10145000FF920E94BE096B017C010E94BE09C61664
:10146000D706E806F90679F081E090E09093430210
:101470008093420280E00E945D0981E0FF90EF903E
:10148000DF90CF900895C701B6010E94CF116093FD
:10149000510270935202809353029093540280E061
:1014A000EDCF1F920F920FB60F9211242F933F93FF
:1014B0004F935F936F937F938F939F93AF93BF935C
:1014C000EF93FF938DE892E00E944F01FF91EF911F
:1014D000BF91AF919F918F917F916F915F914F914C
:1014E0003F912F910F900FBE0F901F9018951F9254
:1014F0000F920FB60F9211242F938F939F93EF9318
:10150000FF93E0919D02F0919E028081E091A30201
:10151000F091A40282FD1BC090818091A6028F5F92
:101520008F732091A702821741F0E091A602F0E0AC
:10153000E357FD4F958F8093A602FF91EF919F9106
:101540008F912F910F900FBE0F901F901895808153
:10155000F4CF1F920F920FB60F9211242F933F9347
:101560008F939F93AF93BF938091450290914602D2
:10157000A0914702B09148023091440223E0230F2A
:101580002D3758F50196A11DB11D2093440280937B
:10159000450290934602A0934702B093480280917F
:1015A000490290914A02A0914B02B0914C020196DF
:1015B000A11DB11D8093490290934A02A0934B0252
:1015C000B0934C02BF91AF919F918F913F912F911A
:1015D0000F900FBE0F901F90189526E8230F0296CC
:1015E000A11DB11DD2CFCF93DF93EB0188819981EB
:1015F000AFE5B2E011969C938E932A813B810697CA
:10160000EC01E881F981E15AFD4F31832083129684
:101610001D921D921D921C92159781E290E0948379
:10162000838385E692E0948B838B1582158ADF9104
:10163000CF910895CF93DF93CFE5D2E081E290E0A0
:101640009C8F8B8F1D8E1E8E1F8E86E090E0A0E0FB
:10165000B0E088A399A3AAA3BBA31CA21DA21EA2AB
:101660001FA28BE791E0998F888F80E288A71AA646
:1016700019A61DA685E692E09CA78BA7AC0169EC94
:1016800071E0CE010E94F30A85ED91E09983888391
:101690008FED91E0998F888F1A8619861C861B869C
:1016A0001E861D86188A1F861A8A198A1C8A1B8A1A
:1016B00083E891E09F838E838DE892E09F8B8E8BF1
:1016C00088E08D8BDF91CF910895DB018D919C9106
:1016D000119790932B0380932A0312962D913C919E
:1016E0000697DC01ED91FC91E65DFC4F3183208390
:1016F00081E290E0948383838CE293E0948B838BEC
:101700001582158A0895CF93DF93CAE2D3E081E270
:1017100090E0988F8F8B198E1A8E1B8E86E090E04A
:10172000A0E0B0E08C8F9D8FAE8FBF8F18A219A262
:101730001AA21BA28BE791E09D8B8C8B80E28CA37D
:101740001EA21DA219A68CE293E098A78FA3AC015C
:1017500065EE71E0CE010E94650B81EF91E0998307
:1017600088838BEF91E09D8B8C8B1E821D82188667
:101770001F821A8619861C861B861E861D86188A5D
:101780001F8683E891E09B838A838DE892E09B8BA0
:101790008A8B80E1898BDF91CF910895CF93DF937E
:1017A000CDB7DEB762970FB6F894DEBF0FBECDBFE0
:1017B0001092900210928F0288EE93E0A0E0B0E0C9
:1017C0008093910290939202A0939302B09394021B
:1017D00083E092E090938E0280938D0285EC90E0FE
:1017E00090939A028093990284EC90E090939C02EB
:1017F00080939B0280EC90E090939E0280939D02E8
:1018000081EC90E09093A00280939F0282EC90E0A4
:101810009093A2028093A10286EC90E09093A402A0
:101820008093A3021092A6021092A7021092A8021F
:101830001092A9026DE872E08AE293E00E94830BA5
:101840006DE872E08FE592E00E941A0B10925E0242
:1018500010925D028DE892E090935C0280935B02AF
:1018600062EB70E08DE890E00E94220F90935E02A0
:1018700080935D024091060150910701609108013B
:1018800070910901CE0101960E949E0840910A01C3
:1018900050910B0160910C0170910D01CE010496E5
:1018A0000E949E0840910E0150910F01609110011D
:1018B00070911101CE0107960E949E08409112017D
:1018C000509113016091140170911501CE010A9697
:1018D0000E949E08409116015091170160911801D5
:1018E00070911901CE010D960E949E0840911A0137
:1018F00050911B0160911C0170911D01CE01409619
:101900000E949E08AEEEB3E0FE013196CE014396F2
:101910002191319141912D933D934D93E817F90712
:10192000B9F7EDE4F1E0A6EDB3E085E691E0419191
:101930005191619171914D935D936D937D938E174C
:101940009F07A9F71092CA031092CB031092CC0301
:101950001092CD031092CE031092CF031092D003B9
:101960001092D1031092D2031092D3031092D40399
:101970001092D50340911E0150911F0160912001EA
:101980007091210187EC93E00E949E0885E192E02E
:10199000909355038093540380E090E0AFE7B3E465
:1019A0008093600390936103A0936203B0936303F9
:1019B00010926403109265031092660310926703FD
:1019C00080E090E0AAE7B4E4809368039093690311
:1019D000A0936A03B0936B0380E090E0AAE7B4ECB5
:1019E00080936C0390936D03A0936E03B0936F0389
:1019F000109270031092710310927203109273038D
:101A0000109274031092750310927603109277036C
:101A10001092BA031092BB031092BC031092BD0344
:101A20001092BE031092BF031092C0031092C10324
:101A30001092C2031092C3031092C4031092C50304
:101A40001092C60362960FB6F894DEBF0FBECDBFEC
:101A5000DF91CF910895CF93DF93CDB7DEB72F9766
:101A60000FB6F894DEBF0FBECDBF789484B5826008
:101A700084BD84B5816084BD85B5826085BD85B532
:101A8000816085BD80916E00816080936E001092B0
:101A9000810080918100826080938100809181002B
:101AA00081608093810080918000816080938000BC
:101AB0008091B10084608093B1008091B00081601A
:101AC0008093B00080917A00846080937A00809146
:101AD0007A00826080937A0080917A00816080939E
:101AE0007A0080917A00806880937A001092C10019
:101AF000E0919D02F0919E0282E08083E0919D0240
:101B0000F0919E021082E0919902F0919A02108267
:101B1000E0919B02F0919C0280E180831092A502EB
:101B2000E091A102F091A20286E08083E0919F0201
:101B3000F091A002808180618083E0919F02F0910A
:101B4000A002808188608083E0919F02F091A002D2
:101B5000808180688083E0919F02F091A002808163
:101B60008F7D808361E083E00E94590261E085E01F
:101B70000E94590261E085E00E94590260E086E01F
:101B80000E94590260E08FE00E94590260E080E10B
:101B90000E94590260E081E10E94590261E083E005
:101BA0000E94590260E083E00E942B0261E085E020
:101BB0000E942B020E94250A19821A821B821C8213
:101BC0001E821D82198618861B861A8681E090E087
:101BD0008C0F9D1F9F938F931E0195E0290E311C42
:101BE0003F922F92FE0138964F01CE010A965C017A
:101BF00052EDC52E53E0D52E6EECE62E63E0F62EA8
:101C00000AEC13E02DE432E046E552E061E572E0D3
:101C100084E593E00E94C50780E090E0AFE7B3E47D
:101C20008093600390936103A0936203B093630376
:101C300080E090E0AFE7B3EC80936403909365039A
:101C4000A0936603B09367030F900F900F900F90CF
:101C50008091B6039091B703019719F5009158034D
:101C600010915903F801C080D180E280F38020E018
:101C700030E04FE753ECC701B6010E94221187FD07
:101C800050C020E030E04FE753E4C701B6010E94A6
:101C9000811218160CF44CC0F801C082D182E28285
:101CA000F38280E090E0A0E2B1E480936803909337
:101CB0006903A0936A03B0936B0380E090E0A0E215
:101CC000B1EC80936C0390936D03A0936E03B0937B
:101CD0006F0301E010E0412C512C2FE7622E23E42A
:101CE000722E80915A02843008F083C040925602CE
:101CF0005092570260925802709259020E94AA08AC
:101D0000809155028823D9F010925A02E0E0F0E069
:101D1000EF2B39F30E943B01882319F30E94000046
:101D2000E0CFC12CD12C4FE7E42E43ECF42EB4CFFE
:101D3000C12CD12C3FE7E32E33E4F32EADCF0E942C
:101D40009C026B017C0192E0892E912CA12CB12C7C
:101D50000E949C026C197D098E099F09683E7340A0
:101D600081059105A8F3F8EECF0EF3E0DF1EE11C2C
:101D7000F11C8A9489288A288B2829F0812C912C9F
:101D800054018394E5CF8FE00E948A0221E08F3FC7
:101D900091050CF420E02D8380E10E948A0221E06D
:101DA0008F3F91050CF420E02E8381E10E948A028E
:101DB00021E08F3F91050CF420E02F833D862C8697
:101DC00083E090E09F878E874C855D856E857F855B
:101DD000CE0101960E949E0889819A81AB818093F1
:101DE000C7039093C803A093C90391E09093550251
:101DF0008DCF0E94250A2091B6033091B703882326
:101E000069F0232B21F01092B7031092B60384E5FA
:101E100093E00E94D4040E94AA0878CF21303105B3
:101E2000B1F31093B7030093B60384E593E00E94E7
:101E30009407EDCF8FE592E00E9454048AE293E08C
:101E40000C949C040F931F93CF93DF93009759F446
:101E50006115710541F4F0E0E0E0CF01DF91CF9131
:101E60001F910F9108958B01EC016EE070E081E00D
:101E700090E00E946D0FFC01892B69F380E8838359
:101E80000115110571F01387028781E88383809122
:101E9000000490910104892B21F4F0930104E09354
:101EA00000042097D1F2D187C08783818260838329
:101EB0008091020490910304892B79F6F093030436
:101EC000E09302048091040490910504892B29F683
:101ED000F0930504E0930404C0CF0F931F93CF93B6
:101EE000DF93869F8001879F100D969F100D112410
:101EF000C8010E94890FEC01009729F0A80170E049
:101F000060E00E94AE10CE01DF91CF911F910F9142
:101F100008950F931F93CF93DF938230910510F4B0
:101F200082E090E0E0910804F091090430E020E0C4
:101F3000B0E0A0E0309799F42115310509F44AC0CA
:101F4000281B390B24303105D8F58A819B81611516
:101F5000710589F1FB0193838283FE0111C04081E9
:101F600051810281138148175907E0F0481759073A
:101F700099F4109761F012960C93129713961C9394
:101F80003296CF01DF91CF911F910F910895009369
:101F9000080410930904F4CF2115310551F04217BC
:101FA000530738F0A901DB019A01BD01DF01F801F7
:101FB000C1CFEF01F9CF9093090480930804CDCFEE
:101FC000FE01E20FF31F819391932250310939836F
:101FD0002883D7CF2091060430910704232B41F4A6
:101FE00020910201309103013093070420930604ED
:101FF00020910001309101012115310541F42DB7E7
:102000003EB74091040150910501241B350BE0912E
:102010000604F0910704E217F307A0F42E1B3F0B10
:102020002817390778F0AC014E5F5F4F241735074A
:1020300048F04E0F5F1F50930704409306048193AE
:1020400091939FCFF0E0E0E09CCFCF93DF93009798
:10205000E9F0FC01329713821282A0910804B0913A
:102060000904ED0130E020E01097A1F420813181D6
:10207000820F931F20910604309107042817390717
:1020800009F061C0F0930704E0930604DF91CF915B
:102090000895EA01CE17DF07E8F54A815B819E01CA
:1020A00041155105B1F7E901FB83EA834991599143
:1020B000C40FD51FEC17FD0761F480819181029652
:1020C000840F951FE90199838883828193819B8383
:1020D0008A83F0E0E0E012968D919C91139700972F
:1020E000B9F52D913C911197CD010296820F931F66
:1020F00020910604309107042817390739F63097E4
:1021000051F51092090410920804B0930704A093AB
:102110000604BCCFD383C28340815181840F951FB5
:10212000C817D90761F44E5F5F4F88819981480FC6
:10213000591F518340838A819B8193838283211518
:10214000310509F0B0CFF0930904E09308049ECF65
:10215000FD01DC01C0CF13821282D7CFDC0101C0A8
:102160006D9341505040E0F708955058BB27AA277F
:102170000E94CD100C9447120E94391238F00E9430
:10218000401220F039F49F3F19F426F40C943612D3
:102190000EF4E095E7FB0C943012E92F0E945812E0
:1021A00058F3BA17620773078407950720F079F48C
:1021B000A6F50C947A120EF4E0950B2EBA2FA02DF2
:1021C0000B01B90190010C01CA01A0011124FF27E4
:1021D000591B99F0593F50F4503E68F11A16F040DF
:1021E000A22F232F342F4427585FF3CF46953795DE
:1021F0002795A795F0405395C9F77EF41F16BA0BA3
:10220000620B730B840BBAF09150A1F0FF0FBB1F50
:10221000661F771F881FC2F70EC0BA0F621F731F99
:10222000841F48F4879577956795B795F7959E3FF6
:1022300008F0B0CF9395880F08F09927EE0F979587
:10224000879508950E940C1208F481E008950E9479
:102250003B110C9447120E94401258F00E94391210
:1022600040F029F45F3F29F00C94301251110C9486
:102270007B120C9436120E94581268F39923B1F322
:10228000552391F3951B550BBB27AA27621773079C
:10229000840738F09F5F5F4F220F331F441FAA1F30
:1022A000A9F335D00E2E3AF0E0E832D091505040EC
:1022B000E695001CCAF72BD0FE2F29D0660F771F9A
:1022C000881FBB1F261737074807AB07B0E809F080
:1022D000BB0B802DBF01FF2793585F4F3AF09E3F05
:1022E000510578F00C9430120C947B125F3FE4F3AC
:1022F000983ED4F3869577956795B795F7959F5F48
:10230000C9F7880F911D9695879597F90895E1E093
:10231000660F771F881FBB1F621773078407BA07F2
:1023200020F0621B730B840BBA0BEE1F88F7E0954D
:1023300008950E94A0116894B1110C947B12089525
:102340000E94601288F09F5798F0B92F9927B751D3
:10235000B0F0E1F0660F771F881F991F1AF0BA9549
:10236000C9F714C0B13091F00E947A12B1E008951B
:102370000C947A12672F782F8827B85F39F0B93F0D
:10238000CCF3869577956795B395D9F73EF49095FC
:102390008095709561957F4F8F4F9F4F0895E8947A
:1023A00009C097FB3EF490958095709561957F4F9D
:1023B0008F4F9F4F9923A9F0F92F96E9BB2793954B
:1023C000F695879577956795B795F111F8CFFAF45B
:1023D000BB0F11F460FF1BC06F5F7F4F8F4F9F4F8C
:1023E00016C0882311F096E911C0772321F09EE8EA
:1023F000872F762F05C0662371F096E8862F70E050
:1024000060E02AF09A95660F771F881FDAF7880F29
:102410009695879597F90895990F0008550FAA0B7F
:10242000E0E8FEEF16161706E807F907C0F01216E7
:102430001306E407F50798F0621B730B840B950BEA
:1024400039F40A2661F0232B242B252B21F408953F
:102450000A2609F4A140A6958FEF811D811D0895DC
:1024600097F99F6780E870E060E008959FEF80EC47
:10247000089500240A9416161706180609060895EA
:1024800000240A9412161306140605060895092E50
:102490000394000C11F4882352F0BB0F40F4BF2BBF
:1024A00011F460FF04C06F5F7F4F8F4F9F4F0895FF
:1024B00057FD9058440F551F59F05F3F71F04795F5
:1024C000880F97FB991F61F09F3F79F087950895DA
:1024D000121613061406551FF2CF4695F1DF08C0F9
:1024E000161617061806991FF1CF86957105610516
:1024F00008940895E894BB2766277727CB0197F9BE
:1025000008950E940C1208F48FEF08950E9499120A
:102510000C9447120E94391238F00E94401220F0A9
:10252000952311F00C9430120C94361211240C9453
:102530007B120E94581270F3959FC1F3950F50E0E3
:10254000551F629FF001729FBB27F00DB11D639F65
:10255000AA27F00DB11DAA1F649F6627B00DA11D0B
:10256000661F829F2227B00DA11D621F739FB00DB1
:10257000A11D621F839FA00D611D221F749F332721
:10258000A00D611D231F849F600D211D822F762FBA
:102590006A2F11249F5750409AF0F1F088234AF097
:1025A000EE0FFF1FBB1F661F771F881F9150504003
:1025B000A9F79E3F510580F00C9430120C947B12C9
:1025C0005F3FE4F3983ED4F3869577956795B7958A
:1025D000F795E7959F5FC1F7FE2B880F911D9695A4
:1025E000879597F90895EE0FFF1F0590F491E02D60
:1025F000099410E0C2E6D0E004C0FE010E94F3128C
:0C2600002196C336D107C9F7F894FFCF2C
:10260C0000000A04800074010300710103006E01D4
:10261C0003006B01030068010300650103004A011C
:10262C00030018000000000000000000E8FFE8FFB5
:10263C00000000000000140000000000000000007A
:10264C00ECFFECFF000000000000000000000000A8
:10265C00000000000000000000000000000000006E
:10266C000000000000010000010100000100000159
:10267C000100000101000100000000B304BA0900D0
:10268C000000006B04760922041F041C0419043B8F
:10269C00030E04D303BA03A103C10262033E030277
:1026AC0000000000007E04AE09FEFFFEFF00006C7F
:1026BC0004B0090600000000003604A209FAFFFA73
:1026CC00FF00002404A409D50128013201DF011800
:1026DC00000000000054048C09E8FFE8FF000061D2
:1026EC00049609F1013C014601FB011400000000B5
:1026FC00009C047809ECFFECFF0000A9048209009F
:10270C000000007101D100FE00BE012F010D01215E
:10271C000100000000C507D4040D0A004572726F59
:10272C0072206F636375726564210069734661740E
:10273C00616C3A20006572726F72436F64653A2067
:02274C0000008B
:00000001FF
