:020000040000FA
:100000000C9463000C948B000C948B000C948B006C
:100010000C948B000C948B000C948B000C94920B22
:100020000C948B000C948B000C948B000C948B0024
:100030000C948B000C948B000C948B000C948B0014
:100040000C94480B0C948B000C94160B0C94F00A37
:100050000C948B000C948B000C948B000C948B00F4
:100060000C948B000C948B000000000024002700EF
:100070002A0000000000250028002B0000000000DE
:1000800023002600290004040404040404040202DA
:100090000202020203030303030301020408102007
:1000A0004080010204081020010204081020000012
:1000B0000008000201000003040700000000000027
:1000C0000000F80C441111241FBECFEFD8E0DEBFB2
:1000D000CDBF12E0A0E0B1E0E0E6FAE202C0059098
:1000E0000D92AE35B107D9F725E0AEE5B2E001C01B
:1000F0001D92A038B207E1F710E0C2E6D0E004C0DC
:100100002197FE010E941D15C136D107C9F70E9433
:10011000380F0C9423150C9400001F93CF93DF939A
:10012000182FC0911D03D0911E038A3041F4E8813D
:10013000F9810190F081E02D6DE0CE010995E88113
:10014000F9810190F081E02D612FCE01099521E028
:1001500030E0019711F430E020E0C901DF91CF9148
:100160001F910895CF93DF93C0911D03D0911E037B
:10017000E881F9810084F185E02DCE010995892B74
:10018000B9F3E881F9810284F385E02DCE01DF9196
:10019000CF910994DC01ED91FC910190F081E02D6B
:1001A0000994AF92BF92CF92DF92EF92FF920F939A
:1001B0001F93CF93DF936C017B018B01040F151FFD
:1001C000EB015E01AE18BF08C017D10759F0699165
:1001D000D601ED91FC910190F081E02DC6010995C9
:1001E000892B79F7C501DF91CF911F910F91FF9076
:1001F000EF90DF90CF90BF90AF900895FC01538DAA
:10020000448D252F30E0842F90E0821B930B5417F0
:1002100010F0CF96089501970895FC01918D828D7D
:10022000981761F0A28DAE0FBF2FB11D5D968C9116
:10023000928D9F5F9F73928F90E008958FEF9FEF55
:100240000895FC01918D828D981731F0828DE80F11
:10025000F11D858D90E008958FEF9FEF0895FC01CB
:10026000918D228D892F90E0805C9F4F821B910998
:100270008F73992708958FE493E00E942F0121E066
:10028000892B09F420E0822F089580E090E0892BEB
:1002900029F00E943B0181110C9400000895FC019B
:1002A000A48DA80FB92FB11DA35ABF4F2C91848DD7
:1002B00090E001968F739927848FA689B7892C9334
:1002C000A089B1898C91837080648C93938D848D87
:1002D000981306C00288F389E02D80818F7D80838A
:1002E0000895EF92FF920F931F93CF93DF93EC014A
:1002F00081E0888F9B8D8C8D98131AC0E889F989CD
:10030000808185FF15C09FB7F894EE89FF896083CF
:10031000E889F98980818370806480839FBF81E050
:1003200090E0DF91CF911F910F91FF90EF90089592
:10033000F62E0B8D10E00F5F1F4F0F731127E02E6D
:100340008C8D8E110CC00FB607FCFACFE889F989A5
:10035000808185FFF5CFCE010E944F01F1CFEB8D5B
:10036000EC0FFD2FF11DE35AFF4FF0829FB7F89479
:100370000B8FEA89FB8980818062CFCFCF93DF9397
:10038000EC01888D8823B9F0AA89BB89E889F989AD
:100390008C9185FD03C0808186FD0DC00FB607FCE2
:1003A000F7CF8C9185FFF2CF808185FFEDCFCE0115
:1003B0000E944F01E9CFDF91CF910895833081F002
:1003C00028F4813099F08230A9F008958730A9F09F
:1003D0008830C9F08430B1F4809180008F7D03C0F3
:1003E000809180008F7780938000089584B58F7707
:1003F00084BD089584B58F7DFBCF8091B0008F7749
:100400008093B00008958091B0008F7DF9CFCF9395
:10041000DF93282F30E0F901E255FF4F8491F90175
:10042000E656FF4FD491F901EA57FF4FC491CC2310
:10043000A1F081110E94DE01EC2FF0E0EE0FFF1F12
:10044000E458FF4FA591B491EC91ED2381E090E049
:1004500009F480E0DF91CF91089580E090E0FACF39
:100460001F93CF93DF93282F30E0F901E255FF4F20
:100470008491F901E656FF4FD491F901EA57FF4FF5
:10048000C491CC23A9F0162F81110E94DE01EC2F1C
:10049000F0E0EE0FFF1FEE58FF4FA591B4918FB71C
:1004A000F894EC91111108C0D095DE23DC938FBF36
:1004B000DF91CF911F910895DE2BF8CFCF93DF937B
:1004C00090E0FC01E656FF4F24918A579F4FFC01B4
:1004D00084918823C9F090E0880F991FFC01E859A6
:1004E000FF4FA591B491FC01EE58FF4FC591D491F7
:1004F00061110DC09FB7F8948C91209582238C9345
:100500008881282328839FBFDF91CF91089562308F
:1005100051F49FB7F8943C91822F809583238C935C
:10052000E8812E2BEFCF8FB7F894EC912E2B2C93E4
:100530008FBFEACF8E3008F08E5087708064809332
:100540007C0080917A00806480937A0080917A00A8
:1005500086FDFCCF809178009091790008953FB797
:10056000F8948091180390911903A0911A03B09107
:100570001B0326B5A89B05C02F3F19F00196A11DAE
:10058000B11D3FBFBA2FA92F982F8827BC01CD01DD
:10059000620F711D811D911D42E0660F771F881F3C
:1005A000991F4A95D1F70895CB0108954F925F9214
:1005B0006F927F92BF92CF92DF92EF92FF920F9352
:1005C0001F93CF93DF93EC0129013A018B01C12CDA
:1005D000D12C7601C414D504E604F7040CF03FC016
:1005E000F801B1908F018F8580FF0BC0E881F98100
:1005F0000084F185E02D20E144E070E060E0CE0170
:100600000995EB85FC858D859E85E817F90760F4D3
:10061000B0828B859C8501969C878B872FEFC21AB1
:10062000D20AE20AF20AD6CF6B2D70E0E881F98196
:10063000028CF38DE02DCE010995019679F7C70163
:10064000B601DF91CF911F910F91FF90EF90DF9056
:10065000CF90BF907F906F905F904F9008957301FF
:100660006201EDCFCF93DF93EC01E881F98102883D
:10067000F389E02D09958F3F980731F02D813E8158
:100680002F5F3F4F3E832D83DF91CF9108958FEFF2
:100690009FEF089560E070E0CB01089590E080E066
:1006A0000895FF920F931F93CF93DF938C01EB017B
:1006B0006F3F7607B9F0F62EEAE06E1306C06DE0E4
:1006C000F801808991890E94CA006F2DF801808904
:1006D00091890E94CA00CE01DF91CF911F910F91A5
:1006E000FF900895D0E0C0E0F6CF7F928F929F9266
:1006F000AF92BF92CF92DF92EF92FF920F931F9330
:10070000CF93DF938C0149015A01EB01C12CD12C0D
:100710007601C814D904EA04FB04B4F479908AE0A1
:10072000781206C06DE0F801808991890E94CA00A4
:10073000672DF801808991890E94CA00FFEFCF1AC6
:10074000DF0AEF0AFF0AE5CFC501B401DF91CF91BF
:100750001F910F91FF90EF90DF90CF90BF90AF90DF
:100760009F908F907F900895CF93DF93EC018889BD
:100770009989DC01ED91FC910084F185E02D0995CA
:10078000892BA9F388899989DC01ED91FC91028478
:10079000F385E02DDF91CF910994CF93DF93EC01A6
:1007A00088899989DC01ED91FC910084F185E02D27
:1007B0000995892BA9F388899989DC01ED91FC9130
:1007C0000484F585E02DDF91CF9109948F929F925B
:1007D000AF92BF92CF92DF92EF92FF920F931F934F
:1007E000CF93DF938C0149015A01EB01C12CD12C2D
:1007F0007601D80150968D919C91DC01ED91FC9190
:100800000284F385E02D09958F3F61F0C814D90467
:10081000EA04FB043CF48993BFEFCB1ADB0AEB0A32
:10082000FB0AE7CFC701B601DF91CF911F910F916E
:10083000FF90EF90DF90CF90BF90AF909F908F9000
:100840000895DC0150968D919C91DC01ED91FC9115
:100850000084F185E02D099490E080E0089590E017
:1008600080E0089590E080E0089508950895DC0107
:10087000ED91FC9136970190F081E02DE80FF91F82
:1008800085ED91E0918380838FED91E0978386835E
:10089000089525ED31E0FC01318320832FED31E017
:1008A000378326830895FB0120813181FC01318348
:1008B0002083FB014281538126503109F9012081B7
:1008C0003181820F931FFC0151834083089521EFF2
:1008D00031E0FC01318320832BEF31E0318F208F19
:1008E00065EE71E00C945304DC01ED91FC913697B8
:1008F00020813181820F931F0C9467040895DC01DD
:10090000ED91FC9136970190F081E02DE80FF91FF1
:1009100081EC91E0918380838BEC91E093838283DF
:10092000089521EC31E0FC01318320832BEC31E090
:10093000338322830895FB0120813181FC013183BF
:100940002083FB014281538126503109F901208126
:100950003181820F931FFC015183408308952DE064
:1009600032E0FC013183208327E132E0358B248B98
:1009700061E072E00C949B04DC01ED91FC913697F0
:1009800020813181820F931F0C94AF040895089544
:10099000CF93DF93EC012881222349F00E94AF021C
:1009A0006D837E838F839887DF91CF9108952FB7D2
:1009B000F8944091140350911503609116037091BF
:1009C00017032FBF4D835E836F837887EDCF2F9200
:1009D0003F924F925F926F927F928F929F92AF92CF
:1009E000BF92CF92DF92EF92FF920F931F93CF931C
:1009F000DF93CDB7DEB763970FB6F894DEBF0FBEB7
:100A0000CDBF1C019C012A593F4F3A832983D9014C
:100A10008C91882309F462C20E94AF02AB01BC0131
:100A2000E981FA8185819681A781B08548175907A8
:100A30006A077B0708F05EC28C019D010095109546
:100A400020953095400F511F621F731F41835283C1
:100A500063837483E981FA81418152816381748166
:100A60000185128523853485401751076207730776
:100A700008F41BC2800F911FA21FB31F85839683AA
:100A8000A783B087F101EE59FF4F808191810197D3
:100A900009F00BC2D101DC968D909D90AD90BC9079
:100AA000DF977A97FA8BE98B80829182A282B38258
:100AB000CB01BA010E94F91320E030E04AE754E488
:100AC0000E9451132B013C01F101E05CFF4F20819A
:100AD0003181428153810E94B0146B017C01F1018C
:100AE000E45BFF4FFC83EB83C082D182E282F3821E
:100AF000A3019201389760817181828193810E9464
:100B000051138101005B1F4FF80160837183828361
:100B1000938374962081318121303105F1F4B7FA45
:100B2000B094B7F8B094A989BA898D929D92AD928C
:100B3000BC921397F7FAF094F7F8F094EB81FC81EC
:100B4000C082D182E282F382AB01BC017058D8012D
:100B50004D935D936D937C931397F10144A455A439
:100B600066A477A440AE51AE62AE73AE80A591A5E7
:100B7000A2A5B3A584AB95ABA6ABB7AB84A095A05B
:100B8000A6A0B7A0D10180AA91AAA2AAB3AA028066
:100B9000F381E02DFA83E983208131814281538101
:100BA0009C962D933D934D935C939F971696ED9154
:100BB000FC916081718182819381F10160A771A7AD
:100BC00082A793A70E94DF126B017C01D10194964A
:100BD000CD92DD92ED92FC929797A3019201E9816B
:100BE000FA8160817181828193810E94DF122B01E1
:100BF0003C01F101E05AFF4F8081918191012C5A13
:100C00003F4F3A832983009709F07BC1A7019601E2
:100C1000A989BA896D917D918D919C910E94B014A2
:100C2000E981FA816083718382839383D8016D9116
:100C30007D918D919C919058A30192010E94B014D6
:100C40002B013C01F101E45AFF4F40825182628244
:100C50007382A7019601C501B4010E94E01220E051
:100C600030E040E05FE30E94B014EB81FC81208122
:100C70003181428153810E94B014F101E85AFF4F43
:100C800020813181428153810E94E0128B0188874B
:100C90009F83D1015896BC91BB83F101F18DF983FB
:100CA000D1015A96BC91BD83F101F38DFE832B8156
:100CB00039814B2F5F2F0E944C1387FD1FC0D1013C
:100CC0005496BC91BB83F101F589F983D101569605
:100CD000BC91BD83F101F789FE832B8139814B2FB4
:100CE0005F2FB80188859F810E94AB14181634F0DD
:100CF0000B83198328852D833F813E83F101EC5AB4
:100D0000FF4F2081318142815381D10118966D912D
:100D10007D918D919C911B970E94E0126B017C014B
:100D2000AC019B01C301B2010E94E0124B015C01C6
:100D3000F101F485FD87D1011D96BC91BE87F101BB
:100D4000F685FF87D1011F96BC91B88BAC019B0142
:100D50006D857E858F2F9B2F0E94DF1269877A8792
:100D60008B879C8720E030E0A9010E944C1387FD0F
:100D7000D5C029853A854B855C856D857E858F85B7
:100D800098890E944C1387FF08C0ED85E987FE858E
:100D9000FA872F852B8738893C87D10150960C9193
:100DA000509751961C9151975296BC91BF83F10177
:100DB000F389F88798014B2F5F2FC501B4010E947A
:100DC000DF125B018B8B998B9B01AC01B8018F818A
:100DD00098850E94AB1418160CF4A5C020E030E0F2
:100DE000A901B5018B8999890E94AB14181624F4C6
:100DF000A12CB12C1B8A198A95014B8959896B81C9
:100E000079818D819E810E944C1387FD13C02985B5
:100E10003A854B855C856B8179818D819E810E94AD
:100E2000AB1418160CF085C0A984BA848B858B8B03
:100E30009C85998BC501AB89B989F101E85AFF4FAF
:100E400080839183A283B3839501AD01C701B6016D
:100E50000E94E012A30192010E94E0127B018B83A9
:100E600099839B01AC01B8018F8198850E94AB14D6
:100E7000181684F097014B8159816D857E858F8589
:100E800098890E944C1387FD5BC08701EB81EF833B
:100E9000F981F887D1011496ED91FC91C801AF81D9
:100EA000B88580839183A283B38363960FB6F89449
:100EB000DEBF0FBECDBFDF91CF911F910F91FF908D
:100EC000EF90DF90CF90BF90AF909F908F907F90EA
:100ED0006F905F904F903F902F9008958FB7F89448
:100EE00040911403509115036091160370911703FC
:100EF0008FBF96CD481B590B6A0B7B0BE981FA819A
:100F0000A5CD019709F092CEA989BA896D917D91FD
:100F10008D919C919058A301920180CE19861A86DA
:100F20001B861C863ACF58012F812B8B3885398B35
:100F300063CFAB80B980AD81AB8BBE81B98B7ACFEB
:100F40000D851E852F852F8338893887A3CFFC0117
:100F500014A215A216A217A210A611A612A613A6D5
:100F600014A615A616A617A610AA11AA12AA13AAA5
:100F700014AA15AA16AA17AA10AE11AE12AE13AE75
:100F8000DC01AC5ABF4F1D921D921D921C9213970B
:100F900014961D921D921D921C92139714961D92E9
:100FA0001D921D921C9213978A599F4F0C94C8044E
:100FB0002F923F924F925F926F927F928F929F9269
:100FC000AF92BF92CF92DF92EF92FF920F931F9357
:100FD000CF93DF9300D0CDB7DEB73C01F8018F8906
:100FE000988D9A838983098D1A8DD30113967C93EA
:100FF0006E93129715965C934E93149717963C93A5
:101000002E931697208031804280538020E030E07C
:10101000A901C201B1010E94AB1487FD35C020E0D7
:1010200030E0A901F70160817181828193810E9482
:10103000AB1487FD29C020E030E0A901D6016D91F5
:101040007D918D919C910E94AB1487FD1DC0F30191
:1010500024AE35AE46AE57AEF70180819181A281B4
:10106000B381F301E05CFF4F80839183A283B3835C
:10107000F60180819181A281B381F301EC5BFF4F86
:1010800080839183A283B383D5018D919C91F301D9
:10109000E05AFF4F91838083F80180819181A28182
:1010A000B381F30180879187A287B387D4018D91A3
:1010B0009C91EC59FF4F9183808383010E591F4F00
:1010C000F80180819181019719F4C3010E94A7075B
:1010D000A981BA814D915C9170E060E0C3018A59A9
:1010E0009F4FFC01108241875287638774870E945B
:1010F000C804C3010E94A707F8018081918101976C
:10110000D9F081E090E091838083C3010F900F902C
:10111000DF91CF911F910F91FF90EF90DF90CF90D3
:10112000BF90AF909F908F907F906F905F904F9007
:101130003F902F900C94A7070F900F90DF91CF91C5
:101140001F910F91FF90EF90DF90CF90BF90AF90E5
:101150009F908F907F906F905F904F903F902F90D7
:101160000895EF92FF920F931F93CF93DF93E82E92
:10117000F12C8701000F111F000F111F005D1A4F86
:10118000F80160817181828193810E94CA138AE093
:101190008E9DE0018F9DD00D1124C85CDA4F8881AF
:1011A0000E945E02F80160817181828193810E94B8
:1011B000CA1389810E945E02F80160817181828177
:1011C00093810E94CA138A810E945E0260E08B8133
:1011D0000E945E0260E08C810E945E0260E08D8170
:1011E0000E945E0260E08E81DF91CF911F910F918E
:1011F000FF90EF900C945E02CF92DF92EF92FF92FD
:101200000F931F93CF93DF93082F10E0E801CC0FCB
:10121000DD1FCC0FDD1FFE01E05DFA4FFF24F394CC
:1012200020E030E0A90160817181828193810E9478
:10123000AB1418160CF0F12C8AE0809FF001819F0E
:10124000F00D1124E85CFA4F6F2D81810E9430026D
:10125000C05DDA4FC880D980EA80FB8020E030E0B2
:10126000A901C701B6010E94AB14181604F5C70105
:10127000B6010E94C313EB018AE0809FF001819FB9
:10128000F00D1124E85CFA4F108161E0812F0E947B
:101290005E02209781F460E0812FDF91CF911F9152
:1012A0000F91FF90EF90DF90CF900C943002C70128
:1012B000B6019058DECFCF3FD10511F461E0ECCFFD
:1012C000E12FF0E0E255FF4FE491E33059F140F4B3
:1012D000E130B1F0E23009F1C038D1057CF7DBCF65
:1012E000E73051F1E83081F1E430B1F780918000CE
:1012F000806280938000D0938B00C0938A0004C0EA
:1013000084B5806884BDC7BDDF91CF911F910F91D7
:10131000FF90EF90DF90CF90089584B5806284BDF8
:10132000C8BDF2CF80918000806880938000D09308
:101330008900C0938800E8CF8091B00080688093D6
:10134000B000C093B300E0CF8091B0008062809382
:10135000B000C093B400D8CFCF93DF93D0E0C0E00B
:10136000009771F0FC0101900020E9F73197AF017F
:10137000481B590BBC018FE493E00E94D100EC01A3
:1013800042E050E065E372E08FE493E00E94D10018
:101390008C0F9D1FDF91CF910895CF93C82F88E3C5
:1013A00092E00E94AC098C2F90E0895B9D4F0E94D7
:1013B000AC0980915E0290E08F5A9D4F0E94AC096B
:1013C000C111FECFCF910895CF93DF93EC010E941E
:1013D000AF04CE01DF91CF910C944F12DC01ED915F
:1013E000FC91369720813181820F931F0C94E40980
:1013F000CF93DF93EC010E946704CE01DF91CF9180
:101400000C944F12DC01ED91FC91369720813181D3
:10141000820F931F0C94F8090C944F120C944F12E6
:10142000DC01ED91FC91369720813181820F931F71
:101430000C940E0A0C944F120C944F12DC01ED9197
:10144000FC91369720813181820F931F0C941C0AE6
:101450000C944F120C944F128F929F92AF92BF92A6
:10146000CF92DF92EF92FF920F931F93CF93DF9370
:10147000F8949AE0899FE0011124C85CDA4F60E09B
:101480008A810E943002E5E0EA95F1F7000061E010
:101490008A810E943002F5E0FA95F1F700008B8115
:1014A0000E940702892BB1F482E080935E0280E003
:1014B0000E94CD096FEF7FEFCB01DF91CF911F919C
:1014C0000F91FF90EF90DF90CF90BF90AF909F90E3
:1014D0008F90089507E110E0812C912C54016E014A
:1014E00082E0C80ED11CEE24E394F12C2396880CE4
:1014F000991CAA1CBB1C8BB1F6019081970102C0FC
:10150000220F331F9A95E2F72095309582238BB9ED
:10151000F5E0FA95F1F700008BB1F60190819701A3
:1015200001C0220F9A95EAF7822B8BB9F5E0FA9564
:10153000F1F7000088810E940702092E000CAA0B17
:10154000BB0B882A992AAA2ABB2A0150110979F6CD
:1015500080FC06C083E080935E0281E00E94CD099A
:101560008AE68A95F1F700C07894C501B40127E0B6
:1015700096958795779567952A95D1F79ECFCF92C7
:10158000DF92EF92FF92CF93DF93C82F0E942C0A35
:101590006B017C018C2F0E942C0AC616D706E80628
:1015A000F90671F081E080935E0280E00E94CD092F
:1015B00081E0DF91CF91FF90EF90DF90CF90089581
:1015C00084E0C89FE0011124C85FDA4FC701B6016B
:1015D0000E94F913688379838A839B8380E0E9CF33
:1015E0001F920F920FB60F9211242F933F934F9398
:1015F0005F936F937F938F939F93AF93BF93EF937B
:10160000FF938FE493E00E944F01FF91EF91BF9110
:10161000AF919F918F917F916F915F914F913F918A
:101620002F910F900FBE0F901F9018951F920F9241
:101630000FB60F9211242F938F939F93EF93FF93E5
:10164000E0915F03F09160038081E0916503F09188
:10165000660382FD1BC09081809168038F5F8F734A
:1016600020916903821741F0E0916803F0E0E15BAB
:10167000FC4F958F80936803FF91EF919F918F911D
:101680002F910F900FBE0F901F9018958081F4CF6F
:101690001F920F920FB60F9211242F933F938F93A7
:1016A0009F93AF93BF938091140390911503A091E2
:1016B0001603B09117033091130323E0230F2D3746
:1016C00058F50196A11DB11D2093130380931403B7
:1016D00090931503A0931603B093170380911803FA
:1016E00090911903A0911A03B0911B030196A11DBB
:1016F000B11D8093180390931903A0931A03B0931C
:101700001B03BF91AF919F918F913F912F910F90AC
:101710000FBE0F901F90189526E8230F0296A11D6B
:10172000B11DD2CF1F920F920FB60F9211242F939B
:101730003F934F936F937F938F939F93AF93BF93F9
:10174000EF93FF93809100018F5F809300018111DF
:1017500038C0EFE5F2E047818581411103C09085F3
:101760009923E9F090E03681232F30E0BC01621B21
:10177000730B161617064CF4442389F0240F311D01
:101780002817390764F4C9010AC0672B41F0408566
:10179000442329F0241B310982179307A4F386837D
:1017A0008681882349F09181A281B381848191113E
:1017B00031C09C91892B8C93399683E0E331F807F3
:1017C00051F6EFE5F2E0808187FD0FC080910001C6
:1017D000968198130AC09181A281B381848191116D
:1017E0001DC09C91809589238C93399683E0E331C9
:1017F000F80749F7FF91EF91BF91AF919F918F91BA
:101800007F916F914F913F912F910F900FBE0F904D
:101810001F9018959C9180958923CDCF9C91892B01
:10182000E3CFFA01460F571FE417F50729F021917E
:10183000DC012D93CD01F8CF0895CF93DF93EB0119
:1018400088819981A1E2B3E011969C938E932A81BD
:101850003B810697EC01E881F981EF5DFC4F318314
:10186000208312961D921D921D921C92159781E263
:1018700090E09483838387E293E0948B838B15823B
:10188000158ADF91CF910895CF93DF93C1E2D3E022
:1018900081E290E09C8F8B8F1D8E1E8E1F8E86E0C6
:1018A00090E0A0E0B0E088A399A3AAA3BBA31CA2E8
:1018B0001DA21EA21FA287E991E0998F888F80E266
:1018C00088A71AA619A61DA687E293E09CA78BA756
:1018D000AC0165EE71E0CE010E941D0C81EF91E03C
:1018E000998388838BEF91E0998F888F1A86198668
:1018F0001C861B861E861D86188A1F861A8A198AD0
:101900001C8A1B8A8FE991E09F838E838FE493E08A
:101910009F8B8E8B88E08D8BDF91CF910895DB01BB
:101920008D919C9111979093ED038093EC03129607
:101930002D913C910697DC01ED91FC91E451FC4F17
:101940003183208381E290E0948383838EEE93E061
:10195000948B838B1582158A0895CF93DF93CCEEF9
:10196000D3E081E290E0988F8F8B198E1A8E1B8EB8
:1019700086E090E0A0E0B0E08C8F9D8FAE8FBF8FAF
:1019800018A219A21AA21BA287E991E09D8B8C8B49
:1019900080E28CA31EA21DA219A68EEE93E098A74A
:1019A0008FA3AC0161E072E0CE010E948F0C8DE04C
:1019B00092E09983888387E192E09D8B8C8B1E82D5
:1019C0001D8218861F821A8619861C861B861E8613
:1019D0001D86188A1F868FE991E09B838A838FE496
:1019E00093E09B8B8A8B80E1898BDF91CF91089567
:1019F0000F931F93CF93DF93CDB7DEB768970FB6E2
:101A0000F894DEBF0FBECDBF109252031092510367
:101A100088EE93E0A0E0B0E08093530390935403EA
:101A2000A0935503B09356038FE192E09093500337
:101A300080934F0385EC90E090935C0380935B036D
:101A400084EC90E090935E0380935D0380EC90E0E3
:101A50009093600380935F0381EC90E09093620326
:101A60008093610382EC90E090936403809363031E
:101A700086EC90E090936603809365031092680370
:101A80001092690310926A0310926B036FE473E083
:101A90008CEE93E00E94AD0C6FE473E081E293E082
:101AA0000E94440C1092200310921F038FE493E0D5
:101AB00090931E0380931D0362EB70E08DE890E02D
:101AC0000E944C119093200380931F0340910701C3
:101AD000509108016091090170910A01CE010196AF
:101AE0000E94110C40910B0150910C0160910D016D
:101AF00070910E01CE0104960E94110C40910F01CD
:101B0000509110016091110170911201CE01079660
:101B10000E94110C40911301509114016091150124
:101B200070911601CE010A960E94110C4091170186
:101B3000509118016091190170911A01CE010D9612
:101B40000E94110C40911B0150911C0160911D01DC
:101B500070911E01CE0140960E94110CA4E6B5E0E2
:101B6000FE013196CE0143962191319141912D9301
:101B70003D934D93E817F907B9F7E9E6F1E0ACE4D6
:101B8000B5E041915191619171914D935D936D9348
:101B90007D9381E0E138F807A1F7EFE5F1E0DE01A0
:101BA000119681918D9381E0E936F807D1F7E5E54B
:101BB000F1E0DE011B9681918D9381E0EF35F8070E
:101BC000D1F78AE0FE013196A8E3B5E001900D92CD
:101BD0008A95E1F78AE0FE013B96A2E4B5E0019028
:101BE0000D928A95E1F7109230051092310510920E
:101BF000320510923305109234051092350510927B
:101C000036051092370519821A821B821C821D82AA
:101C10001E821F82188619861A861B861C861D86C0
:101C20001E861F86188A198A1A8A1B8A1C8A1D8A90
:101C30001E8A1F8A188E8CE0FE013196A8E1B5E05D
:101C400001900D928A95E1F78CE0FE013D96A4E2A9
:101C5000B5E001900D928A95E1F71092100510926F
:101C6000110510921205109213051092140510928E
:101C7000150510921605109217051092080510927E
:101C8000090510920A0510920B0510920C0510928E
:101C90000D0510920E0510920F0510920605109278
:101CA000070540911F015091200160912101709121
:101CB0002201CE0101960E94110C40912301509106
:101CC00024016091250170912601CE0104960E94A5
:101CD000110C89819A81AB81809300059093010555
:101CE000A09302058C819D81AE8180930305909322
:101CF0000405A09305051092FE041092FF041092B3
:101D0000FC041092FD04E1E3F2E0F0931704E09389
:101D1000160400E010E02FE733E400932204109350
:101D20002304209324043093250410922604109257
:101D30002704109228041092290440E050E06AE73A
:101D400074E440932A0450932B0460932C04709302
:101D50002D0480E090E0AAE7B4EC80932E049093E9
:101D60002F04A0933004B0933104109232041092E7
:101D700033041092340410923504109236041092F9
:101D80003704109238041092390410927C04109297
:101D90007D0410927E0410927F04109280041092B1
:101DA0008104109282041092830410928404109291
:101DB0008504109286041092870410928804F09390
:101DC0008A04E09389040093950410939604209369
:101DD0009704309398041092990410929A041092E8
:101DE0009B0410929C0440939D0450939E04609326
:101DF0009F047093A0048093A1049093A204A093E5
:101E0000A304B093A4041092A5041092A604109207
:101E1000A7041092A8041092A9041092AA04109288
:101E2000AB041092AC041092EF041092F0041092E4
:101E3000F1041092F2041092F3041092F404109240
:101E4000F5041092F6041092F7041092F804109220
:101E5000F9041092FA041092FB0468960FB6F894F5
:101E6000DEBF0FBECDBFDF91CF911F910F910895BF
:101E7000CF93DF93CDB7DEB766970FB6F894DEBF8A
:101E80000FBECDBF789484B5826084BD84B5816077
:101E900084BD85B5826085BD85B5816085BD809135
:101EA0006E00816080936E001092810080918100AD
:101EB00082608093810080918100816080938100A5
:101EC000809180008160809380008091B100846067
:101ED0008093B1008091B00081608093B0008091C8
:101EE0007A00846080937A0080917A008260809387
:101EF0007A0080917A00816080937A0080917A00E4
:101F0000806880937A001092C100E0915F03F091A5
:101F1000600382E08083E0915F03F09160031082B0
:101F2000E0915B03F0915C031082E0915D03F0911E
:101F30005E0380E1808310926703E0916303F09178
:101F4000640386E08083E0916103F0916203808105
:101F500080618083E0916103F091620380818860F9
:101F60008083E0916103F0916203808180688083C7
:101F7000E0916103F091620380818F7D808380E036
:101F80000E94B10881E00E94B1081091380561E01B
:101F9000812F0E945E0260E0812F0E94300261E08A
:101FA000809139050E94300280E00E94BF0A1982A8
:101FB0001A821B821C821E821D8218861F821A862C
:101FC0001986CE0101969F938F9304969F938F93CA
:101FD0009E01295F3F4F490104965C0160E2C62ED5
:101FE00065E0D62E7CE1E72E75E0F72E08E115E0DE
:101FF00020E135E040E355E068E075E086E194E0FB
:102000000E94D80780E090E0AFE7B3E48093220419
:1020100090932304A0932404B093250480E090E0DF
:10202000AFE7B3EC8093260490932704A093280491
:10203000B09329040F900F900F900F908091780427
:1020400090917904019741F500911A0410911B04B5
:10205000D801CD90DD90ED90FC9020E030E04FE78E
:1020600053ECC701B6010E944C1387FD93C020E0DA
:1020700030E04FE753E4C701B6010E94AB141816D5
:1020800034F4C12CD12C5FE7E52E53E4F52EF80192
:10209000C082D182E282F38280E090E0A0E2B1E4EB
:1020A00080932A0490932B04A0932C04B0932D04C6
:1020B00080E090E0A0E2B1EC80932E0490932F0496
:1020C000A0933004B093310400E0E02EF12CF3E74C
:1020D0000F9F800111240A5E1B4F1E870D87180178
:1020E00022E6220E311C80E095E001969A8B898BC6
:1020F000D701AA0FBB1FAA0FBB1FBC8BAB8BEB89F1
:10210000FC89E05DFA4FFE8BED8B28E3C22E25E0C3
:10211000D22E96012C5F3F4F388B2F8780911C0366
:10212000811103C081E080931C03C7018A5F9A4F2D
:102130005C01DC018C91F701E250FB4F91E08430AF
:1021400008F490E09083843008F077C080E090E05D
:10215000AFE7B3E4ED89FE8980839183A283B383E3
:1021600080E00E94FC08970124503B4F3C872B875E
:10217000D9018C918823A9F0F501108280E090E0CC
:10218000892B61F20E943B01882309F4BECF0E9493
:102190000000B5CFC12CD12C4FE7E42E43ECF42E38
:1021A00076CF0E94AF024B015C0192E0492E512C88
:1021B000612C712C0E94AF02681979098A099B0968
:1021C000683E734081059105A8F3F8EE8F0EF3E0A9
:1021D0009F1EA11CB11C4A9445284628472829F077
:1021E000412C512C32014394E5CFAF85B8898C91B5
:1021F0000E949A0221E08F3F93400CF420E020934C
:102200000005F60185810E949A0221E08F3F9340EC
:102210000CF420E0A989BA892C93F60186810E94EA
:102220009A0221E08F3F93400CF420E020930205B6
:1022300081E0AB85BC858C93A1CF80E00E94BF0A72
:102240008823A1F0F10180819181892B11F0118205
:102250001082AD85BE85ED91FC910280F381E02D69
:10226000C801099580E00E94FC0888CFD1018D91BA
:102270009C911197019769F381E090E08D939C9375
:10228000C8010E94A707E5CF81E293E00E9467049E
:102290008CEE93E00C94AF040F931F93CF93DF93D6
:1022A000009759F46115710541F4F0E0E0E0CF01C9
:1022B000DF91CF911F910F9108958B01EC016EE09A
:1022C00070E081E090E00E949711FC01892B69F396
:1022D00080E883830115110571F01387028781E877
:1022E00083838091760590917705892B21F4F09373
:1022F0007705E09376052097D1F2D187C087838157
:10230000826083838091780590917905892B79F695
:10231000F0937905E093780580917A0590917B059B
:10232000892B29F6F0937B05E0937A05C0CF0F93B4
:102330001F93CF93DF93869F8001879F100D969FF9
:10234000100D1124C8010E94B311EC01009729F06F
:10235000A80170E060E00E94D812CE01DF91CF9119
:102360001F910F9108950F931F93CF93DF938230A6
:10237000910510F482E090E0E0917E05F0917F05F8
:1023800030E020E0B0E0A0E0309799F4211531056D
:1023900009F44AC0281B390B24303105D8F58A814D
:1023A0009B816115710589F1FB0193838283FE0195
:1023B00011C0408151810281138148175907E0F013
:1023C0004817590799F4109761F012960C931297D9
:1023D00013961C933296CF01DF91CF911F910F91ED
:1023E000089500937E0510937F05F4CF21153105E4
:1023F00051F04217530738F0A901DB019A01BD01E2
:10240000DF01F801C1CFEF01F9CF90937F058093F1
:102410007E05CDCFFE01E20FF31F819391932250F1
:10242000310939832883D7CF20917C0530917D05F0
:10243000232B41F4209103013091040130937D0559
:1024400020937C0520910101309102012115310575
:1024500041F42DB73EB74091050150910601241B70
:10246000350BE0917C05F0917D05E217F307A0F4B0
:102470002E1B3F0B2817390778F0AC014E5F5F4FDA
:102480002417350748F04E0F5F1F50937D0540938A
:102490007C05819391939FCFF0E0E0E09CCFCF93B8
:1024A000DF930097E9F0FC01329713821282A0912A
:1024B0007E05B0917F05ED0130E020E01097A1F49A
:1024C00020813181820F931F20917C0530917D0501
:1024D0002817390709F061C0F0937D05E0937C056A
:1024E000DF91CF910895EA01CE17DF07E8F54A8121
:1024F0005B819E0141155105B1F7E901FB83EA8338
:1025000049915991C40FD51FEC17FD0761F48081E3
:1025100091810296840F951FE901998388838281B6
:1025200093819B838A83F0E0E0E012968D919C91E9
:1025300013970097B9F52D913C911197CD01029613
:10254000820F931F20917C0530917D052817390754
:1025500039F6309751F510927F0510927E05B093B1
:102560007D05A0937C05BCCFD383C283408151817C
:10257000840F951FC817D90761F44E5F5F4F88819C
:102580009981480F591F518340838A819B8193838E
:1025900082832115310509F0B0CFF0937F05E093D8
:1025A0007E059ECFFD01DC01C0CF13821282D7CF02
:1025B000DC0101C06D9341505040E0F70895505840
:1025C000BB27AA270E94F7120C9471140E9463146F
:1025D00038F00E946A1420F039F49F3F19F426F471
:1025E0000C9460140EF4E095E7FB0C945A14E92F58
:1025F0000E94821458F3BA1762077307840795077D
:1026000020F079F4A6F50C94A4140EF4E0950B2EAA
:10261000BA2FA02D0B01B90190010C01CA01A00134
:102620001124FF27591B99F0593F50F4503E68F18F
:102630001A16F040A22F232F342F4427585FF3CFD0
:10264000469537952795A795F0405395C9F77EF4A1
:102650001F16BA0B620B730B840BBAF09150A1F0EA
:10266000FF0FBB1F661F771F881FC2F70EC0BA0F70
:10267000621F731F841F48F4879577956795B795F8
:10268000F7959E3F08F0B0CF9395880F08F09927F3
:10269000EE0F9795879508950E94361408F481E00F
:1026A00008950E9465130C9471140E946A1458F0E6
:1026B0000E94631440F029F45F3F29F00C945A14EF
:1026C00051110C94A5140C9460140E94821468F3A8
:1026D0009923B1F3552391F3951B550BBB27AA27DB
:1026E00062177307840738F09F5F5F4F220F331F15
:1026F000441FAA1FA9F335D00E2E3AF0E0E832D0DD
:1027000091505040E695001CCAF72BD0FE2F29D0DF
:10271000660F771F881FBB1F261737074807AB07B1
:10272000B0E809F0BB0B802DBF01FF2793585F4F26
:102730003AF09E3F510578F00C945A140C94A5146D
:102740005F3FE4F3983ED4F3869577956795B79508
:10275000F7959F5FC9F7880F911D9695879597F913
:102760000895E1E0660F771F881FBB1F621773078C
:102770008407BA0720F0621B730B840BBA0BEE1FA1
:1027800088F7E09508950E94CA136894B1110C94DB
:10279000A51408950E948A1488F09F5798F0B92FC5
:1027A0009927B751B0F0E1F0660F771F881F991F86
:1027B0001AF0BA95C9F714C0B13091F00E94A41470
:1027C000B1E008950C94A414672F782F8827B85F80
:1027D00039F0B93FCCF3869577956795B395D9F7DE
:1027E0003EF490958095709561957F4F8F4F9F4FE8
:1027F0000895E89409C097FB3EF4909580957095F4
:1028000061957F4F8F4F9F4F9923A9F0F92F96E93C
:10281000BB279395F695879577956795B795F111B1
:10282000F8CFFAF4BB0F11F460FF1BC06F5F7F4F4E
:102830008F4F9F4F16C0882311F096E911C0772360
:1028400021F09EE8872F762F05C0662371F096E869
:10285000862F70E060E02AF09A95660F771F881F38
:10286000DAF7880F9695879597F90895990F0008DC
:10287000550FAA0BE0E8FEEF16161706E807F90752
:10288000C0F012161306E407F50798F0621B730BED
:10289000840B950B39F40A2661F0232B242B252B6E
:1028A00021F408950A2609F4A140A6958FEF811D11
:1028B000811D089597F99F6780E870E060E00895B2
:1028C0009FEF80EC089500240A9416161706180648
:1028D0000906089500240A94121613061406050624
:1028E0000895092E0394000C11F4882352F0BB0FB5
:1028F00040F4BF2B11F460FF04C06F5F7F4F8F4F18
:102900009F4F089557FD9058440F551F59F05F3F52
:1029100071F04795880F97FB991F61F09F3F79F001
:1029200087950895121613061406551FF2CF469583
:10293000F1DF08C0161617061806991FF1CF869505
:102940007105610508940895E894BB2766277727E9
:10295000CB0197F908950E94361408F48FEF08957B
:102960000E94C3140C9471140E94631438F00E94E6
:102970006A1420F0952311F00C945A140C946014EE
:1029800011240C94A5140E94821470F3959FC1F336
:10299000950F50E0551F629FF001729FBB27F00D0D
:1029A000B11D639FAA27F00DB11DAA1F649F662762
:1029B000B00DA11D661F829F2227B00DA11D621FB1
:1029C000739FB00DA11D621F839FA00D611D221F6B
:1029D000749F3327A00D611D231F849F600D211D4F
:1029E000822F762F6A2F11249F5750409AF0F1F0D2
:1029F00088234AF0EE0FFF1FBB1F661F771F881F3B
:102A000091505040A9F79E3F510580F00C945A1404
:102A10000C94A5145F3FE4F3983ED4F38695779524
:102A20006795B795F795E7959F5FC1F7FE2B880FE0
:102A3000911D9695879597F90895EE0FFF1F0590C4
:102A4000F491E02D099410E0C2E6D0E004C0FE014C
:102A50000E941D152196C336D107C9F7F894FFCF00
:102A6000FF000080058000900103008D0103008AB3
:102A70000103008701030084010300810103005268
:102A80000103004F010300180000000000000000D7
:102A900000E8FFE8FF000000000000140000000054
:102AA0000000000000ECFFECFF0000000000000050
:102AB000000000000008040C0B11100F0902150A99
:102AC00005010012131409020E00000000000000AE
:102AD00000000000000000000000000000000000F6
:102AE00000010000010100000100000101000001DF
:102AF00001000100000000C604280A000000007E5A
:102B0000041A0A350432042F042C044E032104E66F
:102B100003CD03B403D40275035103020000000087
:102B20000091041C0AFEFFFEFF00007F041E0A063F
:102B3000000000000049040E0AFAFFFAFF00003707
:102B400004100AF1012D013701FB011800000000FB
:102B5000006704F809E8FFE8FF00007404020A0DAA
:102B60000241014B011702140000000000AF04E411
:102B700009ECFFECFF0000BC04EE0900000000714E
:102B800001D100FE00BE012F010D01210100000056
:102B900000D807E7040D0A004572726F72206F6358
:102BA000637572656421006973466174616C3A20D3
:0E2BB000006572726F72436F64653A20000018
:107800000C94343C0C94513C0C94513C0C94513CE1
:107810000C94513C0C94513C0C94513C0C94513CB4
:107820000C94513C0C94513C0C94513C0C94513CA4
:107830000C94513C0C94513C0C94513C0C94513C94
:107840000C94513C0C94513C0C94513C0C94513C84
:107850000C94513C0C94513C0C94513C0C94513C74
:107860000C94513C0C94513C11241FBECFEFD8E036
:10787000DEBFCDBF11E0A0E0B1E0ECE9FFE702C060
:1078800005900D92A230B107D9F712E0A2E0B1E065
:1078900001C01D92AD30B107E1F70E942D3D0C945F
:1078A000CC3F0C94003C982F959595959595959582
:1078B000905D8F708A307CF0282F295A8091C0000B
:1078C00085FFFCCF9093C6008091C00085FFFCCF60
:1078D0002093C6000895282F205DF0CF982F809127
:1078E000C00085FFFCCF9093C6000895EF92FF92F1
:1078F0000F931F93EE24FF2487018091C00087FD22
:1079000017C00894E11CF11C011D111D81E4E8164B
:1079100082E4F8068FE0080780E0180770F3E09132
:107920000401F091050109958091C00087FFE9CF1E
:107930008091C6001F910F91FF90EF9008950E94D3
:10794000763C982F8091C00085FFFCCF9093C600B5
:1079500091362CF490330CF09053892F089597555D
:10796000892F08951F930E949F3C182F0E949F3CCF
:107970001295107F810F1F9108951F93182F882350
:1079800021F00E94763C1150E1F71F9108951F935A
:10799000182F0E94763C803249F0809103018F5F5E
:1079A000809303018530C1F01F9108958091C0003C
:1079B00085FFFCCF84E18093C6008091C00085FFE5
:1079C000FCCF1093C6008091C00085FFFCCF80E102
:1079D0008093C6001F910895E0910401F091050184
:1079E00009951F9108950E94763C803241F0809164
:1079F00003018F5F80930301853081F008958091AA
:107A0000C00085FFFCCF84E18093C6008091C00058
:107A100085FFFCCF80E18093C6000895E0910401CA
:107A2000F09105010995089540E951E08823A1F0FE
:107A30002D9A28EE33E0FA013197F1F721503040CA
:107A4000D1F72D9828EE33E0FA013197F1F7215064
:107A50003040D1F7815061F708953F924F925F9285
:107A60006F927F928F929F92AF92BF92CF92DF924E
:107A7000EF92FF920F931F93CF93DF93000080E16B
:107A80008093C4001092C50088E18093C10086E015
:107A90008093C2005098589A259A81E00E94143D24
:107AA00024E1F22E9EE1E92E85E9D82E0FE0C02ECA
:107AB00010E1B12EAA24A394B1E49B2EA6E58A2E50
:107AC000F2E57F2EE0E26E2E79E4572E63E5462E36
:107AD00050E5352E0E94763C8033B1F18133B9F107
:107AE000803409F46FC0813409F476C0823409F41B
:107AF00085C0853409F488C0803531F1823521F1A3
:107B0000813511F1853509F485C0863509F48DC0BC
:107B1000843609F496C0843709F403C1853709F423
:107B200072C1863709F466C0809103018F5F80932C
:107B30000301853079F6E0910401F0910501099582
:107B40000E94763C803351F60E94F33CC3CF0E94E2
:107B5000763C803249F78091C00085FFFCCFF092DF
:107B6000C6008091C00085FFFCCF9092C600809136
:107B7000C00085FFFCCF8092C6008091C00085FFC9
:107B8000FCCF7092C6008091C00085FFFCCF609250
:107B9000C6008091C00085FFFCCF5092C600809146
:107BA000C00085FFFCCF4092C6008091C00085FFD9
:107BB000FCCF3092C6008091C00085FFFCCFB09210
:107BC000C60088CF0E94763C863808F4BDCF0E945C
:107BD000763C0E94F33C7ECF0E94763C803809F4CC
:107BE0009CC0813809F40BC1823809F43CC1883942
:107BF00009F48FC080E00E94C73C6CCF84E10E94F2
:107C0000BD3C0E94F33C66CF85E00E94BD3C0E94D3
:107C1000F33C60CF0E94763C809306010E94763C44
:107C2000809307010E94F33C55CF0E94763C80333D
:107C300009F41DC183E00E94BD3C80E00E94C73C66
:107C400049CF0E94763C809309020E94763C809343
:107C5000080280910C028E7F80930C020E94763C79
:107C6000853409F415C18091080290910902892B8D
:107C700089F000E010E00E94763CF801E85FFE4FDA
:107C800080830F5F1F4F80910802909109020817AF
:107C9000190788F30E94763C803209F045CF809125
:107CA0000C0280FF01C16091060170910701660F0F
:107CB000771F7093070160930601A0910802B091AD
:107CC00009021097C9F0E8E0F1E09B01AD014E0F09
:107CD0005F1FF999FECF32BD21BD819180BDFA9A17
:107CE000F99A2F5F3F4FE417F50799F76A0F7B1F4B
:107CF00070930701609306018091C00085FFFCCF5F
:107D0000F092C6008091C00085FFFCCFB092C60003
:107D1000E1CE83E00E94C73CDDCE82E00E94C73CFA
:107D2000D9CE0E94763C809309020E94763C8093D3
:107D300008028091060190910701880F991F909386
:107D40000701809306010E94763C853409F4A6C0A1
:107D500080910C028E7F80930C020E94763C8032D0
:107D600009F0B8CE8091C00085FFFCCFF092C6002C
:107D7000609108027091090261157105B9F140E046
:107D800050E080910C02A82FA170B82FB27011C0E2
:107D9000BB2309F45CC0E0910601F0910701319624
:107DA000F0930701E09306014F5F5F4F46175707B7
:107DB000E8F4AA2369F3F999FECF209106013091E6
:107DC000070132BD21BDF89A90B58091C00085FFB2
:107DD000FCCF9093C6002F5F3F4F30930701209355
:107DE00006014F5F5F4F4617570718F38091C00099
:107DF00085FDE5CE8091C00085FFF8CFE0CE81E023
:107E00000E94C73C67CE0E94763C803209F08CCE3F
:107E10008091C00085FFFCCFF092C6008091C00029
:107E200085FFFCCFE092C6008091C00085FFFCCFAB
:107E3000D092C6008091C00085FFFCCFC092C600E2
:107E40008091C00085FFFCCFB092C60043CEE09188
:107E50000601F091070194918091C00085FFFCCF4D
:107E60009093C6009CCF80E10E94C73C33CE0E9415
:107E7000763C0E94763C182F0E94763C112309F430
:107E800083C0113009F484C08FE00E94C73C22CE29
:107E900080910C02816080930C02E5CE80910C02EF
:107EA000816080930C0259CF809107018823880F4D
:107EB000880B8A2180930B02809106019091070123
:107EC000880F991F90930701809306018091080203
:107ED00080FF09C080910802909109020196909359
:107EE000090280930802F894F999FECF1127E091D6
:107EF0000601F0910701C8E0D1E08091080290915D
:107F00000902103091F40091570001700130D9F34B
:107F100003E000935700E89500915700017001308D
:107F2000D9F301E100935700E89509901990009169
:107F3000570001700130D9F301E000935700E89534
:107F40001395103498F011270091570001700130FB
:107F5000D9F305E000935700E895009157000170B0
:107F60000130D9F301E100935700E895329602976A
:107F700009F0C7CF103011F00296E5CF112480919F
:107F8000C00085FFB9CEBCCE8EE10E94C73CA2CD19
:0E7F900085E90E94C73C9ECDF894FFCF80008B
:00000001FF
