:100000000C9462000C948A000C948A000C948A0070
:100010000C948A000C948A000C948A000C948A0038
:100020000C948A000C948A000C948A000C948A0028
:100030000C948A000C948A000C948A000C948A0018
:100040000C9425070C948A000C9495070C946F0768
:100050000C948A000C948A000C948A000C948A00F8
:100060000C948A000C948A000000000024002700F1
:100070002A0000000000250028002B0000000000DE
:1000800023002600290004040404040404040202DA
:100090000202020203030303030301020408102007
:1000A0004080010204081020010204081020000012
:1000B0000008000201000003040700000000000027
:1000C0000000C70711241FBECFEFD8E0DEBFCDBFB1
:1000D00011E0A0E0B1E0E6EFF8E102C005900D927A
:1000E000A234B107D9F722E0A2E4B1E001C01D9229
:1000F000A537B207E1F710E0C2E6D0E004C02197CF
:10010000FE010E94730CC136D107C9F70E9438085E
:100110000C94790C0C940000833081F028F4813029
:1001200099F08230A9F008958730A9F08830C9F09D
:100130008430B1F4809180008F7D03C08091800075
:100140008F7780938000089584B58F7784BD08955C
:1001500084B58F7DFBCF8091B0008F778093B00006
:1001600008958091B0008F7DF9CFCF93DF93E4EBBA
:10017000F0E08491E0EAF0E0D491ECE8F0E0C491A2
:10018000CC23A1F081110E948C00EC2FF0E0EE0F47
:10019000FF1FE458FF4FA591B491EC91ED2381E04E
:1001A00090E009F480E0DF91CF91089580E090E045
:1001B000FACF1F93CF93DF93282F30E0F901E25558
:1001C000FF4F8491F901E656FF4FD491F901EA57A8
:1001D000FF4FC491CC23A9F0162F81110E948C00EF
:1001E000EC2FF0E0EE0FFF1FEE58FF4FA591B491FA
:1001F0008FB7F894EC91111108C0D095DE23DC93F1
:100200008FBFDF91CF911F910895DE2BF8CFCF9351
:10021000DF9390E0FC01E656FF4F24918A579F4FF1
:10022000FC0184918823D1F090E0880F991FFC0194
:10023000E859FF4FA591B491FC01EE58FF4FC591CD
:10024000D49161110EC09FB7F8948C91E22FE09584
:100250008E238C932881E223E8839FBFDF91CF9187
:1002600008958FB7F894EC91E22BEC938FBFF6CF03
:100270003FB7F8948091610190916201A091630170
:10028000B091640126B5A89B05C02F3F19F00196D7
:10029000A11DB11D3FBFBA2FA92F982F8827BC01E0
:1002A000CD01620F711D811D911D42E0660F771F08
:1002B000881F991F4A95D1F70895AF92BF92CF92A8
:1002C000DF92EF92FF920F931F93CF93DF936C0116
:1002D0007B018B01040F151FEB015E01AE18BF08F7
:1002E000C017D10759F06991D601ED91FC910190A9
:1002F000F081E02DC6010995892B79F7C501DF91C1
:10030000CF911F910F91FF90EF90DF90CF90BF9012
:10031000AF900895FC01538D448D252F30E0842F3C
:1003200090E0821B930B541710F0CF96089501971D
:100330000895FC01918D828D981761F0A28DAE0F0A
:10034000BF2FB11D5D968C91928D9F5F9F73928F91
:1003500090E008958FEF9FEF0895FC01918D828DBD
:10036000981731F0828DE80FF11D858D90E008958A
:100370008FEF9FEF0895FC01918D228D892F90E0E2
:10038000805C9F4F821B91098F739927089585E6A2
:1003900091E00E94BB0121E0892B09F420E0822F2B
:1003A000089580E090E0892B29F00E94C701811117
:1003B0000C9400000895FC01A48DA80FB92FB11D65
:1003C000A35ABF4F2C91848D90E001968F7399278B
:1003D000848FA689B7892C93A089B1898C91837069
:1003E00080648C93938D848D981306C00288F38962
:1003F000E02D80818F7D80830895EF92FF920F938F
:100400001F93CF93DF93EC0181E0888F9B8D8C8DC0
:1004100098131AC0E889F989808185FF15C09FB7B4
:10042000F894EE89FF896083E889F9898081837077
:10043000806480839FBF81E090E0DF91CF911F9126
:100440000F91FF90EF900895F62E0B8D10E00F5F47
:100450001F4F0F731127E02E8C8D8E110CC00FB61D
:1004600007FCFACFE889F989808185FFF5CFCE01B5
:100470000E94DB01F1CFEB8DEC0FFD2FF11DE35A54
:10048000FF4FF0829FB7F8940B8FEA89FB89808138
:100490008062CFCFCF93DF93EC01888D8823B9F0B2
:1004A000AA89BB89E889F9898C9185FD03C080817F
:1004B00086FD0DC00FB607FCF7CF8C9185FFF2CFFC
:1004C000808185FFEDCFCE010E94DB01E9CFDF9176
:1004D000CF910895CF93DF93EC012881222349F037
:1004E0000E9438016D837E838F839887DF91CF913F
:1004F00008952FB7F89440915D0150915E0160918D
:100500005F01709160012FBF4D835E836F83788799
:10051000EDCF2F923F924F925F926F927F928F9288
:100520009F92AF92BF92CF92DF92EF92FF920F9382
:100530001F93CF93DF93CDB7DEB763970FB6F894D1
:10054000DEBF0FBECDBF1C019C012A593F4F3A832D
:100550002983D9018C91882309F462C20E94380151
:10056000AB01BC01E981FA8185819681A781B085C3
:10057000481759076A077B0708F05EC28C019D0186
:100580000095109520953095400F511F621F731FE5
:100590004183528363837483E981FA81418152816B
:1005A0006381748101851285238534854017510745
:1005B0006207730708F41BC2800F911FA21FB31FAD
:1005C00085839683A783B087F101EE59FF4F808121
:1005D0009181019709F00BC2D101DC968D909D901D
:1005E000AD90BC90DF977A97FA8BE98B80829182ED
:1005F000A282B382CB01BA010E944F0B20E030E00F
:100600004AE754E40E94A70A2B013C01F101E05C97
:10061000FF4F20813181428153810E94060C6B0182
:100620007C01F101E45BFF4FFC83EB83C082D1824C
:10063000E282F382A3019201389760817181828105
:1006400093810E94A70A8101005B1F4FF80160831C
:1006500071838283938374962081318121303105A7
:10066000F1F4B7FAB094B7F8B094A989BA898D9229
:100670009D92AD92BC921397F7FAF094F7F8F0942C
:10068000EB81FC81C082D182E282F382AB01BC01AA
:100690007058D8014D935D936D937C931397F1013E
:1006A00044A455A466A477A440AE51AE62AE73AE26
:1006B00080A591A5A2A5B3A584AB95ABA6ABB7AB1E
:1006C00084A095A0A6A0B7A0D10180AA91AAA2AAB1
:1006D000B3AA0280F381E02DFA83E983208131817E
:1006E000428153819C962D933D934D935C939F97AC
:1006F0001696ED91FC916081718182819381F10167
:1007000060A771A782A793A70E94350A6B017C019D
:10071000D1019496CD92DD92ED92FC929797A30130
:100720009201E981FA8160817181828193810E94C5
:10073000350A2B013C01F101E05AFF4F8081918184
:1007400091012C5A3F4F3A832983009709F07BC1CE
:10075000A7019601A989BA896D917D918D919C918E
:100760000E94060CE981FA816083718382839383FE
:10077000D8016D917D918D919C919058A30192012A
:100780000E94060C2B013C01F101E45AFF4F40820C
:10079000518262827382A7019601C501B4010E9451
:1007A000360A20E030E040E05FE30E94060CEB8177
:1007B000FC8120813181428153810E94060CF1012C
:1007C000E85AFF4F20813181428153810E94360ACD
:1007D0008B0188879F83D1015896BC91BB83F1011F
:1007E000F18DF983D1015A96BC91BD83F101F38D4E
:1007F000FE832B8139814B2F5F2F0E94A20A87FD38
:100800001FC0D1015496BC91BB83F101F589F983D6
:10081000D1015696BC91BD83F101F789FE832B81EE
:1008200039814B2F5F2FB80188859F810E94010C71
:10083000181634F00B83198328852D833F813E835E
:10084000F101EC5AFF4F2081318142815381D10166
:1008500018966D917D918D919C911B970E94360AFF
:100860006B017C01AC019B01C301B2010E94360AFD
:100870004B015C01F101F485FD87D1011D96BC910E
:10088000BE87F101F685FF87D1011F96BC91B88B19
:10089000AC019B016D857E858F2F9B2F0E94350AB1
:1008A00069877A878B879C8720E030E0A9010E94C6
:1008B000A20A87FDD5C029853A854B855C856D8563
:1008C0007E858F8598890E94A20A87FF08C0ED85E2
:1008D000E987FE85FA872F852B8738893C87D101E8
:1008E00050960C91509751961C9151975296BC91ED
:1008F000BF83F101F389F88798014B2F5F2FC50162
:10090000B4010E94350A5B018B8B998B9B01AC0172
:10091000B8018F8198850E94010C18160CF4A5C0AF
:1009200020E030E0A901B5018B8999890E94010C72
:10093000181624F4A12CB12C1B8A198A95014B8915
:1009400059896B8179818D819E810E94A20A87FDE0
:1009500013C029853A854B855C856B8179818D81B2
:100960009E810E94010C18160CF085C0A984BA84DF
:100970008B858B8B9C85998BC501AB89B989F101DE
:10098000E85AFF4F80839183A283B3839501AD0121
:10099000C701B6010E94360AA30192010E94360ADD
:1009A0007B018B8399839B01AC01B8018F81988572
:1009B0000E94010C181684F097014B8159816D85B6
:1009C0007E858F8598890E94A20A87FD5BC087017A
:1009D000EB81EF83F981F887D1011496ED91FC91B9
:1009E000C801AF81B88580839183A283B383639666
:1009F0000FB6F894DEBF0FBECDBFDF91CF911F9130
:100A00000F91FF90EF90DF90CF90BF90AF909F90AD
:100A10008F907F906F905F904F903F902F900895B0
:100A20008FB7F89440915D0150915E0160915F0134
:100A3000709160018FBF96CD481B590B6A0B7B0BE1
:100A4000E981FA81A5CD019709F092CEA989BA89E9
:100A50006D917D918D919C919058A301920180CED2
:100A600019861A861B861C863ACF58012F812B8B3C
:100A70003885398B63CFAB80B980AD81AB8BBE81BC
:100A8000B98B7ACF0D851E852F852F8338893887BE
:100A9000A3CFFC0114A215A216A217A210A611A69C
:100AA00012A613A614A615A616A617A610AA11AA72
:100AB00012AA13AA14AA15AA16AA17AA10AE11AE42
:100AC00012AE13AEDC01AC5ABF4F1D921D921D92A7
:100AD0001C92139714961D921D921D921C921397AF
:100AE00014961D921D921D921C9213978A599F4F26
:100AF0000C946A022F923F924F925F926F927F9274
:100B00008F929F92AF92BF92CF92DF92EF92FF921D
:100B10000F931F93CF93DF9300D0CDB7DEB73C0187
:100B2000F8018F89988D9A838983098D1A8DD30155
:100B300013967C936E93129715965C934E9314972D
:100B400017963C932E9316972080318042805380D5
:100B500020E030E0A901C201B1010E94010C87FD33
:100B600035C020E030E0A901F70160817181828108
:100B700093810E94010C87FD29C020E030E0A9018B
:100B8000D6016D917D918D919C910E94010C87FD04
:100B90001DC0F30124AE35AE46AE57AEF7018081DD
:100BA0009181A281B381F301E05CFF4F8083918347
:100BB000A283B383F60180819181A281B381F30185
:100BC000EC5BFF4F80839183A283B383D5018D912A
:100BD0009C91F301E05AFF4F91838083F80180815B
:100BE0009181A281B381F30180879187A287B38726
:100BF000D4018D919C91EC59FF4F918380838301A7
:100C00000E591F4FF80180819181019719F4C3019A
:100C10000E944905A981BA814D915C9170E060E024
:100C2000C3018A599F4FFC01108241875287638715
:100C300074870E946A02C3010E944905F8018081FD
:100C400091810197D9F081E090E091838083C30185
:100C50000F900F90DF91CF911F910F91FF90EF9028
:100C6000DF90CF90BF90AF909F908F907F906F90CC
:100C70005F904F903F902F900C9449050F900F90EC
:100C8000DF91CF911F910F91FF90EF90DF90CF9068
:100C9000BF90AF909F908F907F906F905F904F909C
:100CA0003F902F900895CF93DF93D0E0C0E000975E
:100CB00071F0FC0101900020E9F73197AF01481B6A
:100CC000590BBC0185E691E00E945D01EC0142E018
:100CD00050E06AE171E085E691E00E945D018C0FD1
:100CE0009D1FDF91CF910895CF93C82F8DE191E0A3
:100CF0000E9453068C2F90E0845D9E4F0E94530605
:100D000080914201909143018A5C9E4F0E9453065C
:100D1000C111FECFCF910895CF92DF92EF92FF9253
:100D2000CF93DF93F89460E085E00E94D90085E0DE
:100D30008A95F1F7000061E085E00E94D90085E026
:100D40008A95F1F700000E94B500C7E1D0E0C12C00
:100D5000D12C7601892B99F482E090E090934301A5
:100D60008093420180E00E94740660E070E0CB0155
:100D7000DF91CF91FF90EF90DF90CF900895CC0C52
:100D8000DD1CEE1CFF1C60E085E00E94D90085E0C0
:100D90008A95F1F7000061E085E00E94D90085E0C6
:100DA0008A95F1F700000E94B500092E000CAA0BED
:100DB000BB0BC82AD92AEA2AFB2A219701F7C0FCD3
:100DC00009C083E090E0909343018093420181E069
:100DD0000E9474068AE68A95F1F700C07894C701EC
:100DE000B60127E096958795779567952A95D1F76F
:100DF000BFCFCF92DF92EF92FF920E948C066B01E1
:100E00007C010E948C06C616D706E806F90679F022
:100E100081E090E0909343018093420180E00E9442
:100E2000740681E0FF90EF90DF90CF900895C701A6
:100E3000B6010E944F0B609354017093550180934B
:100E400056019093570180E0EDCF1F920F920FB69D
:100E50000F9211242F933F938F939F93AF93BF9340
:100E600080915D0190915E01A0915F01B091600160
:100E700030915C0123E0230F2D3758F50196A11D19
:100E8000B11D20935C0180935D0190935E01A0935E
:100E90005F01B09360018091610190916201A09126
:100EA0006301B09164010196A11DB11D80936101A0
:100EB00090936201A0936301B0936401BF91AF91DD
:100EC0009F918F913F912F910F900FBE0F901F9088
:100ED000189526E8230F0296A11DB11DD2CF1F92AF
:100EE0000F920FB60F9211242F933F934F935F935E
:100EF0006F937F938F939F93AF93BF93EF93FF93E2
:100F000085E691E00E94DB01FF91EF91BF91AF91E7
:100F10009F918F917F916F915F914F913F912F9111
:100F20000F900FBE0F901F9018951F920F920FB643
:100F30000F9211242F938F939F93EF93FF93E09140
:100F40007501F09176018081E0917B01F0917C0147
:100F500082FD1BC0908180917E018F5F8F732091F5
:100F60007F01821741F0E0917E01F0E0EB59FE4FE6
:100F7000958F80937E01FF91EF919F918F912F919B
:100F80000F900FBE0F901F9018958081F4CFE5E66B
:100F9000F1E01382128288EE93E0A0E0B0E0848357
:100FA0009583A683B78384E091E09183808385EC69
:100FB00090E09587848784EC90E09787868780EC23
:100FC00090E0918B808B81EC90E0938B828B82EC14
:100FD00090E0958B848B86EC90E0978B868B118EBE
:100FE000128E138E148EE2E0F2E086E191E091839E
:100FF000808380E090E0AFE7B3E484879587A6879D
:10100000B787108A118A128A138A80E090E0AAE7D3
:10101000B4E4848B958BA68BB78B80E090E0AAE735
:10102000B4EC808F918FA28FB38F148E158E168E95
:10103000178E10A211A212A213A21092680210928F
:10104000690210926A0210926B0210926C02109266
:101050006D0210926E0210926F0210927002109246
:10106000710210927202109273021092740208952B
:10107000CF93DF93CDB7DEB72A970FB6F894DEBFD4
:101080000FBECDBF789484B5826084BD84B5816085
:1010900084BD85B5826085BD85B5816085BD809143
:1010A0006E00816080936E001092810080918100BB
:1010B00082608093810080918100816080938100B3
:1010C000809180008160809380008091B100846075
:1010D0008093B1008091B00081608093B0008091D6
:1010E0007A00846080937A0080917A008260809395
:1010F0007A0080917A00816080937A0080917A00F2
:10110000806880937A001092C100E0917501F0919F
:10111000760182E08083E0917501F0917601108282
:10112000E0917101F09172011082E0917301F091F0
:10113000740180E1808310927D01E0917901F0914A
:101140007A0186E08083E0917701F09178018081D7
:1011500080618083E0917701F091780180818860DF
:101160008083E0917701F0917801808180688083AD
:10117000E0917701F091780180818F7D808361E03B
:1011800083E00E94070161E085E00E94070161E0C1
:1011900085E00E94070160E086E00E94070161E0AF
:1011A00083E00E94070160E083E00E94D90061E0D3
:1011B00085E00E94D9000E94F90619821A821B82DA
:1011C0001C821E821D8218861F821A861986CE01F5
:1011D00001969F938F9304969F938F9302964C0151
:1011E000FE0139965F015CE4C52E51E0D52E68E41E
:1011F000E62E61E0F62E04E411E020E531E048E55A
:1012000051E064E571E082E092E00E947A0580E0BE
:1012100090E0AFE7B3E480930E0290930F02A093A7
:101220001002B093110280E090E0AFE7B3EC80933E
:10123000120290931302A0931402B093150200912E
:101240006402109165020F900F900F900F90013083
:10125000110509F5A0900602B0900702F501C080C3
:10126000D180E280F3809C01AD01C701B6010E94EC
:10127000A20A87FD95C020E030E04FE753E4C701A4
:10128000B6010E94010C18160CF491C0F501C08241
:10129000D182E282F38280E090E0A0E2B1E4809328
:1012A000160290931702A0931802B093190280E0DF
:1012B00090E0A0E2B1EC80931A0290931B02A093FD
:1012C0001C02B0931D020130110551F081E090E045
:1012D000909365028093640282E092E00E94490547
:1012E00081EBC82E80E0D82E90E0E92E90E0F92E18
:1012F000AA24A394B12C0E94F90620916402309193
:101300006502882309F45AC0232B21F0109265024C
:101310001092640282E092E00E94890211E020E0D3
:1013200030E0A901609158017091590180915A01F2
:1013300090915B010E94010C18160CF010E0612FD7
:1013400085E00E94D900409058015090590160906A
:101350005A0170905B0120E030E0A901C301B201A5
:101360000E94010C1816BCF5C301B2010E94190BB2
:101370008B0161E083E00E9407010115110579F5F9
:1013800060E083E00E94D900E114F10409F4B3CFD6
:101390000E94C701882309F4AECF0E940000ABCFA2
:1013A000C12CD12C4FE7E42E43ECF42E6FCFC12C8F
:1013B000D12C3FE7E32E33E4F32E68CF2130310503
:1013C00009F4A8CFB0926502A092640282E092E094
:1013D0000E9449059FCFC301B2019058C7CF0F3F6C
:1013E000110511F461E0CDCFF6018491833019F13C
:1013F00040F48130B1F08230C9F00038110594F723
:10140000BFCF873011F1883041F18430B1F780913E
:10141000800080628093800010938B0000938A008C
:10142000B3CF84B5806884BD07BDAECF84B580627C
:1014300084BD08BDA9CF8091800080688093800022
:1014400010938900009388009FCF8091B00080683E
:101450008093B0000093B30097CF8091B00080627A
:101460008093B0000093B4008FCF5058BB27AA27B9
:101470000E944D0A0C94C70B0E94B90B38F00E94D1
:10148000C00B20F039F49F3F19F426F40C94B60BEE
:101490000EF4E095E7FB0C94B00BE92F0E94D80BFB
:1014A00058F3BA17620773078407950720F079F499
:1014B000A6F50C94FA0B0EF4E0950B2EBA2FA02D86
:1014C0000B01B90190010C01CA01A0011124FF27F1
:1014D000591B99F0593F50F4503E68F11A16F040EC
:1014E000A22F232F342F4427585FF3CF46953795EB
:1014F0002795A795F0405395C9F77EF41F16BA0BB0
:10150000620B730B840BBAF09150A1F0FF0FBB1F5D
:10151000661F771F881FC2F70EC0BA0F621F731FA6
:10152000841F48F4879577956795B795F7959E3F03
:1015300008F0B0CF9395880F08F09927EE0F979594
:10154000879508950E948C0B08F481E008950E940D
:10155000BB0A0C94C70B0E94C00B58F00E94B90B39
:1015600040F029F45F3F29F00C94B00B51110C941A
:10157000FB0B0C94B60B0E94D80B68F39923B1F3C4
:10158000552391F3951B550BBB27AA2762177307A9
:10159000840738F09F5F5F4F220F331F441FAA1F3D
:1015A000A9F335D00E2E3AF0E0E832D091505040F9
:1015B000E695001CCAF72BD0FE2F29D0660F771FA7
:1015C000881FBB1F261737074807AB07B0E809F08D
:1015D000BB0B802DBF01FF2793585F4F3AF09E3F12
:1015E000510578F00C94B00B0C94FB0B5F3FE4F3C7
:1015F000983ED4F3869577956795B795F7959F5F55
:10160000C9F7880F911D9695879597F90895E1E0A0
:10161000660F771F881FBB1F621773078407BA07FF
:1016200020F0621B730B840BBA0BEE1F88F7E0955A
:1016300008950E94200B6894B1110C94FB0B08953F
:101640000E94E00B88F09F5798F0B92F9927B75167
:10165000B0F0E1F0660F771F881F991F1AF0BA9556
:10166000C9F714C0B13091F00E94FA0BB1E00895AF
:101670000C94FA0B672F782F8827B85F39F0B93FA1
:10168000CCF3869577956795B395D9F73EF4909509
:101690008095709561957F4F8F4F9F4F0895E89487
:1016A00009C097FB3EF490958095709561957F4FAA
:1016B0008F4F9F4F9923A9F0F92F96E9BB27939558
:1016C000F695879577956795B795F111F8CFFAF468
:1016D000BB0F11F460FF1BC06F5F7F4F8F4F9F4F99
:1016E00016C0882311F096E911C0772321F09EE8F7
:1016F000872F762F05C0662371F096E8862F70E05D
:1017000060E02AF09A95660F771F881FDAF7880F36
:101710009695879597F90895990F0008550FAA0B8C
:10172000E0E8FEEF16161706E807F907C0F01216F4
:101730001306E407F50798F0621B730B840B950BF7
:1017400039F40A2661F0232B242B252B21F408954C
:101750000A2609F4A140A6958FEF811D811D0895E9
:1017600097F99F6780E870E060E008959FEF80EC54
:10177000089500240A9416161706180609060895F7
:1017800000240A9412161306140605060895092E5D
:101790000394000C11F4882352F0BB0F40F4BF2BCC
:1017A00011F460FF04C06F5F7F4F8F4F9F4F08950C
:1017B00057FD9058440F551F59F05F3F71F0479502
:1017C000880F97FB991F61F09F3F79F087950895E7
:1017D000121613061406551FF2CF4695F1DF08C006
:1017E000161617061806991FF1CF86957105610523
:1017F00008940895E894BB2766277727CB0197F9CB
:1018000008950E948C0B08F48FEF08950E94190C24
:101810000C94C70B0E94B90B38F00E94C00B20F04B
:10182000952311F00C94B00B0C94B60B11240C946E
:10183000FB0B0E94D80B70F3959FC1F3950F50E0FE
:10184000551F629FF001729FBB27F00DB11D639F72
:10185000AA27F00DB11DAA1F649F6627B00DA11D18
:10186000661F829F2227B00DA11D621F739FB00DBE
:10187000A11D621F839FA00D611D221F749F33272E
:10188000A00D611D231F849F600D211D822F762FC7
:101890006A2F11249F5750409AF0F1F088234AF0A4
:1018A000EE0FFF1FBB1F661F771F881F9150504010
:1018B000A9F79E3F510580F00C94B00B0C94FB0BE4
:1018C0005F3FE4F3983ED4F3869577956795B79597
:1018D000F795E7959F5FC1F7FE2B880F911D9695B1
:1018E000879597F90895EE0FFF1F0590F491E02D6D
:0618F0000994F894FFCFFB
:1018F60000000000FD015D018A014A02BB01990159
:10190600AD01000000007A0589020D0A00457272D9
:101916006F72206F63637572656421006973466137
:1019260074616C3A20006572726F72436F64653A37
:0219360020008F
:00000001FF
