:020000040000FA
:10000000FC7F002001060000F1050000F50500005E
:1000100000000000000000000000000000000000E0
:10002000000000000000000000000000F9050000D2
:100030000000000000000000FD0500004107000076
:1000400010B5064C2378002B07D1054B002B02D0AE
:10005000044800E000BF0123237010BD5C000020B5
:1000600000000000A018000008B5084B002B03D0CA
:100070000748084900E000BF07480368002B03D089
:10008000064B002B00D0984708BDC046000000007A
:10009000A0180000600000205800002000000000B0
:1000A000154A164B1178002909D115491878097895
:1000B0004118C9B21970802012498002C8611178B4
:1000C0000131C9B211701978F02902D819780929BB
:1000D00009D80B4908784042C0B2087018780978EE
:1000E0004118C9B2197012781B789A4203D1802244
:1000F000044B9202DA617047780000200100002072
:10010000000000200044004110B5C3699C07FCD4E6
:1001100003680224A3430360C46901231C42FBD18A
:100120000468234303600368DC07FCD4C46901232B
:100130001C42FBD1C469DC401C42F7D1084B1A4376
:100140000260C3695A07FCD4C0239B0243608181CB
:10015000C3699C07FCD4036802221343036010BDEB
:1001600004000040037EDA07FCD5018570470000DB
:10017000027E01235107FBD5428B1A4207D1428BE5
:10018000DA401A4203D1428B92081A4202D0034B42
:1001900001221A70008DC0B27047C046790000205D
:1001A00070B50368041C988B1A1C0821FF320842A2
:1001B00026D0802099839872112353704021144BCC
:1001C000917150715E68134DC0202E40800506432A
:1001D0005E605E693540284358610F4818600F48DB
:1001E00018615D680E4828408025AD02284358609C
:1001F0005868800B8003586000235171237105E01B
:10020000137ADA0602D5201C00F0D4FA207970BDEA
:1002100098010020FFFFFF8F9800002018010020A8
:10022000FF3F00F0002303714371044B01608360C2
:100230000B78022213430B707047C046A1010000E7
:1002400038B5364B2021DA6901200A43DA61344B94
:1002500006241A7802431A70324B0F221978914300
:1002600019701978214319702F490C7820430870B0
:1002700019780A401A701A7860210A431A702B4BB9
:100280002B4A5A805A7852B2002AFBDB294B0121B3
:100290001A780A431A709A78D107FCD42648026863
:1002A000510B1F221140914200D1052111408C01B8
:1002B0001D8D22492940214319850468A10C0A405B
:1002C0001F2A00D11D221C8D1F210A408C4322436E
:1002D0001A8502680721D20D0A408A4200D1032202
:1002E0000A40188D1103164A02400A431A851978EC
:1002F0007F220A401A701A78042112480A431A70A1
:1003000058621A890C218A431A811A8901218A4369
:100310001A810021802201F040F938BD000400401C
:10032000584400413C44004159440041000C004005
:100330000640000000500041246080003FF8FFFFAD
:10034000FF8FFFFF98010020F7B5141C1F4A5F01C3
:1003500001971D1CD319061C5869271C4000400F2B
:1003600003301033C74006D00F1C80225968120694
:100370000A435A6009E02F1C7B1E9F41144BBF01AA
:10038000FF18381C221C01F0FFF801990F480835AE
:1003900042181761131C5269A104920B890C920335
:1003A0000A435A6159690B4A0A405A616B01F318B2
:1003B0000222DA715979802252420A435A716B0142
:1003C000F318DB799A07FAD5201CFEBD98010020AE
:1003D00018010020FF3F00F0F8B51A4E051C3378D5
:1003E000141C002B12D1184B184A1A645A6C920B29
:1003F00092035A64586C164A02405A64A2235B0066
:10040000EA5C40200243EA54012333704827FF3757
:10041000EA5D0123134012D00B4B5A6C9204920CEC
:10042000A24202D25C6CA404A40C081C221C074942
:1004300001F0AAF80123EB550023337000E01C1CE7
:10044000201CF8BD7A00002098010020D800002070
:10045000FF3F00F0FF3083792022002900D11022D5
:100460001343837170470000084BFF305A69920BA9
:1004700092035A6102230372827980235B42134301
:100480008371037A9A07FCD57047C0469801002013
:1004900080235B421943C9B28172704770B5A023B3
:1004A00003225B00C254134B134A5C6CC0211440FE
:1004B00089050C4346255C64FF35402444550F4DA7
:1004C00030261D6490256D0046555D6B154029430F
:1004D000922559636D0080214155094D1D63B0255A
:1004E0006D0044555C6F22405A67B2235B00C154D3
:1004F00070BDC04698010020FFFFFF8FD80000208C
:1005000058010020024B5B785BB2002BFADB70478E
:10051000000C0040024BDB68DA06FBD57047C04692
:1005200000080040F8B5264B1E215A6802268A436F
:10053000244C32435A60A660FFF7E4FF224B234D60
:100540006360FFF7DFFFAE84FFF7E4FF204B1B681B
:100550009B0E3F2B00D11F231E4A9B0213431E4AB2
:100560000026EA62AB62AE84FFF7D4FF1B4B022782
:10057000AB84FFF7CFFFAB8C3B43AB84FFF7CAFFE5
:1005800063883F2293431F43678062888023DB0197
:1005900013436380A660FFF7B5FF114B6360FFF75D
:1005A000B1FF104B104AC0215A60104A0906106A68
:1005B0000002000A0143116207229E601A60F8BD22
:1005C00000400041000C004006000100000800400F
:1005D00024608000FF01000080BB0A1C240500008D
:1005E0000007030010E000E0E703000000ED00E07A
:1005F0000EBEFEE70DBEFEE705BEFEE702BEFEE74D
:100600000E4A0F4838B5824204D10E4A0E4B93422F
:100610000ED10AE00D4C9442F7D00023D118884245
:10062000F3D9E55804330D60F8E700F011F804E061
:100630009342FAD2002102C3FAE7FEE7000000204D
:100640005C000020A80300205C000020A41800002B
:1006500038B5304B1A681C1C013221D02E4A191DA6
:100660001160D9B200291BD12C4A10780122104008
:100670002B4A0AD115682B498D4201D110600FE039
:100680001160294901390029FCD11160226882F3E7
:100690000888FF229343254A93601E4B5B681847E6
:1006A000FFF740FF62B600F09DFD00F04FF8204BD1
:1006B000802292029A601F4B1F4A041C5A601B4AF8
:1006C000C021106A09060002000A014311620022DB
:1006D0009A6007221A60A368201C9847174B0028CD
:1006E00001D001221A701A78002A05D0002000F0EB
:1006F0008BFA00F003FBFCE71B78002BEBD100F03A
:10070000E5FD0028E7D0012000F07EFA00F0F6FABF
:10071000FCE7C0460020000018020020380400401A
:10072000FC7F00203581730748E8010000ED00E000
:100730000044004110E000E0E70300007B000020DF
:1007400008B5FFF7ADFC00F0C3FA08BD10B5054BC6
:10075000054C2360FFF774FD201C2168FFF762FD44
:10076000201C10BD005000411C02002070B5051C6B
:10077000C0B0081C161C0C1C00F017FF40006A4695
:10078000032302305370107076080123E218013AF7
:1007900011785A00002906D1281C69460023FFF76A
:1007A000D3FD40B070BDB342F6DA684681520133E2
:1007B000ECE70000F7B5BA4A04681378B949271C7A
:1007C000FF37051C102038720B705378B648B74EAF
:1007D000037093783380D178338809020B433380D8
:1007E0001179B34B19805179188809020843188090
:1007F0009079B0490880D2790888120202430A80B1
:1008000040227A71A84F3A78A64F120238780F1C0E
:100810000243A9488446181C624500D1C2E020DC8E
:10082000802149008A4200D16EE109DC812A00D191
:1008300092E0822A00D195E0802A00D064E18BE02A
:1008400081235B009A4200D1CFE000DA58E1C02357
:100850009B009A4200D157E1984B9A4200D14FE158
:1008600052E190231B019A4269D015DCD023DB00B2
:100870009A4222D088231B019A4269D0A023DB0030
:100880009A4200D040E1201CFFF7EEFD3188286835
:1008900089B2FFF7FDFD3BE1894B9A4200D12FE180
:1008A00000DC31E1874B9A4200D11DE1864B9A4230
:1008B00000D029E133886B7122E133881B0A012BB8
:1008C00008D10B8812222868934201D80A8892B274
:1008D0007E4911E133881B0A022B08D10B88432281
:1008E0002868934201D80A8892B2794904E1338892
:1008F0001B0A032B00D007E13388DBB2012B17D092
:10090000002B07D0022B00D0FEE00A882868D2B264
:10091000704911E0042201A86F4900F035FE3B88C0
:1009200004222868934201D83A8892B201A9E3E0F0
:100930000A8828686949D2B2FFF718FFE8E03388CF
:10094000201C2B71FFF790FD201CFFF7A7FDDFE0B7
:10095000291C01C90122CFE0614900230B802868CE
:100960000222CAE05E4900220A8018885022104004
:100970005C4A10701E880F203040188018880328A9
:1009800000D9C1E012781B8808335B01E418A37911
:10099000002A01D09B0600E0DB06DB0F0B802868F5
:1009A0000222A9E019887F2291434E4AC9B21170F0
:1009B00018880F21014019803188002900D0A3E058
:1009C0001988002900D19FE01988032900D99BE0EC
:1009D00012781B8808335B01E318002A02D020221A
:1009E0005A718DE0102159718AE002887F239A4361
:1009F0003C4BD2B21A7001880F220A400280328822
:100A0000002A00D080E00288002A00D17CE0028821
:100A1000032A00D978E01B78002B1FD00388083305
:100A20005B01E3189B799A066AD503882022083374
:100A30005B01E3181A71038808335B01E318DB7963
:100A40005F065DD50388402208335B01E318DA7145
:100A50000388022208335B01E3181EE00388083391
:100A60005B01E3189B79D9064AD503881022083325
:100A70005B01E3181A71038808335B01E318DB7923
:100A80009A063DD50388202208335B01E318DA710A
:100A90000388012208335B01E3181A7130E0C04675
:100AA000980000207D0000208200002084000020AB
:100AB00086000020800000200203000001030000E7
:100AC00021200000A121000021220000F4150000D7
:100AD00004000020E0150000D0150000D41500002F
:100AE0007E0000207C0000200B88082228689342AA
:100AF00001D80A8892B207490023FFF725FC07E0D6
:100B0000201CFFF7B1FC03E0201C0121FFF7A2FC31
:100B1000F7BDC0464800002007B5054B01220190F3
:100B200001A91868131CFFF70FFC01200EBDC04679
:100B30001C02002013B5054B6C4607341868211CB5
:100B40000122FFF749FC207816BDC0461C02002098
:100B500010B5074C201CFFF723FB031C0020834229
:100B600005D022684823FF33D05C0123184010BD14
:100B70001C02002010B5054A0C1C031C191C10682F
:100B80000123221CFFF7E0FB201C10BD1C020020EB
:100B900070B5084C061C201C0D1CFFF701FB002340
:100BA000984205D02068311C2A1CFFF715FC031C55
:100BB000181C70BD1C020020F8B50C4C051C201C34
:100BC0000E1CFFF7EDFA0023271C341C98420AD0B4
:100BD000002C07D0291C221C3868FFF7FDFB241AC3
:100BE0002D18F5E7331C181CF8BDC0461C02002068
:100BF00008B5031C081C111C9847024B64221A807C
:100C000008BDC0468C000020012805D1054B064ACE
:100C10001A60064B187004E0002802D1044A014B08
:100C20001A6070478C0200202816000094000020F3
:100C30007416000030B50A1C1C4985B00978031CE5
:100C400000292AD0042A01D1006804E0022A01D137
:100C5000008800E00078520004A98B180B3B9C1A16
:100C6000A3420BD00F210140092902D83025294386
:100C700000E0373119700009013BF1E701A9302389
:100C80000B7078234B700A208B1898700D20D87049
:100C9000074B04321B68D86803E005490968C86837
:100CA000191CFFF7A5FF05B030BDC0468800002025
:100CB0008C02002072B6EFF30883044A13600368C5
:100CC00083F30888436818477047C04690020020A5
:100CD000084B1A88002A03D01A88013A92B21A8067
:100CE000054B1A88002A03D01A88013A92B21A805A
:100CF0007047C0468C0000208A000020F0B591B0FB
:100D000008A9CC4A0B1C31CA31C351CA51C360CAAD
:100D100060C3C94BC9489A687A255203520F9200A2
:100D20005258C74902609C68A4B262430C60C5492E
:100D300000240A60C44A1460C44C2570C44CC54DDC
:100D40002368281C1B6940219847002802D0C24B09
:100D500064221A80C14B00221860C14B1D60C14B38
:100D6000C04DBE4F1A602A683B689A42E6D2BC4B1F
:100D70001B681A78FF2A00D114E2232A00D0EBE185
:100D8000B94E3378002B06D0B14BB8491B6802220C
:100D9000D868FFF72DFFAD4B1B78532B3CD13B6838
:100DA0002A6893421ED9AE4801322A609A1AB04B83
:100DB00001681B6801310160AE4E9A4201D2326077
:100DC00000E03360A04832680068049000F0DCFB6B
:100DD000336829685A182A60A14A1668F118116008
:100DE000A54A13702B68013B2B609D4B1A68013A92
:100DF0001A60A14B9E4A1B7811688B420AD2226866
:100E00009148C91A006892699047002802D0924B15
:100E100064221A80C0468DE1522B0AD18A48944A36
:100E20002368006811685B69039098476422934BBC
:100E30000DE04F2B05D1844B8D4A1B6812681A7048
:100E400078E1482B05D1804B894A1B6812681A80CB
:100E500070E1572B05D17C4B854A1B6812681A60DC
:100E600068E16F2B03D1784B0121186807E0682BEC
:100E700008D1754B7E481B6802211B880360FFF771
:100E8000D9FE57E1772B06D16F4B79481B680421B7
:100E90001B680360F3E7472B13D1754B1868FFF706
:100EA00009FF774B1B6883F3088862B6754B1B7884
:100EB000002B00D13EE1664B06201B681B6898475B
:100EC00038E1542B04D101233370614B1B6864E07B
:100ED0004E2B0CD13378002B06D15D4B63491B6838
:100EE0000222D868FFF784FE0023337022E1562BDC
:100EF00057D123686449D8680122FFF779FE236837
:100F00006249D8680322FFF773FE614D2368291CEC
:100F1000D8680122FFF76CFE23685E49D8680D226D
:100F2000FFF766FE2368291CD8680122FFF760FEE0
:100F30004B4F4C4D5849002339602B603A1C281CFC
:100F400013685E1C16601B780593002B03D00368A2
:100F500001330360F4E73E4E2A683368D868FFF730
:100F600047FE33684A49D8680122FFF741FE0599D8
:100F700029604A4939603A4A1368581C10601B7846
:100F8000002B04D0374B1A6801321A60F3E733683C
:100F90002A68D868FFF72CFE3368D86833490222E4
:100FA000C6E0334A582B17D1244E264D36681368B5
:100FB0002A68B10093420AD21F4D5808E8613848A8
:100FC00028801D4D287DC607FBD55B18F2E7204B16
:100FD00034491B68D868AAE0592B79D112681A4B9A
:100FE0003149002A02D11B680B606CE0124D086881
:100FF00019686B68104E8025AB4392087360002A15
:1010000061D02A4B0C4D2B800B4E337DDD07FBD579
:1010100000230A4D2D680195AD08AB4203D3244D42
:10102000054E358046E09342F9D09D004659013384
:101030004E51EEE708160000004000414402002037
:101040003C020020380200208802002034020020E8
:101050008C020020480200208A0000202C02002080
:1010600030020020400200208800002068160000A6
:101070009402002098020020280200208C0000200A
:101080009002002094000020441600006D1600001D
:101090004616000090160000481600005416000086
:1010A00002A5FFFF5D1600009000002044A5FFFF91
:1010B00004A5FFFF3F4E357DEE07FBD59D00491986
:1010C0004019D21A9BE73C4B3C491B68D8682EE07C
:1010D0005A2B2FD13A4B17681D680026EF19BD42D5
:1010E00006D02878311C00F013F90135061CF6E70C
:1010F000314B34491B680122D868FFF779FD07237B
:101100000F223240111C36093031092A00DD073127
:101110001820C0186A468154013BF1D2236806A901
:10112000D8680822FFF764FD23682749D86803229E
:10113000FFF75EFD254B7A221A70254B00221A60BC
:10114000244B1B7893422DD01B4B23491B68012253
:10115000D868FFF74DFD25E0111C3039C8B21C4B93
:10116000092804D81D682A01114319601AE0111CCE
:101170004139052903D81E68373A310106E0111CB0
:101180006139052904D81868573A01010A4308E073
:101190002C2A03D10A4A1968116001E00B490A7030
:1011A00000221A600D4B1A6801321A600C4B1A6843
:1011B0000132D5E5004000418C020020611600009C
:1011C0008802002065160000671600003402002027
:1011D00094020020880000206B16000040020020CE
:1011E0003002002010B51C4B01201A780324024362
:1011F0001A701A4B0F2219789143197019782143EC
:10120000197017490C782043087019780A401A7031
:101210001A7830210A431A70124B80211A6A0A4345
:101220001A62114B114A5A805A7852B2002AFBDBDB
:10123000C4220F480F499203FEF766FF0E4A0023AF
:1012400013700E4A13700E4A13700E4A13700E4A32
:1012500013700E4A137010BDD6440041BB440041C8
:10126000D744004100040040000C00401940000039
:10127000001C00422AF600009C02002023030020EC
:101280009D020020A0020020240300202103002052
:1012900008B5C1B20248FEF765FF012008BDC0468F
:1012A000001C0042024B187E4007C00F7047C0462A
:1012B000001C004208B5FFF7F5FF0028FBD00248EC
:1012C000FEF756FF08BDC046001C004208B5FFF7F8
:1012D000E9FF0023984205D0FFF7ECFF031C233BF6
:1012E0005A425341181C08BD70B5041C0D1C461809
:1012F000B44204D02078FFF7CBFF0134F8E7281C74
:1013000070BD10B5041CFFF7D5FF2070012010BD83
:101310000B0A5840034B4000C05A0902484080B2B3
:101320007047C0469E160000F7B50024051C0F1C30
:10133000261CBC4220D0FFF7BDFF114BC0B21B786A
:101340000190002B1AD1311CFFF7E2FF0D4B061C58
:101350001A88002A04D10C4A11782A1C002907D0C7
:1013600001996A1C2970802F02D1198801391980CE
:101370000134A4B2151CDCE7301C00E00120FEBDE6
:10138000210300209E02002022030020F0B53E4EE3
:1013900085B0002203900C1C32703C4B914201D16D
:1013A000012201E03A490C801A707F231C4201D0CF
:1013B00080349C43FFF77EFF3378C0B2002B07D008
:1013C00000253570FFF776FF3378C0B2AB4236D1D7
:1013D000432803D0712853D01528EBD10123009363
:1013E0000120FFF755FF0098FFF752FF0099802575
:1013F000C843C0B2FFF74CFF039B00270293244A67
:101400001388002B1DD1214901930978002918D197
:101410000198FFF73DFF391C0198FFF779FF013D67
:10142000071C002DEBD1000AC0B2FFF731FFF8B264
:10143000FFF72EFFFFF73EFF3378002B0AD0357001
:101440001FE00299013B09781380029B019101334F
:101450000293DDE7C0B2062807D1009B0399013350
:10146000DBB280310093803C0391002CB8D1042082
:10147000FFF70EFFFFF71EFF044B01251C7000E075
:101480000025281C05B0F0BD210300202203002008
:101490009E020020F0B5384C87B0002301902370E5
:1014A000994201D1012301E0344A1180344A642673
:1014B00013704320FFF7ECFE324FFFF7F3FE0028D6
:1014C00003D1002F03D0013FF7E7002F03D1013EE6
:1014D000002EEED14DE00125FFF7ECFE2378002B26
:1014E00038D1C0B20290012805D004283DD1062091
:1014F000FFF7CEFE39E005AE0221301CFFF714FFE6
:1015000001988021FFF710FF23780390002B18D15A
:10151000FFF7D0FE0702FFF7CDFEBFB223783F18DA
:10152000BFB2012B0DD0039B9F4207D13378AB4252
:1015300004D1EB437278DBB29A4204D01820FFF753
:10154000A7FE002303E00620FFF7A2FE029B2278FD
:10155000002A02D0002626700BE0012B05D1019A4B
:101560006B1C8032DDB20192B6E7054A002313708E
:101570000126301C07B0F0BD210300209E02002090
:101580002203002000350C0010B50023934203D045
:10159000CC5CC4540133F9E710BD031C821893429C
:1015A00002D019700133FAE770470023C25C01339F
:1015B000002AFBD1581E7047F8B5C046F8BC08BCDD
:1015C0009E467047F8B5C046F8BC08BC9E467047BA
:1015D0000403090441726475696E6F204C4C43002A
:1015E00041726475696E6F204E4F4E4120574C41D9
:1015F0004E0000001201000202000040412357008B
:1016000000020102000100000800000010000000BC
:1016100020000000400000008000000000010000E9
:10162000000200000004000091120000B51200004A
:10163000A5120000E9120000031300008D13000042
:10164000951400007600200041707220313920325C
:101650003031390031343A33383A343800580A0DD1
:1016600000590A0D005A00230A0D003E00322E30A8
:1016700000000000190B0000350B0000510B0000AA
:10168000750B0000910B0000750B0000B90B0000FA
:101690005B41726475696E6F3A58595A5D0000007B
:1016A0002110422063308440A550C660E770088155
:1016B00029914AA16BB18CC1ADD1CEE1EFF13112CC
:1016C000100273325222B5529442F772D6623993A5
:1016D00018837BB35AA3BDD39CC3FFF3DEE362241C
:1016E000433420040114E664C774A44485546AA5F5
:1016F0004BB528850995EEE5CFF5ACC58DD55336AC
:10170000722611163006D776F6669556B4465BB744
:101710007AA719973887DFF7FEE79DD7BCC7C4487B
:10172000E5588668A7784008611802282338CCC994
:10173000EDD98EE9AFF9488969990AA92BB9F55A0B
:10174000D44AB77A966A711A500A333A122AFDDBE4
:10175000DCCBBFFB9EEB799B588B3BBB1AABA66CDB
:10176000877CE44CC55C222C033C600C411CAEED34
:101770008FFDECCDCDDD2AAD0BBD688D499D977EEB
:10178000B66ED55EF44E133E322E511E700E9FFF84
:10179000BEEFDDDFFCCF1BBF3AAF599F788F88913A
:1017A000A981CAB1EBA10CD12DC14EF16FE180101E
:1017B000A100C230E3200450254046706760B98321
:1017C0009893FBA3DAB33DC31CD37FE35EF3B1026E
:1017D0009012F322D2323542145277625672EAB531
:1017E000CBA5A89589856EF54FE52CD50DC5E234BE
:1017F000C324A01481046674476424540544DBA701
:10180000FAB79987B8975FE77EF71DC73CD7D3260D
:10181000F2369106B01657667676154634564CD990
:101820006DC90EF92FE9C899E9898AB9ABA944585D
:10183000654806782768C018E1088238A3287DCB60
:101840005CDB3FEB1EFBF98BD89BBBAB9ABB754AAD
:10185000545A376A167AF10AD01AB32A923A2EFDF0
:101860000FED6CDD4DCDAABD8BADE89DC98D267CFD
:10187000076C645C454CA23C832CE01CC10C1FEF40
:101880003EFF5DCF7CDF9BAFBABFD98FF89F176E4D
:10189000367E554E745E932EB23ED10EF01E000081
:1018A0000000000001140000090243000201008052
:1018B00032090400000102020000052400100104A6
:1018C0002402000524060001052401000107058308
:1018D000030800FF09040100020A00000007058157
:1018E00002400000070502024000000000C20100A3
:1018F0000000080069000000410000000000000036
:1020000000800020593F0000413F0000413F000098
:1020100000000000000000000000000000000000C0
:10202000000000000000000000000000413F000030
:102030000000000000000000413F0000AD3F000034
:10204000413F0000413F0000413F0000413F000090
:10205000413F0000413F0000413F0000453F00007C
:10206000413F0000413F0000413F000015320000A9
:1020700005320000413F0000F5310000413F000003
:10208000413F0000413F0000413F0000413F000050
:1020900000000000413F0000413F0000413F0000C0
:1020A000413F0000413F0000413F0000413F000030
:1020B0000000000010B5064C2378002B07D1054B1B
:1020C000002B02D0044800E000BF0123237010BDA4
:1020D000080200200000000044BE0000044B10B5C0
:1020E000002B03D00349044800E000BF10BDC046E8
:1020F000000000000C02002044BE00000E4B0A004D
:1021000003604B6830B543600B7A103203724B7A30
:1021100043728B7A8372CB7AC3720B7B0373030097
:10212000103330CA30C30B7E03764B7E43768B7EF2
:102130008376CB69C36130BD6CB50000F0B5012773
:1021400085B003AE308076780193B1403A400223E7
:10215000BA40041C0AA805780BA80078B540029084
:10216000E0B20F4CC00100190468214301608119DD
:1021700040310C789C4322430A70019B0A781F402F
:1021800004239A431300BF003B430B7003691D43B4
:102190000561029B426AB3401343436205B0F0BD40
:1021A00000440041144A154B116A0B431362144B4F
:1021B000144A5A605A78D209FCD1134A5A805A7884
:1021C000D209FCD1114A5A805A78D209FCD1104A5E
:1021D0005A605A78D209FCD10E4A5A800E4A5A8067
:1021E0000E4A5A805A78D209FCD10D4A5A805A7840
:1021F000D209FCD17047C04600040040FC31000009
:10220000000C0040040703001A44000005440000CD
:10221000050603001C4500001D4500001445000094
:1022200015450000F021134A4900515C124B19700A
:10223000F221490051585970FC214900515C9970B4
:10224000FE2149005158D9701100303109781971B7
:10225000516B5971117899715168D971117E197248
:10226000D2695A72054B064A1A6003221A71023A61
:102270005A717047FCB5000024020020C002002003
:1022800000127A0010B5054C0A000100200001F090
:10229000B4FC200001F0E1F910BDC046100300209D
:1022A00010B5054C0A000100200001F0B6FC20002A
:1022B00001F0D3F910BDC0461003002010B5054C45
:1022C0000A000100200001F09CFC200001F0C5F98B
:1022D00010BDC0461003002010B5044C01002000C2
:1022E00001F02DFC200001F0B8F910BD1003002012
:1022F00010B50248FFF7F0FF10BDC04670B30000F4
:1023000010B5FFF7BFFFFFF7F3FF10BD10B50A21AF
:10231000FFF7B8FFFFF7ECFF10BD10B5FFF7DCFFCC
:10232000FFF7E6FF10BD0000F7B50126744B7549B5
:102330001A78754BD2011B78744C9B185B181A786D
:10234000270032431A70812230373B78704853435C
:102350005B181A786F4D32431A70FFF7DEFF6E4834
:10236000FFF7DBFF3B78270031373A78D901654822
:10237000521812181178694F31431170812253435A
:102380001B181A78664832431A70FFF7C6FF654873
:10239000FFF7C3FF5A4B19785B4BC90118784310FC
:1023A0005A18D21912780427D2B2304200D03C37E2
:1023B0005A4E5B189B193A431A7023003033197830
:1023C000230031331878C90143105A189219127832
:1023D0000426D2B2C00700D53C365B184F493243C1
:1023E0005B181A705048FFF798FF02224F4BDA63D0
:1023F0009A685206FCD4F02252001A649A681206B7
:10240000FCD4022219680A431A609A689207FCD425
:102410004748FFF782FF9822464B52011A80DA7B29
:10242000D209FCD1444E45485E80FFF776FF9822E2
:10243000434B52011A803200DE7BF609FCD10127A2
:102440005A804048FFF769FF0A210720FFF758FF2D
:102450003D4B32001F7001960096688E33003900A4
:10246000FFF76CFE01960096330032003900686B6E
:10247000FFF764FE01960096330032003900E86BE6
:10248000FFF75CFE01960096330032003900608E43
:10249000FFF754FE01960096330032003900606B5E
:1024A000FFF74CFE01960096330032003900E06BD6
:1024B000FFF744FE254C01970097607823780002CF
:1024C0003A00310018433B00FFF738FE01970097B0
:1024D000E078A37800023A00310018433B00FFF790
:1024E0002DFE019700976079237900023A003100B0
:1024F00018433B00FFF722FE1548FFF70EFFF7BD1C
:10250000600200204044004161020020740200206B
:10251000E0B2000030020020E4B20000304400418C
:10252000E8B20000ECB20000F0B20000002000426F
:10253000F4B200000030004210C0FFFFF8B200000B
:1025400000340042FCB20000BC0200202402002043
:1025500000B30000F0B5070001243E0025008BB059
:10256000016C3D3602A8FFF7C9FD3178C0228D40CD
:10257000CB01D2059B182A005869204902435A61B1
:102580006846002344710371019A02A8009100F08B
:1025900051FDAA2102A800F05EFCAA21050002A8B4
:1025A00000F059FCAA2102A800F055FC2A042D02D3
:1025B0001543054302A800F0C5FCC02220003C37AB
:1025C0003B78D205DB019B18327899699040020074
:1025D0000A439A612C400DD10948FFF77DFE022184
:1025E0002800FFF75DFE0748FFF776FE0A2120006E
:1025F000FFF756FE28000BB0F0BDC04600350C00BA
:1026000004B300000BB30000F8B50600FFF770FE3E
:102610001D48FFF782FE1D48FFF75EFE3000FFF702
:1026200075FE1B48FFF758FE1A4D1B4F2B7D9B0074
:10263000D859FFF772FE1948FFF74EFE184C237D5C
:102640009B00D859FFF769FE1648FFF745FE6B7DE2
:10265000154F9B00D859FFF760FE1448FFF73CFE6A
:10266000637D9B00D859FFF758FE114A137EDB07A4
:10267000FCD52B7D217D1B010B439362002E02D0E4
:1026800007236B756375F8BD17B3000026B3000010
:1026900030B300003002002094B300003BB30000D0
:1026A0007402002044B3000074B3000052B3000071
:1026B00000080042F7B50500FFF74CFF06006C6804
:1026C0006A6A138A5B090193FBD12800FFF742FF76
:1026D00077427741874229D040236A6A214851795D
:1026E000B6090B43464053710A216E60351BB44254
:1026F00002D01D4B9D420AD80120FFF7C3FD2800E0
:10270000C417A4B22018001404F06AFAFEBD022017
:10271000FFF7B8FDB4429B418022B442A4415B4222
:1027200092029B186042C0184019E9E70F48FFF772
:10273000D3FD02213000FFF7B3FD0D48FFF7CCFDBC
:1027400038000221FFF7ACFD380002217040FFF78E
:10275000A7FD0848FFF7E1FD042301982B75FFF75B
:1027600053FFD3E7FFFF0100FFFF00005FB300004E
:102770005EB3000066B30000F7B5436A04001A8A2E
:1027800092B20192402259790A435A71C568FFF703
:1027900091FF011C281C03F09BFBE368051C011C36
:1027A000181C009303F094FB8021C90504F034F851
:1027B000A768061C0021381C03F0FCFE011C301C1D
:1027C00003F0F8FE216903F083FB391C061C20612D
:1027D000281C04F021F8A16903F0ECFEE169071C54
:1027E000301C03F0E7FE011C381C03F071FB00995C
:1027F000061C281C04F010F8071C019804F0F0F9DE
:10280000011C381C03F0FEFC216A03F0D3FE011CFE
:10281000301C03F05DFB0021061C03F00FFB2100C0
:10282000333100281DD02300C02232331B78D2055B
:10283000DB019B180122097898698A4002439A615A
:102840001449301C03F0FAFA00281ED0F020400092
:10285000230028331B78104A1C339B009850E560F6
:10286000F7BDC0230978DB05CA01D21801238B40CC
:1028700050690A4903435361301C03F0CBFA002826
:10288000E4D180231B06F01800E0301C03F0EAFAC4
:10289000DEE7C0460000F043002000420000F0C325
:1028A000F0B5974D85B02C68607D0138062800D9B9
:1028B000FFE003F0DFF83D000700A700000113016F
:1028C0001B011F01012427008E4B8F491A790E002E
:1028D000D2015218597910688F40074277D01A7880
:1028E0002700D20192191268597894462A688F40BD
:1028F00010006646283085493E4244D113003233E9
:102900001B78834EDB019B192600333212781F6837
:10291000964032003A431A60482203787D481C33BF
:102920009B00CA50FFF7F9FC642001F083FBCAE763
:102930007948FFF7D1FC2868FFF70CFE04000A2154
:10294000FFF7BCFC7548FFF7C7FC20000221FFF72A
:10295000A7FC734C200000F057FE002800D1A8E02F
:10296000210001A801F038FA6E4901A801F0D4FA5B
:10297000040001A801F044FA002C00D199E00222E1
:102980002B685A7595E09F785F4EFF01BF192600AE
:10299000DB783F689E40374212D133321778624B62
:1029A000FA01D21813689C4623006646BB403343A5
:1029B0001360482203785D481C339B00CA50B1E77E
:1029C000002203785A481C339B00CA50AAE71268B9
:1029D0003A426ED1C02026001A78C005D2011218E2
:1029E000116A5A789640314263D19A78DB78D201E5
:1029F0009C401218126A22425BD100222B689A6016
:102A00000322BEE70126C0274A48FFF765FC3200D3
:102A10003C4CFF052378DB01DB19186A63789A4088
:102A20001040431E9841C0B2FFF770FC4248FFF7C8
:102A300053FC3200A378DB01DB19186AE3789A4073
:102A40001040431E9841C0B2FFF760FC3B48FFF7BF
:102A500043FC2379DB01DB19186A63799E4030401F
:102A6000431E9841C0B2FFF751FC2D4C200000F0EE
:102A7000CBFD00280FD0210001A801F0ADF92949B4
:102A800001A801F049FA002802D002222B685A75E9
:102A900001A801F0B5F92A494B7D032B06D1294B3A
:102AA0005A7D032A02D101324A755A75C82001F0B5
:102AB000C1FA05B0F0BD244B1B78002BF9D1C02121
:102AC000104AC9059379D279DB015B18196A012391
:102AD00093401942EDD105236375EAE70223626A48
:102AE00011880B4313802B6806224AE72000FFF76A
:102AF00043FEDEE7206804F0BDF8A060D9E7C046D9
:102B0000B8020020240200202000006000200042C3
:102B100018000060D9B30000D0B30000D5B30000A6
:102B2000100300208BB4000014000060E2B300002A
:102B3000ECB30000F1B30000FEB300000BB40000E2
:102B40003002002074020020BC02002013B505F002
:102B50006FFE0B000221054C02000091200001F0E5
:102B60001FF9200000F079FD13BDC04610030020BE
:102B700010B5FFF7EBFFFFF7BBFB10BDE121F0B590
:102B8000984C8FB04902200000F036FD200000F084
:102B90003BFD0028FAD09448FFF7BFFB200000F06F
:102BA0008BFF924B002800D1914B924C92482360AE
:102BB000FFF792FB2368914828331B78002B00D144
:102BC0008F48FFF7AAFBFFF7EDFAFFF7ADFB884C44
:102BD00044220021200005F02AFF8A4B0122636273
:102BE000230028331A70884B884EE362C223227573
:102BF0005B00F158803205912100FF32B25C303128
:102C00000A7021006A4631310B00117D37001970BE
:102C10007F49FC370968202005913100F0310A0016
:102C20002100127832310A7021006A4633310B00DC
:102C3000117DB422197021005200B25C34310A7047
:102C4000210035310B009C22396F52001970210090
:102C5000B25C36310A70210037310B009022396C9A
:102C6000520019702100B25C38310A7021003931EC
:102C70000B00B96A19703100FF310A002100527A45
:102C80003A310A7021003B310B00396919706149F2
:102C9000096805913100C0310A00210012783C31E9
:102CA0000A7021006A463D310B00117D197001F058
:102CB00009FA032105000B230020009301900291E3
:102CC00002330C22E16A280000F050F92564474DD8
:102CD00044220021280005F0AAFE4F4B01226B621E
:102CE0004E4BCC21EB62C2232A755B00F2582B00BD
:102CF0004900715C303319702B0031331A70444B2A
:102D000020201A683300D83319002B000978323399
:102D100019702B0033331A70A8222B005200B25CBA
:102D200034331A702B003A6F35331A7032002B008F
:102D30007832127836331A702B003A6C37331A70A7
:102D400032002B006032127838331A702B00BA6AC6
:102D500039331A703300903319002B0009783A3355
:102D60003A6919702B003B331A702A4BA8361A683F
:102D70002B0031783C3319702B003D331A7001F071
:102D8000A1F903210600062300200093019002917F
:102D9000013B0422E96A300000F0E8F8216C06A843
:102DA0002E64FFF7ABF906A800F0D6F9296C06A847
:102DB000FFF7A4F906A800F0CFF902251848FFF79D
:102DC0008BFA626A13882B431380626AD37BDB0918
:102DD000FCD12000FFF76EFCFFF7CAFE642001F073
:102DE00029F9EBE71003002020B400007402002052
:102DF00030020020B802002029B4000018B40000FE
:102E00001BB4000000300042E4090020FCB50000C3
:102E1000F0B60000C0B6000000340042DC0900201B
:102E20002EB4000070B506000C008D18AC4207D01F
:102E3000336821789B683000984720700134F5E7AB
:102E400070BD7047704710B50400406800F0F0FA9C
:102E50000023237610BD10B5406800F00EFB10BDB6
:102E6000F8B5050040680C0000F002FB2B68E7B2E3
:102E7000260A9B68012810D139002800FF279847AF
:102E80002B68BC4304439B68310028009847030229
:102E900020003840184380B2F8BD31002800984720
:102EA000FF262B680002344004439B683900280049
:102EB0009847B4432043EEE710B5040001F006F94B
:102EC000200010BD10B54B1C0BD0102909D0EFF31A
:102ED000108472B6102905DD02234376002C00D140
:102EE00062B610BD0123427E1A43427618224A433D
:102EF0000449891816228A569340C2691343C36154
:102F0000ECE7C046FCB500004B1C17D0102915D0CB
:102F1000437E9B0712D4EFF3108272B618234B4303
:102F20000749C9180123897D49B28B40C16999437A
:102F3000C16100D14176002A00D162B67047C04617
:102F4000FCB50000437E002B05D09A0704D5837E94
:102F5000002B00D062B67047DB07FCD5C369024A7C
:102F60009BB2D360F7E7C04600180040F7B508AC45
:102F7000277809AC26780AAC25780D4C01930834E3
:102F80000460012300244375046104750476A142A2
:102F900005D1084B084A3B21084805F0B9FC6B46AF
:102FA0001B794772C6720573416002728372FEBD5F
:102FB00064B50000EFB40000A0B5000000B500004B
:102FC0007FB5036902AE04000D00029172608B426E
:102FD00003D1828AB3889A4226D02000062231008B
:102FE000103005F01BFD606800F039FA7379E17A62
:102FF000013B581E8341227B00936068002300F050
:10300000D3FA33790021013BDBB2022B01D8074A06
:10301000D15C074B2A009D4200D91A00606800F07D
:10302000EFF9606800F011FA7FBDC046D0B400002F
:10303000001BB70007B5437E00910192002B07D01B
:103040009A070AD5EFF310835A425341837672B63A
:103050000099019AFFF7B4FF07BDDB07F8D5C369F4
:10306000014A9BB29360F3E700180040F7B50024D3
:103070000125194B194A5D711A601C71184B1948CA
:10308000083301930360184B184F4360184B194ED7
:1030900003810D233A003100457504610475837284
:1030A0000A3B0476C472037302F0D2FC1248134B3D
:1030B000019A4360124B4575038119233100026068
:1030C00004613A0004758372163B05730476C3727B
:1030D00002F0BEFCF7BDC0460803002000093D0019
:1030E00064B50000C8020020E409002000000020B0
:1030F0000C0B0000452E0000E8020020EC09002027
:103100001716000070B505000F4C1049200000F0A4
:1031100027FD200000F0A1FA2E7E002E07D00C49DA
:10312000200000F01DFD200000F097FA70BD094955
:10313000200000F015FD200000F08FFA01236E76CC
:10314000AE76EE612B76F1E710030020D3B40000D9
:10315000D6B40000D9B40000F8B518270400FFF772
:10316000D1FF164E1649300000F0FAFC300000F096
:1031700074FA3B000821207A124D4343EB1859564C
:1031800001F094F93B000821A07A4343EB1859560B
:1031900001F08CF90821607A4743ED19695601F076
:1031A00085F90949300000F0DBFC300000F055FAE9
:1031B000064B200006CBFFF703FFF8BD10030020ED
:1031C000DCB40000FCB50000E3B4000008030020FC
:1031D00010B501211A2001F0F1F801211A2001F0A7
:1031E00039F901211B2001F0E9F800211B2001F031
:1031F00031F910BD10B5024800F0BDFB10BDC0464E
:103200001003002010B5024800F0B5FB10BDC04609
:103210005405002010B5024800F0ADFB10BDC046BB
:1032200098070020F0B51F4985B01F4800F058F8F6
:103230001E491F4800F054F81E4D1F49280000F099
:103240004FF81E4E1E49300000F04AF81D491E4836
:1032500000F046F81D4F1E49380000F041F80124E7
:10326000032339000093019423000022194800F041
:10327000FBFA00233100019300941D331E221648EF
:1032800000F0F2FA19230393013B0293163B0193DA
:103290000094143317222900104800F0A1FA05B059
:1032A000F0BDC04600080042DC090020000C0042CE
:1032B000E4090020EC09002000100042F40900207D
:1032C0000014004200180042FC090020040A0020FB
:1032D000001C004210030020540500209807002025
:1032E00000230371016070479446F0B59E1E721E64
:1032F00096416246056892072F6836063A43324384
:103300002A60072505AC24780068A40129402143E0
:1033100042680024022B00D05C031143214341602A
:10332000F0BD30B5C0250368AD031C6812052A4006
:103330002243C0240904A4022140114319600368F8
:103340005A6814435C6030BD0123026811680B4366
:10335000136003681A68D207FCD4DA69D207F9D47B
:1033600070470223026811680B4313600268D36937
:103370009B07FCD470470268137E9B0702D4037935
:10338000002BF9D1002303717047002203685A8390
:1033900070470368187E4007C00F70470368187EA7
:1033A000C0097047802302685B42117E0B4313768D
:1033B00070470368588B8007C00F7047022302686C
:1033C000518B0B43538370470368187EC007C00FAF
:1033D00070470368188DC0B2704703681A7ED20721
:1033E000FCD589B2198501230371180070470122A9
:1033F00003689A757047012203681A7570470000C8
:1034000070B5012604684B08334031402568090730
:103410005B070B432B43236004685100034802F011
:1034200033FB0138C0B2207370BDC046006CDC02B3
:103430000123026811680B43136003681A68D207FE
:10344000FCD4DA69D207F9D4704702230268116804
:103450000B4313600268D3699B07FCD47047036871
:10346000DA699207FCD402211A688A431A6070470D
:10347000036818684000C00F70470268936A5B0ACF
:103480005B021943916203681A7E5207FCD5986A61
:10349000C0B270470368214A30B593422FD0204A0A
:1034A00093422FD01F4A93422FD01F4A93422FD0CE
:1034B0001E4A93422FD01E4A93421FD10E23192237
:1034C0000121032599401B48C024016099082B4025
:1034D000AB40FC359D4089000918A4000859A84359
:1034E000C0259D402B0003430B518023DB011A4371
:1034F000114B5A805A7852B2002AFBDB30BD0923A7
:103500001422DDE70A231522DAE70B231622D7E778
:103510000C231722D4E70D231822D1E7000800421C
:10352000000C00420010004200140042001800424B
:10353000001C004200E100E0000C0040F8B504006F
:103540000F0016001D00FFF7A5FF2000FFF7FCFE8F
:103550001C21BB000B4071072268090C0B43136050
:10356000842322689375012F1AD11021012E00D0D7
:1035700008390C4B69431868C00002F085FA07222D
:10358000216802408B895203DB04DB0C13438B81DF
:10359000226803049089DB0C400B400318439081A0
:1035A000F8BDC04604000020F7B50600019308AB43
:1035B0001F780D001400FFF73BFF3000FFF76AFF94
:1035C000C022240592031440BA070C2717433C433A
:1035D000C0270722BF022D0433683D4025431D60EC
:1035E000019B316813401A0080239B0213434B60F8
:1035F000F7BD01207047000010B50368014A1B6A3F
:10360000984710BD13040000FC30006A7047872300
:103610009B00C018C36880204000C01A7047030098
:10362000FC331A6A002A03D0DB69C018007D70479A
:1036300001204042FBE710B504000069FFF784FE5B
:1036400022000023FC329361D3611362872292002F
:10365000A4186360A360E36010BD872310B59B00CE
:10366000C218D368002BFCD10069FFF784FE10BD9F
:103670000368002B02D162B6BFF36F8F7047F02052
:1036800001403039484248417047F0231B0119403E
:10369000802306209B0099420AD00133FF3301307A
:1036A000994205D0802302385B00994200D0002067
:1036B00070470F2001400020012903D00239481E25
:1036C0008141481C704700008B23F0B5182685B057
:1036D00002919B000400C05C330008214343324D3B
:1036E0001700EB18595600F0E1FE304B0821E05C62
:1036F00033004343EB18595600F0D8FE2C4BE25CE4
:103700000393022A09D11133E05CFF2805D0082178
:103710004643AE19715600F0C9FE8C26B600A05D76
:10372000FF2819D0012100F049FE1822A35D21498C
:103730005A43AB56AD18DB0158188D2189006050F3
:103740001D4901225B188E218900635069688A40F7
:103750008F21890062501A600122029B11002069AA
:10376000FFF7ECFE39002000FFF78FFF390005005E
:103770002000FFF79EFF390006002000FFF77FFFC3
:1037800033000090290020690122FFF7ADFD0B4BAB
:103790002069E25C039BE15CFFF7C3FD2069FFF752
:1037A000E0FD05B0F0BDC046FCB500002D020000F4
:1037B0002F02000018440041144400412E02000072
:1037C000802210B504005200002105F030F92300DA
:1037D0000022FC335A6020009A60DA6010BD0000BD
:1037E000F0B585B01D000AAB1B78040000930BAB4D
:1037F0001B78160001930CAB1B780F0002930DABE6
:103800001B78039300234360FA239B008360124BD1
:10381000083303601430FFF7D3FF20002130FF305E
:10382000FFF7CEFF8B236A469B002761E6540B4BC4
:103830001278E5540A4B2000E2546A46094B12798B
:10384000E2546A46127A0133E2546A46127B10331C
:10385000E25405B0F0BDC04614B900002D020000CE
:103860002E0200002F020000F7B51D0008AB1B78E8
:103870000400009309AB1B781600019300234360FA
:10388000FA239B008360114B0F0008330360143050
:10389000FFF796FF20002130FF30FFF791FF8B23C9
:1038A0006A469B002761E654094B1278E554094BA0
:1038B0002000E2546A46084B1279E2548C22313BD4
:1038C000FF3B9200A3541032A354FEBD14B9000074
:1038D0002D0200002E0200002F020000F7B5EFF3CA
:1038E000108300930123019372B680260200FF2506
:1038F000019BFC327600013B5C1C0FD0D4685F1E3C
:10390000B44209D054680155546801342C405460C5
:10391000D4680134D460EEE73B00EDE768460193DC
:10392000FFF7A6FEF7BD13B5EFF310830093012355
:10393000019372B6019B5A1E0192002B15D0030011
:10394000FC33DA68002A0DD09A68845C9A680132E8
:10395000D2B29A60DA68013ADA606846FFF788FE08
:10396000200016BD01246442F7E701246846FFF7F2
:103970007FFE6442F4E710B504000069FFF719FD0B
:10398000002805D02069FFF724FD2069FFF716FD08
:103990002069FFF7FEFC00281BD02069FFF719FD06
:1039A000010020001430FFF799FF8C239B00E35C9B
:1039B000FF2B0ED02300FC331A6A80235B009B1A76
:1039C000092B06DC8D238F229B009200E358A2581E
:1039D0001A602069FFF7F8FC00280ED087239B00AF
:1039E000E318DB68002B14D020002130FF30FFF7F4
:1039F0009AFFC1B22069FFF7F0FC2069FFF7CEFC07
:103A0000002805D02069FFF7CDFC2069FFF7BDFC39
:103A100010BD2069FFF7EFFCEFE70000F8B50400E8
:103A200000690D00FFF7D0FC87239B00E6180028F3
:103A300002D0F368002B34D001278022F3685200B3
:103A4000934223D1EFF310833B4210D1174B5B68B5
:103A5000DB05DB0DF1D0103B5BB2002B10DAF13A45
:103A60001340083B9B08124A9B009B181B68206967
:103A7000FFF7AAFC0028E0D02000FFF77CFFDCE77E
:103A80009B08C0330B4A9B009B58F0E72000213075
:103A9000FF302900FFF722FF2069FFF7A8FC012073
:103AA000F8BD29002069FFF798FCF8E700ED00E079
:103AB0001CED00E000E100E010B504001430FFF759
:103AC00032FF8C239B00E35CFF2B0ED02300FC33E2
:103AD0001A6A80235B009B1A0A2B06DD8E238F2235
:103AE0009B009200E358A2581A6010BDF7B506007B
:103AF0000D000C008B180193019B671B9C4207D0A3
:103B0000336821781B683000984701340028F3D1CE
:103B10003800FEBD70B5040008000D0005F0FAFD88
:103B20002368020029005B682000984770BD10B52B
:103B30000B1E02D0FFF7EEFF0300180010BD10B5FA
:103B4000FFF7F5FF10BD10B503681B68984710BD5F
:103B500010B50249FFF7DEFF10BDC04670B300008C
:103B600070B50400FFF7E3FF05002000FFF7F0FF4A
:103B7000401970BDF0B58BB06B46150000220533BF
:103B80000600DA770800012D00D80A2509AC2900C3
:103B900002F000F8CAB2130037330700DBB209297C
:103BA00002D813003033DBB2013C2370002FEED17A
:103BB00021003000FFF7BBFF0BB0F0BDF8B50600E9
:103BC0000C00151E04D10368C9B21B689847F8BDE4
:103BD0000A2A0CD100290BDA2D21FFF7B4FF61422C
:103BE00007002A003000FFF7C5FF3818EFE7D2B210
:103BF00021003000FFF7BEFFE9E710B5FFF7DEFF59
:103C000010BD10B5002A04D10368C9B21B689847DB
:103C100010BDD2B2FFF7AEFFFAE770B50500FFF7AF
:103C2000F0FF04002800FFF793FF201870BD00008C
:103C3000F7B51E00089B05001700002B01DA0223D0
:103C4000089331003A003300380004F033FD4B494B
:103C5000002814D10122740064085242484B3800F5
:103C6000210004F027FD00280FD10122444B5242CD
:103C70003800210002F09EF8002806D141492800B2
:103C8000FFF748FF04002000FEBDE0223E4B120675
:103C90003800310002F098F8002801D03B49EEE7E7
:103CA000E0223B4B12063800310002F079F8002880
:103CB000F4D1002200233800310002F071F800280E
:103CC00014D02D212800FFF73EFF80231B06009013
:103CD000F618002400202F49089B9C4208DA002295
:103CE0002D4B013403F022FBE4B2F5E70090F0E73E
:103CF0000B0002003100380002F0FCFF0F0006004C
:103D000002F0C8F80A22019001002800FFF732FFF4
:103D1000009B1C18089B002BB5D0019804F056FDA1
:103D200002000B003000390004F07CF906000F009F
:103D300028001A49FFF7EEFE2418089B5A1E089225
:103D4000A1D3154B00223000390003F0F9FE0F001B
:103D5000060002F09FF80A22010000902800FFF7F9
:103D600009FF2418009804F031FD02000B00300018
:103D7000390004F057F906000F00DEE748B90000EB
:103D8000FFFFEF7F4CB90000FFFFEF4150B900008B
:103D9000FFFFEFC10000E03F0000244054B90000E5
:103DA00007B504990091FFF743FF0EBD10B504005D
:103DB00000F00AF9E060236820005B69984700285A
:103DC00008DA00F001F9E368C01AA3689842F2D358
:103DD0000120404210BD000070B50D0007490400ED
:103DE00000F05DF82800FFF7E1FF002804DBC1B216
:103DF000200000F088F8F5E7200070BD72B30000E5
:103E000010B504000068002801D004F0EBFD20008C
:103E100010BD10B504000068002801D004F0E2FDD8
:103E200000232360A360636010BD70B504000D0023
:103E30000068013105F048FC031E01D0012028C4B0
:103E400070BD036810B50400002B04D043688B429A
:103E500001D3012010BD2000FFF7E7FF0028F9D0B3
:103E6000A368002BF5D122681370F2E770B50E003D
:103E7000110004001500FFF7E4FF002804D1200022
:103E8000FFF7C7FF200070BD2A003100A560206841
:103E900004F0C4FD00232268A1685354F2E7002314
:103EA00070B504000D00036043608360994207D041
:103EB000080005F02FFC290002002000FFF7D6FFC4
:103EC000200070BDF7B504000F001600002903D1D3
:103ED000002301930198FEBD01230193002AF9D02C
:103EE0008368D5182900FFF7ACFF0028F0D02368BD
:103EF000A26839009818320004F090FD002223686F
:103F0000A5605A55E6E707B56B46D971073301221C
:103F10001900FFF7D7FF0EBD836810B5002B07D13E
:103F20000120002903D0087843425841C0B210BD97
:103F30000068002901D10078F6E705F0E1FBF3E71E
:103F4000FEE70000034B10B51B68002B00D098471C
:103F500010BDC0460C0A002070B50F490F4CA1429D
:103F600004D100F0B7F800F08DF8FEE70C4D002307
:103F70008D42F6D0CA18E818A24205D3094B8242F6
:103F8000EFD00949002204E0006804331060F1E733
:103F900004C38B42FCD3E4E70000002008020020A9
:103FA00048BE0000080200204C10002010B500F0B0
:103FB00066F8002801D100F057F810BD014B1860D9
:103FC0007047C0460C0A0020014B18687047C04675
:103FD000100A0020F7B51348012284461249134CF9
:103FE0008E68636805689B0E13400192886862685A
:103FF000019F920E3A4067463F6893420ED1BD4200
:104000000CD186420AD35B19FA254868AD00861B9D
:1040100007486B437043000DC018FEBD3D00130000
:104020000600E3E7100A002010E000E000ED00E0E9
:104030005555000070B5041E10D0FFF7CBFF0500EA
:1040400000F01CF8FFF7C6FF054B401B9842F7D95C
:10405000FA23013C9B00ED18002CF3D170BDC04643
:10406000E70300007047000010B5034A13680133EE
:10407000136000F08DFA10BD100A00207047002078
:104080007047000010B500F0EFF804F07DFCFFF77A
:104090009FF80120FFF7CEFF084C200001F0B6F991
:1040A000200000F0F9FBFEF769FDFEF7F9FB044B79
:1040B000002BFAD000E000BFF7E7C0463C0A002022
:1040C0000000000010B504F083FC10BD10B504F032
:1040D00089FC10BD1E22F0B5504851494368514D2E
:1040E00093431A0002231343436008238A6913434E
:1040F000FE228B612B68D2039B0213404A4A134372
:104100004A4A936113000422DC681442FCD0012463
:10411000474A14701678264203D0567876B2002E9D
:10412000F8DB01249460547864B2002CFBDB414C32
:104130005460547864B2002CFBDB8224E401548088
:10414000547864B2002CFBDB02249C840E34DE68BD
:104150002642FCD0384CDC621024DE682642FCD0BB
:104160002C68A40E3F2C00D1203C9E6A334FA40241
:104170003E4034439C629C6A314EA40AA4023443FC
:104180009C62304CDC6200249C841034DE68264241
:10419000FCD02D4C9C841024DE682642FCD00224E6
:1041A0009E8C34439C841024DE682642FCD000247C
:1041B0009460547864B2002CFBDB244C5460547837
:1041C00064B2002CFBDB1C6A214E344080261C624A
:1041D0001C6AB4431C62032393601E4B53605378E4
:1041E0005BB2002BFBDB0023FF240B721A4A4B72DD
:1041F0008B72CB72194B1A60194A2B6811689A0698
:104200005B01C90E2340520F12020B431343154AA0
:1042100013858023426813434360F0BD0040004192
:1042200000040040246080000606000000080040F2
:10423000000C004001040100B905FF7DFF03FFFFF2
:10424000FF01000080BB0A1C2405000000070300DA
:10425000FFFCFFFF03060100006CDC0204000020ED
:104260002060800000400042FA21314B10B51868F0
:10427000890001F009FC2F4B0138984256D82E498D
:104280002E4A4860C020136A00061B021B0A034323
:104290001362002407238C600B608021136A0906D7
:1042A0001B021B0A0B431362FC22254B196A0A43AB
:1042B0001A62FC22196A92010A431A62A022196A40
:1042C000D2020A431A62E0B20021013400F076F80B
:1042D0001F2CF8D11B4B1C005A7852B2002AFBDB72
:1042E000194A5A80194B1A00597EC9090129FBD075
:1042F000E421C90099803F21D970537EDB09012B4D
:10430000FBD0C02300205B011361907000F024F803
:1043100063785BB2002BFBDB0D4B0E4A6380D379D5
:10432000DB09012BFBD04123537010BDFEE7C046D3
:1043300004000020FFFFFF0010E000E000ED00E0BF
:1043400000040040000C00401E40000000400042FD
:104350002140000000480042164A00B51300517E7B
:10436000C9090129FBD00138042816D81969124A55
:104370000A400F211A615A788A4301F071FB030841
:10438000060B0300110001220A435A7000BD110000
:104390000322F9E711000222F6E7F02311691B0559
:1043A0000B430F21136153788B43190002230B43F6
:1043B0005370EBE700400042FFFFFFF0182330B5D9
:1043C0001D00040045430820204A55192856013095
:1043D00014D0032912D808006343D156D31801F032
:1043E0003FFB02280E1B5868CB010221184A9B187C
:1043F0001A1840321170012282405A6030BD58684C
:10440000CB010621124A9B181A1840321170012262
:1044100082405A609A61F1E75868CB0106210C4A44
:104420009B181A1840321170012282405A605A615A
:10443000E4E75868CB010221054A9B181A1840325C
:104440001170012282409A60D8E7C046FCB5000096
:10445000004400411823F0B508245843114A1318AA
:104460001C5701341BD0012635005F688356BD40C0
:104470000D4ADB019A18906805420BD10C00601EB2
:104480008441D2194032107834400336A400B0433E
:1044900020431070044A9B18002901D15D61F0BDD2
:1044A0009D61FCE7FCB50000004400411822424336
:1044B000F8B52C4E0300B218127A52B21400013231
:1044C0000ED0481C00240C280AD801F0C9FA072095
:1044D000202020202020200B0B0B0B000124644205
:1044E0002000F8BD092905D10021D8B2FFF766FFE9
:1044F0000024F5E70A2902D1D8B20839F6E70024EA
:104500000B29EDD1D8B20A39FFF758FFE8E7182098
:104510004343F2185568F3562C00134ADB016E082A
:1045200017389B18C9B204409E19002C0DD00F24D7
:1045300030363278090122401143C9B25B1931701B
:1045400040331A7810431870D2E732000F27303208
:1045500016785B19BE433143117040331A7810430B
:104560001870BDE7FCB500000044004110B5040020
:10457000FFF778FD014B1C6010BDC046080000200D
:104580000122024B52421A607047C04608000020C8
:10459000164A10B51368591C26D0013B1360002B36
:1045A00022D172B6124B134A0433934213D9124AE2
:1045B00001211000147D0C42FCD02021148BFF310E
:1045C0009B085B0021431183D3610C4B13800123B3
:1045D000027D1A42FCD0BFF34F8F094B094ADA60C3
:1045E000BFF34F8FC046FDE710BDC0460800002056
:1045F00000200000030200000040004102A5FFFF70
:1046000000ED00E00400FA05704710B50400FFF764
:104610005DFD200010BD0000F0B5822919D1C3B2A4
:10462000294D5A01AA189169284C80010C40C021DB
:104630008905214391612649083340187021506152
:1046400028685B011A5C8A43110030220A431A541D
:10465000F0BD0029FCD1C026C1B21B4C4B01E318B0
:104660009A681A4DB6052A4032439A60194A800169
:1046700082185A600A000727246808325201115D27
:10468000B9430F000121394311559F6910493D403D
:1046900040182E439E6158617020115D81430800CF
:1046A00010210143115599680B48A2180840802138
:1046B0004903014399609968890B890399604023F4
:1046C00011790B431371C3E7F40E0020FFFFFF8F36
:1046D000680A0020280C0020FF3F00F0EFF3108351
:1046E00003600123436072B6704773B5836D0400A5
:1046F000002B1BD10600A83635786846FFF7EEFF81
:10470000019BEDB2013B02D33578EDB2FAE7684682
:104710000193FEF7ADFF002D01D1002076BD2300EF
:10472000A4331868A0342368C01AF7E76846FFF777
:10473000D5FF22000025019BF432013B02D31578FE
:10474000EDB2FAE768460193FEF792FF002DE4D040
:104750002300F0331868EC34E5E7000010B5436D32
:104760004468DBB25A01A21891680948083308402E
:10477000802149030143916091685B01890B8903A2
:1047800091602268D318402219790A431A7110BD2A
:10479000FF3F00F0F7B5436D4268DBB2190004003B
:1047A0000831106849014118C979C90711D55B0161
:1047B000D21893689B049B0C0CD12000FFF7CEFF0E
:1047C00063681A68636DDBB208335B01D3187F221C
:1047D000DA71F7BDE16D002923D12100A4310B600E
:1047E00023000125AC33E56568465360FFF776FF8B
:1047F000260020002100019BA836013BF430F53152
:104800005A1C33D0357002785F1ED2B20A700A7813
:10481000002A04D120000193FFF7A0FFE8E73B0046
:10482000EEE72100F0310B600023E36523006033E5
:1048300053606846FFF752FF012526002000210043
:10484000019BF436013BA830F5315A1C0ED035706F
:1048500002785F1ED2B20A700A78002A04D12000C2
:104860000193FFF77BFFE8E73B00EEE76846019323
:10487000FEF7FEFEA4E737B56B46DC1D00230D00F6
:10488000237000F0E3FE210000F06EFE2B68181884
:10489000286020783EBD00000078002810D001215B
:1048A000084B1B681A898A431A810822198B0A430C
:1048B0001A830422198B0A431A830022024B1A60BE
:1048C0007047C046F40E0020EC0E002010B50F4AD1
:1048D00093699B0B9B03936113680222FF331A7247
:1048E0009879823A02439A711A7A9207FCD57F240A
:1048F000074A2140937A0800A3431900802301430B
:104900009172917A5B420B43937210BDF40E0020BA
:104910000050004110B50C0000F098FE210000F09E
:1049200056FE002804D1034A93699B0B9B039361B5
:1049300010BDC046F40E0020F8B50D00832A19D131
:10494000CBB23B4C5A01A21891693A48AD010840DC
:10495000C021890501439161374920686D18702194
:10496000083355615B011A5C8A43110040220A43F7
:104970001A54F8BD022A55D1304A8B0098580028A5
:1049800002D003685B699847F820FFF79BFB04009F
:10499000274E2B4B4660036040220021083004F074
:1049A00046F822000023A032A3646565E364236512
:1049B000A365E3655360D3641372136013654C32CF
:1049C00013725372FF222B0013405901711888682B
:1049D000184F08330740C02080053843886030688E
:1049E00007265B01195CAD00B1430E000321314382
:1049F00019542300616D606811404901411860330A
:104A00004B60616D63680A401B6852019B1801226C
:104A1000FF33997A20000A439A72FFF79FFE074BF3
:104A20005C51A6E711002800FFF7F6FDA1E7C0469C
:104A3000F40E0020FFFFFF8F680A0020400A0020CC
:104A400060B9000070B505000124064BA200D258E1
:104A5000002A06D0210028000134FFF76DFF0A2C40
:104A6000F3D170BD140A00200B4BCAB20B48890168
:104A7000C9185301C318596199690832890B890310
:104A80009961036852019A180223D3715179823BCC
:104A90000B4353717047C046680A0020F40E002093
:104AA000084B8A00D05810B5002803D003689B68D3
:104AB000984710BDC9B2044B490159188868800451
:104AC000800CF6E7400A0020F40E002010B50C0020
:104AD000FFF7E6FF00280CD0064BE4B21B68083451
:104AE00064011C19802362795B42134363710223C2
:104AF000E37110BDF40E0020F0B51C002A4B85B008
:104B00001B6807000D000292002B4AD0274B8A0039
:104B1000D058002808D0036822005B6802999847A3
:104B20000400200005B0F0BD3800FFF7B9FF844253
:104B300004D929003800FFF7B3FF04000121EBB2CC
:104B40001B4E03935B010193F21893689B0B9B032D
:104B50009360019A336802989B18FF335A7A0A438C
:104B60005A72144BA901C918220003F057FF002CF8
:104B7000D7D029003800FFF793FF0028D1D140217A
:104B8000039B326808335B01D3181879014319710C
:104B90000121D971019BD318FF339A7A0A439A7283
:104BA000BFE701246442BCE7EC0E0020400A00206D
:104BB000F40E0020280C002013B56B46DC1D2200EB
:104BC0000123FFF799FF012801D1207816BD0120AC
:104BD0004042FBE770B5CBB2124A13485C01890131
:104BE0008918021951609168104D08330D408021D9
:104BF00049032943402591609168890B890391609D
:104C000001685A018A1816793543157195796D0630
:104C1000FCD55B01C918CB79DB07FCD5001980688E
:104C2000C0B270BD280C0020F40E0020FF3F00F041
:104C300070B50D0000211400FFF7CCFFA04200D991
:104C4000200000230349A34203D0CA5CEA54013385
:104C5000F9E770BD280C0020F0B51E003A4B85B076
:104C60001B680F000192002B35D08023DB019E4290
:104C700031D80025354B8A01D3180293002E2CD051
:104C8000334B1B680393FF233B401C000093083405
:104C9000039B64011C19A379DB0921D02D4B2E49FC
:104CA000186800F0F1FE2D4B1721584300F0ECFE80
:104CB0002B4BE279920713D4DA5D002A01D1013837
:104CC000F7D20122DA55009B5A01214B9B189A69B1
:104CD000920B92039A6101256D42280005B0F0BD48
:104CE00000221F4B3400DA553F2E09D9009B402487
:104CF0005A01174B9B188022996912060A439A6140
:104D000022000199029803F089FE009BA1045A0138
:104D10000F4B890C9B18029A2D195A619A69361B00
:104D2000920B92030A439A61009B039A08335B013A
:104D3000D3180222DA715979823A0A435A71019BD7
:104D40001B1901939AE7C046EC0E0020680A002068
:104D5000F40E00200400002040420F0070110100FA
:104D60005D0A002070B50D001C000D4BAE01F61859
:104D700011003000220003F051FEEDB209496D012F
:104D80004D196E61AB69084A20001340AB61AB69F5
:104D9000A2049B0B920C9B031343AB6170BDC046F6
:104DA000680A0020F40E0020FF3F00F0F7B5104B1A
:104DB00001901B780F001500002B0CD10D4B160035
:104DC0001C78002C09D00C4E0C483488201864192B
:104DD00003F024FE34802800FEBD002EFBD03A19DB
:104DE000330000210198FFF7BDFF2418361AF4E7BD
:104DF000E80D0020E90E0020EA0E0020E90D002059
:104E0000F8B50F0016000024012A26D9100003F07F
:104E1000DFFD0500380004F07DFC03230222013091
:104E2000400028706B7096420DD9397800290AD05D
:104E3000531CDBB20137A9549E4203D00232EC541A
:104E4000D2B2F0E7320029000548FFF7AFFF441E59
:104E5000A041C4B2280003F0C5FD2000F8BDC04643
:104E60003C0A0020F0B50024012685B0184B0F0045
:104E700069461E7005000094FFF7FDFC154B01A963
:104E80000B806A3BFF3BCB715A330B72009B8C71DA
:104E900009334B800E4B4E7108711C703A00092F7C
:104EA0000FD00D4F09223E700C4E28000094348024
:104EB000FFF77CFF69462800FFF7DDFC32880849D0
:104EC0003C702800FFF772FF012005B0F0BDC0461E
:104ED000E80D002009020000E90E0020EA0E002083
:104EE000E90D002070B5CE7892B005000C00022EBE
:104EF0000BD18B79C9792C4809021943FFF7B2FF0E
:104F0000411E8841C0B212B070BD00F09FFB21006D
:104F100000F03EFB002803D0C117081AC00FF2E7CB
:104F2000012E0ED1E279A37912021A431F49112AE8
:104F300013D8D2B2002A10D02800FFF737FF012083
:104F4000E1E7032EDFD1A378002B08D1E279A37922
:104F500012021A431649032AEBD90A78ECE7022B0E
:104F600008D1E279A379120212491A432800FFF707
:104F700047FFC8E7012B05D1E279A37912021A4352
:104F80000D49F3E7032BBED14122010001A803F034
:104F90004EFD00F05BFB01A900F00AFBE279A3796A
:104FA00012021A4301A9E1E73C0A0020A0B900005F
:104FB00090B900007CB9000094B90000CBB204495C
:104FC0005B01C9188B699B0B9B038B617047C046C3
:104FD000F40E002037B5050048780C000B2810D8D7
:104FE00000F03EFD061B0F2B0F404561494C5A5DFA
:104FF000097801AA002906D1022311802800FFF7B1
:10500000B1FE01203EBD00231380284B1B78012BED
:1050100000D1137002230021F0E78A780023012ACF
:1050200003D101AA1380224BF0E7204A1370214AD2
:1050300093699B0B9B039361E3E78C78012C06D16A
:1050400000211B4B01AA1C7011702300D6E7012020
:10505000002CD7D1154B174A187093699B0B9B03F3
:105060009361CFE789782800FFF730FCC9E7280073
:10507000FFF738FFC6E701230F4ACCE70B78002083
:10508000DB06BFD12800FFF7DDFCA2780A4B0B48F6
:105090001A6000F0BBFCCAE70123094ABBE78A7823
:1050A000074B1A60C3E70020ACE7C0465C0A00204B
:1050B000640A0020F40E0020EC0E002008100020EE
:1050C000F00E00203A4BF7B51E780500002E5FD198
:1050D000384C23689A8B12070DD5082231009A8329
:1050E0003000FFF799FA10222368FF33997A0A43B8
:1050F0009A72314B1E6023689A8B520701D50422A5
:105100009A83FF331A7A920603D52022597A0A43EA
:105110005A721A7AD20623D569460800274AC0CAAD
:10512000C0C0A268920B9203A26040225879024349
:105130005A7160230A7828001A422AD1FFF74AFFE1
:105140002368FF33002827D08022997952420A43EE
:105150009A711A7A520603D54022597A0A435A7232
:105160007F2601252368FF331E722F00236808372E
:105170007F01DB19DB79002B07D0114BAA00D05837
:1051800000280DD003681B6898470135082DECD125
:10519000F7BDFFF7BFFBD3E720210A4A9171D8E79B
:1051A0002900094800F008FC2368DF19FE71ECE7CC
:1051B000E90E0020F40E0020EC0E0020280C002048
:1051C000400A0020FF5000410810002010B502489E
:1051D000FFF778FF10BDC0463C0A002080235B002B
:1051E0000380002343600733037270478300014844
:1051F000C0187047140A0020836C402B09D03F224E
:10520000036CC154036C013313400364836C01339A
:1052100083647047F7B505006846FFF75FFA00261C
:105220004022019B013B02D32E6D961BFAE7684694
:105230000193FEF71DFAAB6D6846002B4FD1FFF7C7
:105240004DFA2900019BA831013B5A1C0CD00C7867
:105250005A1EE4B2002C05D168460193FEF708FA05
:105260002000FEBD1300F0E7684601930024FEF71E
:10527000FFF92A002900A0321368A431B4420ED0ED
:10528000086898420BD92800591CEB18116060334C
:1052900019780830C9B2FFF7AFFF0134E9E70968B0
:1052A0009942DDD1002313600133AB656846FFF7F7
:1052B00015FA2F002A000021019BA837013BF53287
:1052C000581CC9D0397010785E1E002805D01170A6
:1052D00028000193FFF742FAEBE73300F0E7FFF70E
:1052E000FDF92900019BF431013B5A1C06D00C78D2
:1052F0005A1EE4B2002CAFD01300F6E768460193C3
:105300000024FEF7B5F92A002900EC321368F031C9
:10531000B44202D0086898421DD8096899429FD1CA
:10532000002368461360AB65FFF7D8F92F002A0009
:105330000021019BF437013BF532581C00D18BE76B
:10534000397010785E1E002811D01170280001936A
:10535000FFF704FAEAE72800591CEB181160AC3398
:1053600019780830C9B2FFF747FF0134CBE73300A3
:10537000E3E710B50400FFF74DFF206D10BD10B539
:105380000400FFF747FF236D002B03D0E36CE41804
:10539000207A10BD01204042FBE7F7B517000E0050
:1053A0000400FFF737FF6846FFF798F93F22002512
:1053B0009446019B013B5A1C19D0BD4215D2226D67
:1053C000002A12D00121226D4942002A0AD06046EB
:1053D000E26CA218117AE26C01320240E264226DA2
:1053E000013A226571550135E7E7013BE3E768467D
:1053F0000193FEF73DF92800FEBD0000014B024A73
:105400001A607047F40E0020005000412023F7B5C9
:10541000474A0500D1690F200B43D361012245495A
:105420000B7813430B70444B197881431970062194
:105430001C782143197041490C7822430A701A786C
:1054400002401A70602219780A431A703C4B3D4A98
:105450005A805F78FF09FCD13B48FEF7AFFD01237E
:105460003A4C3B4E2268300011780B431370802277
:105470003900520003F0DBFA22689378DB07FCD492
:1054800056621F26334B1B68590B980C9B01314009
:1054900030405B0FB14200D105211F2800D10238F6
:1054A000072B00D1043B31408901178D01912A4916
:1054B00030400F40019939431185118D0700B143E8
:1054C000080038431085118D1803244B7F260B40AC
:1054D00003430C2013850823D17881430B43032118
:1054E000D3702268D3788B4301390B43D370226881
:1054F00013783340137004232268167833431370F3
:105500002268C1241389A4008343154813810359D9
:105510001B021B0A035180230360137811481943AF
:10552000012311702B70002100F0E0F8F7BDC04698
:1055300000040040584400413C44004159440041AB
:10554000000C004006400000CD510000F40E002089
:10555000F80E0020246080003FF8FFFFFF8FFFFF60
:1055600000E100E00810002070B50E00002544683E
:10557000002C0BD0236831005B682000984700287E
:1055800002DB2D18E468F3E701256D42280070BDA9
:1055900070B50D004468002C08D0236829009B6872
:1055A00020009847002802D1E468F4E7200070BD8D
:1055B00070B50D004468002C07D023682900200036
:1055C000DB689847E4682D18F5E72C7070BD70B55E
:1055D0000D004468002C08D0236829001B682000B7
:1055E0009847002802D1E468F4E7200070BDF8B5C0
:1055F00042788B790D00017A9B18040000208B42C1
:1056000022DC6368834219D16560002623786A71C1
:10561000EA792B719B182370AB79B34213D9AB682D
:10562000B7006078DF19FFF7E1FD3B6801360360E2
:105630006378F6B201336370EEE70B00D968002996
:10564000FBD1DD60E1E70120F8BD000070B5012667
:10565000054D064C2B68334203D12000FFF7BEFDF9
:105660002E60200070BDC046F80F0020FC0F002007
:105670000020704770B50F26CB1D01390200324063
:10568000D5B22C0000093034092A00DD07341C7023
:10569000013B8B42F2D170BD10B50C000B4B18686A
:1056A000FFF7E8FF21000A4B08311868FFF7E2FF17
:1056B0002100084B10311868FFF7DCFF2100064B72
:1056C00018311868FFF7D6FF202010BD0CA080000D
:1056D00040A0800044A0800048A0800008B4024B95
:1056E0009C46103808BC60479956000070477047C8
:1056F0003F20704713B56B460268D9710733546871
:1057000019000122A04716BD70B50A260B7892B089
:105710006E44023305000B703C220021300003F080
:1057200086F9394801AC06903848242107900620B4
:1057300020776846364AA1742281364A364BA281C8
:10574000FD3AFF3A8018C177684623390630C177A1
:1057500068460730C17702A8C1770720F277032691
:1057600008316944C87703A9CE7710212B366E44DF
:105770003170092621851F3169440E700CA9053E40
:105780000E7033212380022369440B7006360DA965
:105790000E7022493536A1863B216E44307010A828
:1057A0006274E27702703D3269446A440B70137090
:1057B00040210022E37023716371A37341336B4472
:1057C000218719705A702B7DC039A370A37263773B
:1057D0000133DBB2A3776A7D0B200D0068441543CB
:1057E000C5773120684403703A23501C6B4418700D
:1057F000412302320A436B441A70210042220848B6
:10580000FFF7D4FA12B070BD10010424020605247B
:105810000904000001020000080B00000705000059
:105820003C0A002008B4024B9C46103808BC604774
:105830000957000070B5027D0B790C0000259A42D3
:105840000BD10B784E78A12B09D1212E05D107223F
:105850001B491C48FFF7AAFA0135280070BD212B0F
:10586000FBD1202E22D1072215491648FFF7E0F977
:105870009622134BD200196891421DD1DB79DB07C8
:105880001AD4FA20FEF772FE00210E48FFF796FBAD
:105890000125232EE1D1E378A2781B0213430A4AA3
:1058A000002108481360FFF789FBD6E7222EEFD1CD
:1058B0008A78034BDA71DBE7FEF762FEE4E7C04665
:1058C000100000203C0A00200C00002008B4024B0D
:1058D0009C46103808BC60473558000010B50822B7
:1058E0000021024803F0A3F810BDC04610000020BC
:1058F00010B5417D006A0131FFF7D2F8034B1B68F8
:1059000001335A1E9341181810BDC04618000020DC
:1059100010B5417D006A0231FFF7D8F810BD10B50F
:10592000417D006A0231FFF79FF810BD70B50D0090
:10593000417D0400130002312A00006AFFF78CF950
:10594000002801D10123636070BD000010B5054C33
:1059500023685A1C04D103685B69984703002060E0
:10596000180010BD18000020074A0300106810B589
:10597000411C03D001235B42136010BD597D186A9E
:105980000131FFF719F9F8E71800002010B5FEF70C
:105990001BFBF423FF330024984207D9044B0A2051
:1059A000DC79631E9C41E4B2FEF744FB200010BD8D
:1059B000100000200020704770470000FA239B0071
:1059C00010B583600F4B0022C3820300283383612C
:1059D0000D4B04004260C26118005033236108304F
:1059E000631D21622060DA778323A362813BE36237
:1059F00080332363FFF72AFE21001031FFF7F7FD04
:105A0000200010BD03020000B4B90000022110B54F
:105A1000094B1A68437D5B01D318FF339C7A2143FD
:105A20009972437D0133DBB25B01D3180122FF334E
:105A3000997A0A439A7210BDF40E002010B50249FB
:105A40000248FFF7BBFF10BD3C0A002008100020F1
:105A50000B0010B50100180002F078FF10BD000027
:105A600002B4714649084900095C49008E4402BCF1
:105A70007047C04603B47146490840004900095ABE
:105A800049008E4403BC7047002243088B4274D304
:105A900003098B425FD3030A8B4244D3030B8B422F
:105AA00028D3030C8B420DD3FF22090212BA030C38
:105AB0008B4202D31212090265D0030B8B4219D319
:105AC00000E0090AC30B8B4201D3CB03C01A524139
:105AD000830B8B4201D38B03C01A5241430B8B4281
:105AE00001D34B03C01A5241030B8B4201D30B036A
:105AF000C01A5241C30A8B4201D3CB02C01A524191
:105B0000830A8B4201D38B02C01A5241430A8B4253
:105B100001D34B02C01A5241030A8B4201D30B023C
:105B2000C01A5241CDD2C3098B4201D3CB01C01A56
:105B3000524183098B4201D38B01C01A5241430960
:105B40008B4201D34B01C01A524103098B4201D34E
:105B50000B01C01A5241C3088B4201D3CB00C01ABB
:105B6000524183088B4201D38B00C01A5241430833
:105B70008B4201D34B00C01A5241411A00D2014658
:105B8000524110467047FFE701B5002000F0F0F8E1
:105B900002BDC0460029F7D076E7704703460B43A5
:105BA0007FD4002243088B4274D303098B425FD316
:105BB000030A8B4244D3030B8B4228D3030C8B4242
:105BC0000DD3FF22090212BA030C8B4202D3121228
:105BD000090265D0030B8B4219D300E0090AC30BFD
:105BE0008B4201D3CB03C01A5241830B8B4201D3AA
:105BF0008B03C01A5241430B8B4201D34B03C01A93
:105C00005241030B8B4201D30B03C01A5241C30A0A
:105C10008B4201D3CB02C01A5241830A8B4201D37B
:105C20008B02C01A5241430A8B4201D34B02C01A65
:105C30005241030A8B4201D30B02C01A5241CDD20A
:105C4000C3098B4201D3CB01C01A524183098B4255
:105C500001D38B01C01A524143098B4201D34B013E
:105C6000C01A524103098B4201D30B01C01A5241A1
:105C7000C3088B4201D3CB00C01A524183088B4228
:105C800001D38B00C01A524143088B4201D34B0011
:105C9000C01A5241411A00D2014652411046704783
:105CA0005DE0CA0F00D04942031000D34042534088
:105CB00000229C4603098B422DD3030A8B4212D348
:105CC000FC22890112BA030A8B420CD3890192117A
:105CD0008B4208D3890192118B4204D389013AD0B7
:105CE000921100E08909C3098B4201D3CB01C01A8C
:105CF000524183098B4201D38B01C01A524143099F
:105D00008B4201D34B01C01A524103098B4201D38C
:105D10000B01C01A5241C3088B4201D3CB00C01AF9
:105D2000524183088B4201D38B00C01A5241D9D211
:105D300043088B4201D34B00C01A5241411A00D292
:105D40000146634652415B10104601D34042002B8E
:105D500000D54942704763465B1000D3404201B50D
:105D6000002000F005F802BD0029F8D016E77047C2
:105D70007047C0468446101C62468C46191C634618
:105D800000E0C0461FB501F073FE002801D40021D9
:105D9000C8421FBD10B501F0CBFD4042013010BD1F
:105DA00010B501F065FE002801DB002010BD0120C8
:105DB00010BDC04610B501F05BFE002801DD0020DB
:105DC00010BD012010BDC04610B501F0EDFD00284A
:105DD00001DC002010BD012010BDC04610B501F04F
:105DE000E3FD002801DA002010BD012010BDC046EF
:105DF0008446081C6146FFE71FB500F08BFB0028B6
:105E000001D40021C8421FBD10B500F00DFB404277
:105E1000013010BD10B500F07DFB002801DB002033
:105E200010BD012010BDC04610B500F073FB002866
:105E300001DD002010BD012010BDC04610B500F0EE
:105E40001BFB002801DC002010BD012010BDC04656
:105E500010B500F011FB002801DA002010BD012070
:105E600010BDC0469E2110B5C905041CFFF7F0FF08
:105E7000002803D1201C00F093FE10BD9E21201CA1
:105E8000C90500F0C9FC00F08BFE80231B069C4670
:105E90006044F2E770B500220C4B04000D00FFF7E0
:105EA0009DFF002804D12000290002F01FFC70BDD6
:105EB000064B00222000290002F0B4F802F016FC84
:105EC00080231B069C466044F1E7C0460000E04189
:105ED000F8B54746CE4643025B0A4400C20F9C46D3
:105EE0004800DD004B02240E5B0A000E80B5984688
:105EF00026009146C90FDB00271A8A4229D0002FBD
:105F000015DD00284AD1002B00D095E0ED08FF2CCC
:105F100000D188E06B025B0AE6B25B02F605580A24
:105F20003043D20710430CBC90469946F8BD002F71
:105F300000D087E0601CC0B2012800DCB6E0EE1A99
:105F4000720100D5C5E0002E3DD1002200260023BD
:105F5000E3E7002F00DC96E000285DD0FF2C60D046
:105F60008022D20413431B2F00DDECE02022D21B41
:105F700018009340F8405A1E93410343ED186B01FB
:105F80007BD50134FF2C00D1B7E0012207262A403F
:105F90006B089A4D1D4015432E4029E0FF2CB5D0CB
:105FA0008022D20413431B2F00DDB2E02022D21B3B
:105FB00019009340F9405A1E93410B43ED1A6B01AF
:105FC0005BD5AD01AE09300002F084FC0538864097
:105FD000844265DC041B330020200134E340041BB1
:105FE000A640751EAE41334307261D0000241E4007
:105FF00001224B461A40002E04D00F232B40042BC5
:1060000000D004356B0100D480E70134E6B2FF2CE8
:106010002FD1FF26002380E7002B52D1FF2C00D088
:1060200074E70A00ED08002DF3D08023DB032B4337
:106030005B025B0AFF2670E7013F002FBED0FF2CFA
:10604000B1D163E7002C47D0FF2869D08024E40455
:106050007A4225431B2A00DDC5E02C002026D440CF
:10606000B21A95406A1E954125435D1B040089467E
:10607000A5E7AB015B0A50E7002401224B461A401A
:106080006B07BAD142E7002F3BD10134E0B20128BF
:106090004ADDFF2CBDD00726ED186D082E40A7E77E
:1060A0000723574D241A35401E40A1E7002C1BD171
:1060B000002D6ED1002B00D19AE00A001D003C009B
:1060C00024E7013F002F00D158E7FF2C00D04AE71A
:1060D000A7E75E1B894676E7002D1CD10A00FF2842
:1060E0001FD004001D0011E7002D5DD1002B17D13A
:1060F00080230022DB03FF260FE70A00FF26002390
:106100000BE7002C21D1002D66D1FF28E9D11D001D
:1061100087E7012352E77A1CA7D0FA43FF2899D1D9
:106120000A001D00FF24F1E6002E21D1002D4FD0E2
:10613000002B4CD0ED186B019ED5314B07362E400D
:1061400001241D4054E7012318E7FF28DFD08024F5
:10615000E4047F4225431B2F4DDC2026F61B2C0038
:10616000B540FC406A1E95412543ED18040006E742
:10617000002DCCD0002B00D153E780216046C9030D
:10618000084203D04046084200D11D0001211140C1
:1061900047E7002B00D1B9E6EA1A500125D50726BA
:1061A0005D1B2E40894623E7FF24002B00D1ADE67E
:1061B00080226046D203104204D04046104201D1F2
:1061C0001D00894601224B46FF241A409EE62B0003
:1061D000DD080A0000249DE67A1CC6D0FF43FF2894
