:1020000000800020614C00004B4C00004B4C000055
:1020100000000000000000000000000000000000C0
:102020000000000000000000000000004B4C000019
:1020300000000000000000004B4C0000B54C000008
:102040004B4C00004B4C00004B4C00004B4C000034
:102050004B4C00004B4C00004B4C00004D4C000022
:102060004B4C00004B4C00004B4C0000F92E000084
:10207000E92E00004B4C0000D92E00004B4C000014
:102080004B4C00004B4C00004B4C00004B4C0000F4
:10209000000000004B4C00004B4C00004B4C00007B
:1020A0004B4C00004B4C00004B4C00004B4C0000D4
:1020B0000000000010B5064C2378002B07D1054B1B
:1020C000002B02D0044800E000BF0123237010BDA4
:1020D0009400002000000000206B0000044B10B5AD
:1020E000002B03D00349044800E000BF10BDC046E8
:1020F0000000000098000020206B0000F7B50127C9
:102100008A403B40BB400AAE3678C0010096124E72
:1021100008AC8019066825783243026042184032C4
:102120001678019302232F4004259E43019B09AC9E
:1021300033432478137013788C40AB431D00BF00E9
:102140003D43157003691C430461009B426A8B4048
:1021500013434362F7BDC04600440041144A154B87
:10216000116A0B431362144B144A5A605A78D2090D
:10217000FCD1134A5A805A78D209FCD1114A5A80AC
:102180005A78D209FCD1104A5A605A78D209FCD147
:102190000E4A5A800E4A5A800E4A5A805A78D209FC
:1021A000FCD10D4A5A805A78D209FCD17047C046FA
:1021B00000040040FC310000000C00400407030054
:1021C0001A44000005440000050603001C450000F9
:1021D0001D4500001445000015450000F021104A7F
:1021E0004900515C0F4B1970F22149005158597048
:1021F000FC214900515C9970FE2149005158D97069
:102200001100303109781971516B59711178997138
:102210005168D971117E1972D2695A727047C046DD
:1022200058660000B000002010B5054C0A000100FF
:10223000200002F006FD200002F0B7F910BDC046F4
:102240004401002010B5044C0100200002F09BFC6A
:10225000200002F0AAF910BD4401002010B5024888
:10226000FFF7F0FF10BDC046E665000010B5FFF7B0
:10227000DBFFFFF7F3FF10BD10B50A21FFF7D4FF16
:10228000FFF7ECFF10BD10B5FFF7DCFFFFF7E6FF2F
:1022900010BD000070B506001448FFF7F4FF1448A5
:1022A0003018FFF7F0FF134D134C287D237D0001FC
:1022B0001843124BC018FFF7E6FF287D237D40012D
:1022C0009B0018430E4BC018FFF7DDFF0D4A137E2D
:1022D000DB07FCD52B7D217D1B010B439362002E78
:1022E00002D007236B75637570BDC046B8650000EA
:1022F000C7650000BC000020FC000020D165000084
:10230000DD6500000008004284B010B50593144B51
:10231000039104920290134A1B7D127D1B0113430B
:10232000002418220D99087EC007FCD58B62087E18
:102330004007FCD5886A9040403A04431000A8301A
:10234000F1D1E30102D50020FFF7A4FF01202040D6
:1023500001D1FFF79FFF200010BC08BC04B0184754
:10236000BC000020FC00002084B0F0B58FB01692B5
:1023700017006A4684460C000D931490159117932C
:1023800018AB1D9E23CB23C223CB23C223CB23C256
:1023900023CB23C260460D9B21003A00FFF7B4FF18
:1023A000050018AB328A132AFCD96A4683CB83C254
:1023B00083CB83C283CB83C283CB83C2169A179B02
:1023C00014981599FFF7A0FF2B005A1E93419842CD
:1023D00007D00020FFF75EFF0FB0F0BC08BC04B0D0
:1023E0001847402372790D48AD0913434540737176
:1023F0002B1BAC4202D00A4A934203D8580C03F07C
:102400003FFFE9E7AC4292418021AC42A4415242F5
:102410008902521860428018C018F0E7FFFF0100DF
:10242000FFFF000084B0F0B591B018927A221791A6
:1024300004A916901993521812781A9B0E927B22B7
:10244000521812780C931F9B0F921A8A199D92B200
:102450000D9240225979189E0A435A716A461AAB66
:1024600013CB13C213CB13C213CB13C213CB13C2A0
:10247000189A199B17991698FFF776FF291C03F0F5
:102480002DF8041C011C281C03F028F88021C90524
:1024900003F0C8FC0021071C301C03F091FB011C59
:1024A000381C03F08DFB0C9903F018F81D9903F00C
:1024B00087FB311C071C201C03F0B4FC1C9903F0A3
:1024C0007FFB011C381C03F009F8291C061C201C8A
:1024D00003F0A8FC041C0D9803F088FE011C201CCE
:1024E00003F096F91E9903F06BFB011C301C02F0FF
:1024F000F5FF01250F9B00219D40041C02F0C2FF47
:10250000C0220E9BD205DB019B18002815D09A69CA
:10251000124915439D61201C02F0B4FF002819D018
:10252000F020400020AB1B780D4A1C339B009850D4
:1025300011B0F0BC08BC04B018475A6909491543EA
:102540005D61201C02F08AFF0028E9D180231B0670
:10255000E01800E0201C02F0A9FFE3E70000F043D0
:10256000002000420000F0C3F0B50126E54BE6492B
:102570001A78E64BD2011B78E54C9B185B181A7849
:10258000270032431A70812230373B78E14D5343A4
:102590005B181A7885B032431A70DF48FFF773FE74
:1025A0002B0036331A782B0037331B78D649D201EB
:1025B0009B185B181A78D94832431A702B003833AD
:1025C0001A782B0039331B78D2019B185B181A78C4
:1025D00032431A702B003A331A782B003B331B78A6
:1025E000D2019B185B181A7832431A702B003C33C7
:1025F0001A782B003D331B78D2019B185B181A7890
:1026000032431A70FFF73FFE20003B7831300278EA
:10261000BD4FD9015218D2191178C14831431170F8
:1026200081225343DB191A7832431A70FFF72BFECD
:10263000230036331A78230037331B78D2019B18D6
:10264000DB191A78B74832431A70230038331A78E6
:10265000230039331B78D2019B18DB191A783243D7
:102660001A7023003A331A7823003B331B78D201C7
:102670009B18DB191A7832431A7023003C331A78FE
:1026800023003D331B78D2019B18DB191A78A64F23
:1026900032431A70FFF7F7FD9A4B19789B4BC9012B
:1026A000187843105A18D21912780427D2B230423F
:1026B00000D03C379C4E5B189B193A431A7023009C
:1026C00030331978230031331878C90143105A1870
:1026D000921912780426D2B2C00700D53C36324394
:1026E000914E5B189B191A709048FFF7CCFD2B0098
:1026F000363319782B0037331878C90143105A182C
:10270000921912780226D2B2C00700D51E36324383
:10271000854E5B189B191A702B00383319782B00E3
:1027200039331878C90143105A18921912780226C1
:10273000D2B2C00700D51E3632437B4E5B189B19C0
:102740001A702B003A3319782B003B331878C901E3
:1027500043105A18921912780226D2B2C00700D537
:102760001E3671485B181B1832431A702B003D351A
:102770003C3319782D78C9016B105A181218127849
:102780000220D2B2ED0700D51E30674E5B1802431F
:102790009B191A706648FFF776FD230036331978C7
:1027A000230037331D78C9016B105A18921912781B
:1027B0000220D2B2ED0700D51E3002435A485B1802
:1027C0001B181A70230038331978230039331D7809
:1027D000C9016B105A18121812780220D2B2ED07F4
:1027E00000D51E30024350485B181B181A70230096
:1027F0003A33197823003B331D78C9016B105A18FE
:10280000121812780220D2B2ED0700D51E30024312
:1028100045485B181B181A7023003D343C331B7865
:102820002478DB016110CA18121812780220D2B283
:10283000E40700D51E30CB183B4902435B181A70E1
:102840003C48FFF720FD02223B4BDA639A685206B0
:10285000FCD4F02252001A649A681206FCD40222B8
:1028600019680A431A609A689207FCD43348FFF744
:102870000AFD9822324B52011A80DA7BD209FCD130
:10288000304C31485C80FFF7FEFC98222F4B520100
:102890001A80DA7BD209FCD15C802D48FFF7F3FC6B
:1028A00002212C4B1A688A431A60DA699207FCD419
:1028B0008822294C92021C605A60DA695207FCD4C3
:1028C00003221A731968013A0A431A60DA699207F7
:1028D000FCD40A210120FFF7C9FC02221F4D2B68FE
:1028E00093432B60EB699B07FCD40A210220FFF77E
:1028F000BDFC88239B022C600A216B600320FFF73C
:10290000B5FC2DE0EC00002040440041ED0000202B
:10291000FC000020BC0000208C65000090650000D9
:102920009465000098650000304400419C650000FB
:10293000A0650000A465000000200042A86500001A
:102940000030004210C0FFFFAC65000000340042C0
:10295000B0650000000800420C003000000C00428E
:10296000EB695B07FCD40A210420FFF77FFC0323FB
:102970000A212B730520FFF779FC02232A680A211C
:1029800013432B600620FFF771FCEC69A407E40FEA
:10299000FBD101250A210720FFF768FC2B4E2C4BA9
:1029A0002A001D703300333319783300323318781E
:1029B0002300029401940094FFF7A0FB3300343607
:1029C00035331978307823002A000294019400945A
:1029D000FFF794FB1F4E2A0033003333197833007E
:1029E000323318782300029401940094FFF786FB99
:1029F0003300343635331978307823002A000294B6
:102A000001940094FFF77AFB134E2B007178307815
:102A10002200029501950095FFF770FBF178B078E0
:102A20002B002200029501950095FFF767FB717955
:102A300030792B002200029501950095FFF75EFB8F
:102A40000648FFF720FC05B0F0BDC046BC000020E2
:102A500040010020FC000020B0000020B465000010
:102A6000F0B50125C0268DB07848FFF7EBFB2A00B2
:102A7000774CF6052378DB019B19186A63789A4036
:102A80001040431E9841C0B2FFF7F6FB7148FFF7B4
:102A9000D9FB2A00A378DB019B19186AE3789A40D6
:102AA0001040431E9841C0B2FFF7E6FB6A48FFF7AB
:102AB000C9FB2379DB019B19186A63799D40284083
:102AC000431E9841C0B2FFF7D7FBFA20400002F046
:102AD00035F9624E3568687D0238052800D996E0E0
:102AE00002F014FC037984979FAE01252F00227910
:102AF0005B4BD201D218116860788C468740290060
:102B000063793800994067462378DB0139424BD01E
:102B100028218C46524A53499B181A6833689C44B2
:102B200010421AD12F001A0033331B7832329F40E3
:102B30003B0012784C48D20112181068034313600E
:102B4000634648221B7849481C339B00CA50FFF754
:102B50009AFB642002F0F2F8C8E72F00A278404800
:102B6000D20112181068E2789740384214D12F0031
:102B70001A0033331B7832329F4012783C48D2011E
:102B80001218634610683843106048221B78394891
:102B90001C339B00CA50DAE7634600221B78364894
:102BA0001C339B00CA50D2E7C027FF05DB191B6A04
:102BB00018422CD1E078A3788540DB01DB191B6A31
:102BC0002B4224D113680B4221D1002233689A6032
:102BD00003225A751BE029494B7D032B17D1284B43
:102BE0005A7D032A13D101324A75F2E7254B1B782F
:102BF000002B0CD1C022A379D205DB019B181A6AE5
:102C00000123E1798B401A4201D105236B750DB088
:102C1000F0BD02236A6A11880B43138033680622D1
:102C2000D7E72B006A46103313CB13C213CB13C262
:102C300013CB13C213CB13C20FCDFFF7F3FBE6E7A1
:102C4000286803F01DFBA860E1E7C046E9650000C5
:102C5000B0000020F6650000036600003C01002083
:102C60002000006000200042180000601066000094
:102C7000140000601966000023660000BC000020FC
:102C8000FC00002040010020E121F8B5784C490209
:102C9000200000F0EFFAE121764E4902300001F009
:102CA00053FC642002F04AF8300001F055FC002883
:102CB000FAD07149200001F077FF7048FFF7E3FA7E
:102CC0006F4C40220021200003F079FB6D4B01275F
:102CD000636223006C4D28331F706C4B402200212F
:102CE00028002775E36203F06AFBC222684BC0200C
:102CF0006B62684B2F75EB62674B5200995822004C
:102D00004000185C303210702200313211701A000D
:102D10001800F43211682200F0300078323210705E
:102D20002200B4203332117021004000185C1A00D8
:102D3000343108702100FC32106F353108709C204E
:102D400021004000185C363108702100106C3731CA
:102D50000870902021004000185C38310870210074
:102D6000906A3931087018002100FF30407A3A31FA
:102D70000870210010693B31087019001F00C43130
:102D800008682100C0373F783C310F7021003D3189
:102D90000870CE21CC274900585829007F00DF5DFC
:102DA00030310F7029003131087019001F00DC31FB
:102DB00008682900D8373F7832310F702900333145
:102DC0000870A820916D2A004000185C3432107001
:102DD0002A003532117019002A007831097836320C
:102DE00011702A00D96F3732117019002A00603132
:102DF0000978383211702A00596E393211701A0070
:102E00001800943211682A00903000783A3210701D
:102E10002A003B3211701A002900A8331B783C317C
:102E2000AC3212680B702B003D331A701B4B1C48E0
:102E30001C60FFF728FA300001F0B7FBFFF78EF9AE
:102E40001848FFF720FAFFF78FFB1748FFF71BFA28
:102E50000223164863756B75FFF715FA054801F0F4
:102E60007BFB0028FAD01248FFF70DFAF8BDC046E8
:102E70004008002044010020286600002C66000065
:102E8000BC00002000300042FC000020000800428E
:102E900000340042000C0042586600003C01002053
:102EA00031660000386600003F660000456600009D
:102EB0004D66000010B501211A2002F001F9012130
:102EC0001A2002F049F901211B2002F0F9F8002133
:102ED0001B2002F041F910BD10B5024801F0EBFCD7
:102EE00010BDC0464401002010B5024801F0E3FCCB
:102EF00010BDC0468803002010B5024801F0DBFC7D
:102F000010BDC046CC050020F0B51F4985B01F4854
:102F100000F058F81E491F4800F054F81E4D1F4994
:102F2000280000F04FF81E4E1E49300000F04AF80D
:102F30001D491E4800F046F81D4F1E49380000F09C
:102F400041F8012403233900009301942300002257
:102F5000194801F029FC00233100019300941D332E
:102F60001E22164801F020FC19230393013B029313
:102F7000163B01930094143317222900104801F0E6
:102F8000CFFB05B0F0BDC04600080042100800208D
:102F9000000C004218080020200800200010004209
:102FA00028080020001400420018004230080020C9
:102FB00038080020001C0042440100208803002043
:102FC000CC05002000230371016070479446F0B5E2
:102FD0009E1E721E96416246056892072F6836064D
:102FE0003A4332432A60072505AC24780068A401DF
:102FF0002940214342680024022B00D05C03114386
:1030000021434160F0BD30B5C0250368AD031C68A5
:1030100012052A402243C0240904A402214011437E
:10302000196003685A6814435C6030BD012302686C
:1030300011680B43136003681A68D207FCD4DA697D
:10304000D207F9D470470223026811680B4313605A
:103050000268D3699B07FCD470470268137E9B0704
:1030600002D40379002BF9D10023037170470022A9
:1030700003685A8370470368187E4007C00F704783
:103080000368187EC0097047802302685B42117E86
:103090000B43137670470368588B8007C00F704747
:1030A00002230268518B0B43538370470368187ED9
:1030B000C007C00F70470368188DC0B2704703681F
:1030C0001A7ED207FCD589B2198501230371180035
:1030D0007047012203689A757047012203681A75C8
:1030E000704700000368214A30B593422FD0204A30
:1030F00093422FD01F4A93422FD01F4A93422FD082
:103100001E4A93422FD01E4A93421FD10E231922EA
:103110000121032599401B48C024016099082B40D8
:10312000AB40FC359D4089000918A4000859A8430C
:10313000C0259D402B0003430B518023DB011A4324
:10314000114B5A805A7852B2002AFBDB30BD09235A
:103150001422DDE70A231522DAE70B231622D7E72C
:103160000C231722D4E70D231822D1E700080042D0
:10317000000C0042001000420014004200180042FF
:10318000001C004200E100E0000C0040F8B5040023
:103190000F0016001D00FFF7A5FF2000FFF746FFF8
:1031A0001C21BB000B4071072268090C0B43136004
:1031B000842322689375012F1AD11021012E00D08B
:1031C00008390C4B69431868C00002F0A9F80722BF
:1031D000216802408B895203DB04DB0C13438B8193
:1031E000226803049089DB0C400B40031843908154
:1031F000F8BDC046100000200020704770B50F26B3
:10320000CB1D013902003240D5B22C000009303408
:10321000092A00DD07341C70013B8B42F2D170BDDE
:1032200010B50C000B4B1868FFF7E8FF21000A4BA4
:1032300008311868FFF7E2FF2100084B10311868C9
:10324000FFF7DCFF2100064B18311868FFF7D6FFA7
:10325000202010BD0CA0800040A0800044A0800071
:1032600048A0800008B4024B9C46103808BC604758
:1032700021320000704770473F20704713B56B46FE
:103280000268D9710733546819000122A04716BD9E
:1032900070B50A260B7892B06E44023305000B70AD
:1032A0003C220021300003F08AF8394801AC069036
:1032B000384824210790062020776846364AA174B2
:1032C0002281364A364BA281FD3AFF3A8018C177F7
:1032D000684623390630C17768460730C17702A8AF
:1032E000C1770720F277032608316944C87703A91C
:1032F000CE7710212B366E443170092621851F317F
:1033000069440E700CA9053E0E7033212380022300
:1033100069440B7006360DA90E7022493536A18618
:103320003B216E44307010A86274E27702703D3227
:1033300069446A440B70137040210022E3702371CA
:103340006371A37341336B44218719705A702B7DCD
:10335000C039A370A37263770133DBB2A3776A7DB0
:103360000B200D0068441543C57731206844037075
:103370003A23501C6B441870412302320A436B44B9
:103380001A7021004222084800F0FEFC12B070BD05
:1033900010010424020605240904000001020000B3
:1033A000080B0000070500009C08002008B4024B31
:1033B0009C46103808BC60479132000070B5027D11
:1033C0000B790C0000259A420BD10B784E78A12B7B
:1033D00009D1212E05D107221B491C4800F0D4FC3D
:1033E0000135280070BD212BFBD1202E22D10722D0
:1033F0001549164800F00AFC9622134BD2001968B2
:1034000091421DD1DB79DB071AD4FA2001F030FF9D
:1034100000210E4800F0C0FD0125232EE1D1E37804
:10342000A2781B0213430A4A00210848136000F0E7
:10343000B3FDD6E7222EEFD18A78034BDA71DBE7B2
:1034400001F020FFE4E7C046040000209C080020B3
:103450000000002008B4024B9C46103808BC6047AE
:10346000BD33000010B508220021024802F0A7FF7A
:1034700010BDC0460400002010B5417D006A013136
:1034800000F0FCFA034B1B6801335A1E93411818D5
:1034900010BDC0460C00002010B5417D006A02310D
:1034A00000F002FB10BD10B5417D006A023100F052
:1034B000C9FA10BD70B50D00417D04001300023142
:1034C0002A00006A00F0B6FB002801D101236360E6
:1034D00070BD000010B5054C23685A1C04D1036868
:1034E0005B69984703002060180010BD0C000020A5
:1034F000074A0300106810B5411C03D001235B424A
:10350000136010BD597D186A013100F043FBF8E7E4
:103510000C00002010B501F0DBFBF423FF33002486
:10352000984207D9044B0A20DC79631E9C41E4B21F
:1035300001F004FC200010BD0400002000207047B2
:1035400070477047FA239B0010B583600F4B002231
:10355000C3820300283383610D4B04004260C261C3
:103560001800503323610830631D21622060DA7730
:103570008323A362813BE3628033236301F0C8FAB3
:103580002100103101F095FA200010BD0302000067
:1035900070690000022110B5094B1A68437D5B0178
:1035A000D318FF339C7A21439972437D0133DBB2F8
:1035B0005B01D3180122FF33997A0A439A7210BD36
:1035C000540D002010B502490248FFF7BBFF10BDA3
:1035D0009C08002040080020704710B5040001F04E
:1035E000F7FB200010BD0000F0B5822919D1C3B24D
:1035F000294D5A01AA189169284C80010C40C0211C
:103600008905214391612649083340187021506192
:1036100028685B011A5C8A43110030220A431A545D
:10362000F0BD0029FCD1C026C1B21B4C4B01E318F0
:103630009A681A4DB6052A4032439A60194A8001A9
:1036400082185A600A000727246808325201115D67
:10365000B9430F000121394311559F6910493D407D
:1036600040182E439E6158617020115D814308000F
:1036700010210143115599680B48A2180840802178
:103680004903014399609968890B89039960402334
:1036900011790B431371C3E7540D0020FFFFFF8F17
:1036A000C8080020880A0020FF3F00F0EFF31083D5
:1036B00003600123436072B670470368002B02D198
:1036C00062B6BFF36F8F704773B5836D0400002B34
:1036D0001BD10600A83635786846FFF7E7FF019B47
:1036E000EDB2013B02D33578EDB2FAE768460193BB
:1036F000FFF7E3FF002D01D1002076BD2300A433A6
:103700001868A0342368C01AF7E76846FFF7CEFFB1
:1037100022000025019BF432013B02D31578EDB263
:10372000FAE768460193FFF7C8FF002DE4D02300B5
:10373000F0331868EC34E5E710B5436D4468DBB24C
:103740005A01A218916809480833084080214903AA
:103750000143916091685B01890B89039160226844
:10376000D318402219790A431A7110BDFF3F00F0A7
:10377000F7B5436D4268DBB21900040008311068E8
:1037800049014118C979C90711D55B01D21893685D
:103790009B049B0C0CD12000FFF7CEFF63681A68D6
:1037A000636DDBB208335B01D3187F22DA71F7BD9A
:1037B000E16D002923D12100A4310B6023000125F4
:1037C000AC33E56568465360FFF770FF26002000C4
:1037D0002100019BA836013BF430F5315A1C33D04F
:1037E000357002785F1ED2B20A700A78002A04D1BE
:1037F00020000193FFF7A0FFE8E73B00EEE7210080
:10380000F0310B600023E3652300603353606846AA
:10381000FFF74CFF0125260020002100019BF43614
:10382000013BA830F5315A1C0ED0357002785F1E6E
:10383000D2B20A700A78002A04D120000193FFF75F
:103840007BFFE8E73B00EEE768460193FFF735FFB3
:10385000A4E737B56B46DC1D00230D00237001F093
:1038600057F9210001F0E2F82B6818182860207839
:103870003EBD00000078002810D00121084B1B68D5
:103880001A898A431A810822198B0A431A8304224F
:10389000198B0A431A830022024B1A607047C046F4
:1038A000540D00204C0D002010B50F4A93699B0B5E
:1038B0009B03936113680222FF331A729879823A4C
:1038C00002439A711A7A9207FCD57F24074A214055
:1038D000937A0800A3431900802301439172917ADF
:1038E0005B420B43937210BD540D00200050004109
:1038F00010B50C0001F00CF9210001F0CAF8002805
:1039000004D1034A93699B0B9B03936110BDC0468E
:10391000540D0020F8B50D00832A19D1CBB23B4CD1
:103920005A01A21891693A48AD010840C0218905A1
:1039300001439161374920686D1870210833556142
:103940005B011A5C8A43110040220A431A54F8BDF5
:10395000022A55D1304A8B009858002802D00368BB
:103960005B699847F82001F02FFA0400274E2B4B93
:103970004660036040220021083002F020FD220052
:103980000023A032A3646565E3642365A365E36552
:103990005360D3641372136013654C321372537205
:1039A000FF222B001340590171188868184F083303
:1039B0000740C020800538438860306807265B01D7
:1039C000195CAD00B1430E000321314319542300AB
:1039D000616D606811404901411860334B60616D51
:1039E00063680A401B6852019B180122FF33997AD1
:1039F00020000A439A72FFF79FFE074B5C51A6E72F
:103A000011002800FFF7F0FDA1E7C046540D00208B
:103A1000FFFFFF8FC8080020A0080020D869000021
:103A200070B505000124064BA200D258002A06D02A
:103A3000210028000134FFF76DFF0A2CF3D170BD7F
:103A4000740800200B4BCAB20B488901C9185301F6
:103A5000C318596199690832890B89039961036810
:103A600052019A180223D3715179823B0B4353714F
:103A70007047C046C8080020540D0020084B8A003B
:103A8000D05810B5002803D003689B68984710BD34
:103A9000C9B2044B4901591888688004800CF6E7C4
:103AA000A0080020540D002010B50C00FFF7E6FF21
:103AB00000280CD0064BE4B21B68083464011C19C2
:103AC000802362795B42134363710223E37110BD6B
:103AD000540D0020F0B51C002A4B85B01B68070070
:103AE0000D000292002B4AD0274B8A00D0580028A4
:103AF00008D0036822005B68029998470400200000
:103B000005B0F0BD3800FFF7B9FF844204D92900A1
:103B10003800FFF7B3FF04000121EBB21B4E039303
:103B20005B010193F21893689B0B9B039360019ACE
:103B3000336802989B18FF335A7A0A435A72144B1F
:103B4000A901C918220002F031FC002CD7D02900AD
:103B50003800FFF793FF0028D1D14021039B326842
:103B600008335B01D3181879014319710121D97108
:103B7000019BD318FF339A7A0A439A72BFE7012454
:103B80006442BCE74C0D0020A0080020540D00202A
:103B9000880A002013B56B46DC1D22000123FFF7C5
:103BA00099FF012801D1207816BD01204042FBE792
:103BB00070B5CBB2124A13485C0189018918021909
:103BC00051609168104D08330D408021490329430D
:103BD000402591609168890B8903916001685A01C1
:103BE0008A1816793543157195796D06FCD55B01F8
:103BF000C918CB79DB07FCD500198068C0B270BD4D
:103C0000880A0020540D0020FF3F00F070B50D0021
:103C100000211400FFF7CCFFA04200D920000023B0
:103C20000349A34203D0CA5CEA540133F9E770BDEB
:103C3000880A0020F0B51E003A4B85B01B680F00C3
:103C40000192002B35D08023DB019E4231D8002524
:103C5000354B8A01D3180293002E2CD0334B1B68AE
:103C60000393FF233B401C0000930834039B640133
:103C70001C19A379DB0921D02D4B2E49186801F0BE
:103C80004FFB2D4B1721584301F04AFB2B4BE27998
:103C9000920713D4DA5D002A01D10138F7D201224C
:103CA000DA55009B5A01214B9B189A69920B92039B
:103CB0009A6101256D42280005B0F0BD00221F4B1E
:103CC0003400DA553F2E09D9009B40245A01174B86
:103CD0009B188022996912060A439A612200019971
:103CE000029802F063FB009BA1045A010F4B890C60
:103CF0009B18029A2D195A619A69361B920B9203EE
:103D00000A439A61009B039A08335B01D31802228D
:103D1000DA715979823A0A435A71019B1B1901934E
:103D20009AE7C0464C0D0020C8080020540D002022
:103D30001000002040420F0070110100BD0800205B
:103D400070B50D001C000D4BAE01F61811003000CF
:103D5000220002F02BFBEDB209496D014D196E6195
:103D6000AB69084A20001340AB61AB69A2049B0B0E
:103D7000920C9B031343AB6170BDC046C808002082
:103D8000540D0020FF3F00F0F7B5104B01901B7859
:103D90000F001500002B0CD10D4B16001C78002CC9
:103DA00009D00C4E0C4834882018641902F0FEFA31
:103DB00034802800FEBD002EFBD03A1933000021CC
:103DC0000198FFF7BDFF2418361AF4E7480C0020CD
:103DD000490D00204A0D0020490C0020F8B50F00C5
:103DE00016000024012A26D9100002F0CBFA0500A3
:103DF000380002F0A7FB03230222013040002870A4
:103E00006B7096420DD9397800290AD0531CDBB269
:103E10000137A9549E4203D00232EC54D2B2F0E7EB
:103E2000320029000548FFF7AFFF441EA041C4B28D
:103E3000280002F0B1FA2000F8BDC0469C0800201E
:103E4000F0B50024012685B0184B0F0069461E709E
:103E500005000094FFF7FDFC154B01A90B806A3BA0
:103E6000FF3BCB715A330B72009B8C7109334B8033
:103E70000E4B4E7108711C703A00092F0FD00D4F78
:103E800009223E700C4E280000943480FFF77CFF1E
:103E900069462800FFF7DDFC328808493C7028009D
:103EA000FFF772FF012005B0F0BDC046480C0020AE
:103EB00009020000490D00204A0D0020490C002095
:103EC00070B5CE7892B005000C00022E0BD18B7924
:103ED000C9792C4809021943FFF7B2FF411E8841F6
:103EE000C0B212B070BD00F013FE210000F0B2FDB0
:103EF000002803D0C117081AC00FF2E7012E0ED117
:103F0000E279A37912021A431F49112A13D8D2B2B7
:103F1000002A10D02800FFF737FF0120E1E7032E29
:103F2000DFD1A378002B08D1E279A37912021A43DA
:103F30001649032AEBD90A78ECE7022B08D1E2797B
:103F4000A379120212491A432800FFF747FFC8E776
:103F5000012B05D1E279A37912021A430D49F3E747
:103F6000032BBED14122010001A802F028FA00F083
:103F7000CFFD01A900F07EFDE279A37912021A4378
:103F800001A9E1E79C080020186A0000086A000007
:103F9000F46900000C6A0000CBB204495B01C91847
:103FA0008B699B0B9B038B617047C046540D0020AF
:103FB00037B5050048780C000B2810D801F0A6F999
:103FC000061B0F2B0F404561494C5A5D097801AA29
:103FD000002906D1022311802800FFF7B1FE01203D
:103FE0003EBD00231380284B1B78012B00D113709A
:103FF00002230021F0E78A780023012A03D101AAD5
:104000001380224BF0E7204A1370214A93699B0BDF
:104010009B039361E3E78C78012C06D100211B4BB5
:1040200001AA1C7011702300D6E70120002CD7D103
:10403000154B174A187093699B0B9B039361CFE74D
:1040400089782800FFF730FCC9E72800FFF738FF20
:10405000C6E701230F4ACCE70B780020DB06BFD16F
:104060002800FFF7DDFCA2780A4B0B481A60FFF727
:1040700091FACAE70123094ABBE78A78074B1A601D
:10408000C3E70020ACE7C046BC080020C4080020FD
:10409000540D00204C0D002040080020500D002041
:1040A0003A4BF7B51E780500002E5FD1384C2368D7
:1040B0009A8B12070DD5082231009A833000FFF742
:1040C00093FA10222368FF33997A0A439A72314B8C
:1040D0001E6023689A8B520701D504229A83FF330E
:1040E0001A7A920603D52022597A0A435A721A7A0A
:1040F000D20623D569460800274AC0CAC0C0A268B4
:10410000920B9203A2604022587902435A716023B5
:104110000A7828001A422AD1FFF74AFF2368FF33A2
:10412000002827D08022997952420A439A711A7A3C
:10413000520603D54022597A0A435A727F26012536
:104140002368FF331E722F00236808377F01DB19B5
:10415000DB79002B07D0114BAA00D05800280DD0D6
:1041600003681B6898470135082DECD1F7BDFFF7B0
:10417000BFFBD3E720210A4A9171D8E729000948FB
:10418000FFF7DFF92368DF19FE71ECE7490D002026
:10419000540D00204C0D0020880A0020A0080020AB
:1041A000FF5000414008002010B50248FFF778FF9B
:1041B00010BDC0469C08002080235B0003800023C4
:1041C000436007330372704783000148C01870478B
:1041D00074080020836C402B09D03F22036CC1542B
:1041E000036C013313400364836C013383647047B1
:1041F000F7B505006846FFF759FA00264022019BF3
:10420000013B02D32E6D961BFAE768460193FFF738
:1042100054FAAB6D6846002B4FD1FFF747FA2900DF
:10422000019BA831013B5A1C0CD00C785A1EE4B2F9
:10423000002C05D168460193FFF73FFA2000FEBD30
:104240001300F0E7684601930024FFF736FA2A00CE
:104250002900A0321368A431B4420ED008689842F5
:104260000BD92800591CEB181160603319780830FD
:10427000C9B2FFF7AFFF0134E9E709689942DDD120
:10428000002313600133AB656846FFF70FFA2F0078
:104290002A000021019BA837013BF532581CC9D0E8
:1042A000397010785E1E002805D011702800019327
:1042B000FFF742FAEBE73300F0E7FFF7F7F92900E1
:1042C000019BF431013B5A1C06D00C785A1EE4B213
:1042D000002CAFD01300F6E7684601930024FFF7E7
:1042E000ECF92A002900EC321368F031B44202D014
:1042F000086898421DD8096899429FD100236846F2
:104300001360AB65FFF7D2F92F002A000021019B53
:10431000F437013BF532581C00D18BE73970107827
:104320005E1E002811D0117028000193FFF704FAD7
:10433000EAE72800591CEB181160AC3319780830F3
:10434000C9B2FFF747FF0134CBE73300E3E710B50D
:104350000400FFF74DFF206D10BD10B50400FFF7FE
:1043600047FF236D002B03D0E36CE418207A10BDC7
:1043700001204042FBE7F7B517000E000400FFF7ED
:1043800037FF6846FFF792F93F2200259446019BCC
:10439000013B5A1C19D0BD4215D2226D002A12D001
:1043A0000121226D4942002A0AD06046E26CA2181F
:1043B000117AE26C01320240E264226D013A226518
:1043C00071550135E7E7013BE3E768460193FFF7E5
:1043D00074F92800FEBD0000014B024A1A607047C4
:1043E000540D0020005000412023F7B5474A050036
:1043F000D1690F200B43D361012245490B78134348
:104400000B70444B19788143197006211C782143A5
:10441000197041490C7822430A701A7802401A70C8
:10442000602219780A431A703C4B3D4A5A805F78E3
:10443000FF09FCD13B4800F045FC01233A4C3B4EC0
:104440002268300011780B4313708022390052002B
:1044500001F0B5FF22689378DB07FCD456621F2673
:10446000334B1B68590B980C9B01314030405B0F5C
:10447000B14200D105211F2800D10238072B00D1FD
:10448000043B31408901178D01912A4930400F408A
:10449000019939431185118D0700B1430800384354
:1044A0001085118D1803244B7F260B4003430C20ED
:1044B00013850823D17881430B430321D3702268ED
:1044C000D3788B4301390B43D37022681378334080
:1044D0001370042322681678334313702268C124B2
:1044E0001389A40083431548138103591B021B0A37
:1044F000035180230360137811481943012311707D
:104500002B700021FEF7B6FEF7BDC0460004004048
:10451000584400413C44004159440041000C0040D3
:1045200006400000A9410000540D0020580D002055
:10453000246080003FF8FFFFFF8FFFFF00E100E0F5
:10454000400800200120704710B50368014A1B6A2B
:10455000984710BD13040000FC30006A70478723A1
:104560009B00C018C36880204000C01A7047030039
:10457000FC331A6A002A03D0DB69C018007D70473B
:1045800001204042FBE710B504000069FEF74EFD34
:1045900022000023FC329361D361136287229200D0
:1045A000A4186360A360E36010BD872310B59B006F
:1045B000C218D368002BFCD10069FEF74EFD10BD78
:1045C000F02001403039484248417047F0231B0138
:1045D0001940802306209B0099420AD00133FF3303
:1045E0000130994205D0802302385B00994200D007
:1045F000002070470F2001400020012903D002391C
:10460000481E8141481C70478B23F0B5182685B0A1
:1046100002919B000400C05C330008214343324DEB
:104620001700EB18595600F0C3FD304B0821E05C31
:1046300033004343EB18595600F0BAFD2C4BE25CB3
:104640000393022A09D11133E05CFF2805D0082129
:104650004643AE19715600F0ABFD8C26B600A05D46
:10466000FF2819D0012100F02BFD1822A35D21495C
:104670005A43AB56AD18DB0158188D2189006050A4
:104680001D4901225B188E218900635069688A40A8
:104690008F21890062501A600122029B110020695B
:1046A000FEF774FD39002000FFF790FF3900050088
:1046B0002000FFF79FFF390006002000FFF780FF72
:1046C00033000090290020690122FEF77FFC0B4B8C
:1046D0002069E25C039BE15CFEF795FC2069FEF734
:1046E000B2FC05B0F0BDC046586600002D020000C7
:1046F0002F02000018440041144400412E02000023
:10470000802210B504005200002101F058FE230061
:104710000022FC335A6020009A60DA6010BD00006D
:10472000F0B585B01D000AAB1B78040000930BABFD
:104730001B78160001930CAB1B780F0002930DAB96
:104740001B78039300234360FA239B008360124B82
:10475000083303601430FFF7D3FF20002130FF300F
:10476000FFF7CEFF8B236A469B002761E6540B4B75
:104770001278E5540A4B2000E2546A46094B12793C
:10478000E2546A46127A0133E2546A46127B1033CD
:10479000E25405B0F0BDC0462C6A00002D020000B6
:1047A0002E0200002F020000F7B51D0008AB1B7899
:1047B0000400009309AB1B781600019300234360AB
:1047C000FA239B008360114B0F0008330360143001
:1047D000FFF796FF20002130FF30FFF791FF8B237A
:1047E0006A469B002761E654094B1278E554094B51
:1047F0002000E2546A46084B1279E2548C22313B85
:10480000FF3B9200A3541032A354FEBD2C6A00005B
:104810002D0200002E0200002F020000F7B5EFF37A
:10482000108300930123019372B680260200FF25B6
:10483000019BFC327600013B5C1C0FD0D4685F1EEC
:10484000B44209D054680155546801342C40546076
:10485000D4680134D460EEE73B00EDE7684601938D
:10486000FEF72BFFF7BD13B5EFF310830093012381
:10487000019372B6019B5A1E0192002B15D00300C2
:10488000FC33DA68002A0DD09A68845C9A68013299
:10489000D2B29A60DA68013ADA606846FEF70DFF34
:1048A000200016BD01246442F7E701246846FEF7A4
:1048B00004FF6442F4E710B504000069FEF7EBFB67
:1048C000002805D02069FEF7F6FB2069FEF7E8FB1B
:1048D0002069FEF7D0FB00281BD02069FEF7EBFB18
:1048E000010020001430FFF799FF8C239B00E35C4C
:1048F000FF2B0ED02300FC331A6A80235B009B1A27
:10490000092B06DC8D238F229B009200E358A258CE
:104910001A602069FEF7CAFB00280ED087239B008F
:10492000E318DB68002B14D020002130FF30FFF7A4
:104930009AFFC1B22069FEF7C2FB2069FEF7A0FB17
:10494000002805D02069FEF79FFB2069FEF78FFB4A
:1049500010BD2069FEF7C1FBEFE70000F8B50400C9
:1049600000690D00FEF7A2FB87239B00E6180028D4
:1049700002D0F368002B34D001278022F368520064
:10498000934223D1EFF310833B4210D1174B5B6866
:10499000DB05DB0DF1D0103B5BB2002B10DAF13AF6
:1049A0001340083B9B08124A9B009B181B68206918
:1049B000FEF77CFB0028E0D02000FFF77CFFDCE75F
:1049C0009B08C0330B4A9B009B58F0E72000213026
:1049D000FF302900FFF722FF2069FEF77AFB012054
:1049E000F8BD29002069FEF76AFBF8E700ED00E05A
:1049F0001CED00E000E100E010B504001430FFF70A
:104A000032FF8C239B00E35CFF2B0ED02300FC3392
:104A10001A6A80235B009B1A0A2B06DD8E238F22E5
:104A20009B009200E358A2581A6010BD70B50E00AA
:104A300000254468002C0BD0236831005B682000FF
:104A40009847002802DB2D18E468F3E701256D4242
:104A5000280070BD70B50D004468002C08D0236894
:104A600029009B6820009847002802D1E468F4E7F9
:104A7000200070BD70B50D004468002C07D023687D
:104A800029002000DB689847E4682D18F5E72C70B2
:104A900070BD70B50D004468002C08D02368290053
:104AA0001B6820009847002802D1E468F4E7200042
:104AB00070BDF8B542788B790D00017A9B1804001F
:104AC00000208B4222DC6368834219D16560002696
:104AD00023786A71EA792B719B182370AB79B34202
:104AE00013D9AB68B7006078DF19FFF76DFB3B683F
:104AF000013603606378F6B201336370EEE70B00B2
:104B0000D9680029FBD1DD60E1E70120F8BD000094
:104B100070B50126054D064C2B68334203D12000A9
:104B2000FFF74AFB2E60200070BDC046580E0020E3
:104B30005C0E0020F7B506000D000C008B180193E9
:104B4000019B671B9C4207D0336821781B683000AB
:104B5000984701340028F3D13800FEBD70B5040039
:104B600008000D0001F0EEFC2368020029005B68DC
:104B70002000984770BD10B50B1E02D0FFF7EEFF66
:104B80000300180010BD10B5FFF7F5FF10BD10B5FC
:104B900003681B68984710BD10B50249FFF7DEFF98
:104BA00010BDC046E665000070B50400FFF7E3FFE6
:104BB00005002000FFF7F0FF401970BDF0B58BB085
:104BC0006B461500002205330600DA770800012D38
:104BD00000D80A2509AC290000F028FCCAB213004D
:104BE00037330700DBB2092902D813003033DBB2B8
:104BF000013C2370002FEED121003000FFF7BBFFF6
:104C00000BB0F0BDF8B506000C00151E04D103680A
:104C1000C9B21B689847F8BD0A2A0CD100290BDAE3
:104C20002D21FFF7B4FF614207002A003000FFF793
:104C3000C5FF3818EFE7D2B221003000FFF7BEFF02
:104C4000E9E710B5FFF7DEFF10BDFEE7034B10B537
:104C50001B68002B00D0984710BDC046680E00208E
:104C600070B50F490F4CA14204D100F0B5F800F027
:104C70008BF8FEE70C4D00238D42F6D0CA18E818D9
:104C8000A24205D3094B8242EFD00949002204E039
:104C9000006804331060F1E704C38B42FCD3E4E7FF
:104CA0000000002094000020246B000094000020ED
:104CB000800E002010B500F064F8002801D100F04B
:104CC00055F810BD014B18607047C046680E0020B3
:104CD000014B18687047C0466C0E0020F7B51348AA
:104CE000012284461249134C8E68636805689B0E46
:104CF0001340019288686268019F920E3A406746AD
:104D00003F6893420ED1BD420CD186420AD35B1953
:104D1000FA254868AD00861B07486B437043000DB9
:104D2000C018FEBD3D0013000600E3E76C0E002036
:104D300010E000E000ED00E05555000070B5041EE5
:104D400010D0FFF7CBFF050000F01AF8FFF7C6FF01
:104D5000054B401B9842F7D9FA23013C9B00ED1804
:104D6000002CF3D170BDC046E703000010B5034A24
:104D700013680133136000F08DFA10BD6C0E002033
:104D8000704700207047000010B500F0EFF801F008
:104D9000D5FAFEF78FF80120FFF7D0FF084C20006E
:104DA000FFF722FB2000FEF765FDFDF76DFFFDF725
:104DB00057FE044B002BFAD000E000BFF7E7C046D7
:104DC0009C0800200000000010B501F0DBFA10BDC7
:104DD00010B501F0E1FA10BD1E22F0B5504851495E
:104DE0004368514D93431A00022313434360082341
:104DF0008A691343FE228B612B68D2039B02134006
:104E00004A4A13434A4A936113000422DC6814425D
:104E1000FCD00124474A14701678264203D05678F5
:104E200076B2002EF8DB01249460547864B2002C32
:104E3000FBDB414C5460547864B2002CFBDB8224D1
:104E4000E4015480547864B2002CFBDB02249C847F
:104E50000E34DE682642FCD0384CDC621024DE685A
:104E60002642FCD02C68A40E3F2C00D1203C9E6A28
:104E7000334FA4023E4034439C629C6A314EA40AE4
:104E8000A40234439C62304CDC6200249C841034C5
:104E9000DE682642FCD02D4C9C841024DE6826421D
:104EA000FCD002249E8C34439C841024DE6826426D
:104EB000FCD000249460547864B2002CFBDB244CBA
:104EC0005460547864B2002CFBDB1C6A214E3440E1
:104ED00080261C621C6AB4431C62032393601E4B31
:104EE000536053785BB2002BFBDB0023FF240B7273
:104EF0001A4A4B728B72CB72194B1A60194A2B6883
:104F000011689A065B01C90E2340520F12020B432F
:104F10001343154A13858023426813434360F0BD51
:104F200000400041000400402460800006060000AC
:104F300000080040000C004001040100B905FF7D9D
:104F4000FF03FFFFFF01000080BB0A1C24050000D7
:104F500000070300FFFCFFFF03060100006CDC02FA
:104F6000100000202060800000400042FA21314BF8
:104F700010B51868890000F0D3F92F4B013898421A
:104F800056D82E492E4A4860C020136A00061B02DC
:104F90001B0A03431362002407238C600B608021EB
:104FA000136A09061B021B0A0B431362FC22254BE2
:104FB000196A0A431A62FC22196A92010A431A62A8
:104FC000A022196AD2020A431A62E0B20021013417
:104FD00000F076F81F2CF8D11B4B1C005A7852B207
:104FE000002AFBDB194A5A80194B1A00597EC9095D
:104FF0000129FBD0E421C90099803F21D970537E5B
:10500000DB09012BFBD0C02300205B0113619070F2
:1050100000F024F863785BB2002BFBDB0D4B0E4AEB
:105020006380D379DB09012BFBD04123537010BD82
:10503000FEE7C04610000020FFFFFF0010E000E088
:1050400000ED00E000040040000C00401E400000A5
:10505000004000422140000000480042164A00B5CE
:105060001300517EC9090129FBD00138042816D844
:105070001969124A0A400F211A615A788A4300F0CE
:1050800045F90308060B0300110001220A435A7078
:1050900000BD11000322F9E711000222F6E7F02318
:1050A00011691B050B430F21136153788B431900C2
:1050B00002230B435370EBE700400042FFFFFFF079
:1050C000182330B51D00040045430820204A551917
:1050D0002856013014D0032912D808006343D15652
:1050E000D31800F013F902280E1B5868CB010221D7
:1050F000184A9B181A1840321170012282405A60D7
:1051000030BD5868CB010621124A9B181A1840324C
:105110001170012282405A609A61F1E75868CB0110
:1051200006210C4A9B181A18403211700122824045
:105130005A605A61E4E75868CB010221054A9B187E
:105140001A1840321170012282409A60D8E7C04696
:1051500058660000004400411823F0B50824584365
:10516000114A13181C5701341BD0012635005F6803
:105170008356BD400D4ADB019A18906805420BD159
:105180000C00601E8441D21940321078344003363E
:10519000A400B04320431070044A9B18002901D199
:1051A0005D61F0BD9D61FCE7586600000044004170
:1051B00018224243F8B52C4E0300B218127A52B2AC
:1051C000140001320ED0481C00240C280AD800F02C
:1051D0009DF80720202020202020200B0B0B0B0007
:1051E000012464422000F8BD092905D10021D8B26C
:1051F000FFF766FF0024F5E70A2902D1D8B2083983
:10520000F6E700240B29EDD1D8B20A39FFF758FF91
:10521000E8E718204343F2185568F3562C00134A68
:10522000DB016E0817389B18C9B204409E19002C88
:105230000DD00F2430363278090122401143C9B213
:105240005B19317040331A7810431870D2E732007E
:105250000F27303216785B19BE433143117040334B
:105260001A7810431870BDE75866000000440041EA
:1052700010B50400FEF764F9014B1C6010BDC04678
:10528000140000200122024B52421A607047C046AF
:1052900014000020164A10B51368591C26D0013B93
:1052A0001360002B22D172B6124B134A043393427F
:1052B00013D9124A01211000147D0C42FCD0202188
:1052C000148BFF319B085B0021431183D3610C4B8E
:1052D00013800123027D1A42FCD0BFF34F8F094B8C
:1052E000094ADA60BFF34F8FC046FDE710BDC046E4
:1052F00014000020002000000302000000400041D4
:1053000002A5FFFF00ED00E00400FA0502B47146BB
:1053100049084900095C49008E4402BC7047C046F8
:10532000002243088B4274D303098B425FD3030AE4
:105330008B4244D3030B8B4228D3030C8B420DD3F7
:10534000FF22090212BA030C8B4202D31212090285
:1053500065D0030B8B4219D300E0090AC30B8B42C3
:1053600001D3CB03C01A5241830B8B4201D38B0371
:10537000C01A5241430B8B4201D34B03C01A524116
:10538000030B8B4201D30B03C01A5241C30A8B4259
:1053900001D3CB02C01A5241830A8B4201D38B0244
:1053A000C01A5241430A8B4201D34B02C01A5241E8
:1053B000030A8B4201D30B02C01A5241CDD2C3095A
:1053C0008B4201D3CB01C01A524183098B4201D3D6
:1053D0008B01C01A524143098B4201D34B01C01AC1
:1053E000524103098B4201D30B01C01A5241C30839
:1053F0008B4201D3CB00C01A524183088B4201D3A8
:105400008B00C01A524143088B4201D34B00C01A93
:105410005241411A00D20146524110467047FFE7FF
:1054200001B5002000F006F802BDC0460029F7D003
:1054300076E770477047C0468446081C6146FFE720
:105440001FB500F06DFB002801D40021C8421FBD2C
:1054500010B500F0EFFA4042013010BD10B500F079
:105460005FFB002801DB002010BD012010BDC046FD
:1054700010B500F055FB002801DD002010BD012013
:1054800010BDC04610B500F0FDFA002801DC002078
:1054900010BD012010BDC04610B500F0F3FA002881
:1054A00001DA002010BD012010BDC0469E2110B5BC
:1054B000C905041CFFF7F0FF002803D1201C00F0F1
:1054C00075FE10BD9E21201CC90500F0ABFC00F04C
:1054D0006DFE80231B069C466044F2E7F8B5474604
:1054E000CE4643025B0A4400C20F9C464800DD00E2
:1054F0004B02240E5B0A000E80B5984626009146AA
:10550000C90FDB00271A8A4229D0002F15DD002899
:105510004AD1002B00D095E0ED08FF2C00D188E0A7
:105520006B025B0AE6B25B02F605580A3043D2070B
:1055300010430CBC90469946F8BD002F00D087E080
:10554000601CC0B2012800DCB6E0EE1A720100D582
:10555000C5E0002E3DD1002200260023E3E7002F06
:1055600000DC96E000285DD0FF2C60D08022D204C1
:1055700013431B2F00DDECE02022D21B18009340C8
:10558000F8405A1E93410343ED186B017BD501345B
:10559000FF2C00D1B7E0012207262A406B089A4D64
:1055A0001D4015432E4029E0FF2CB5D08022D204A7
:1055B00013431B2F00DDB2E02022D21B19009340C1
:1055C000F9405A1E93410B43ED1A6B015BD5AD01B7
:1055D000AE09300000F094FE05388640844265DC58
:1055E000041B330020200134E340041BA640751E39
:1055F000AE41334307261D0000241E4001224B46C6
:105600001A40002E04D00F232B40042B00D0043569
:105610006B0100D480E70134E6B2FF2C2FD1FF26C6
:10562000002380E7002B52D1FF2C00D074E70A0042
:10563000ED08002DF3D08023DB032B435B025B0AD4
:10564000FF2670E7013F002FBED0FF2CB1D163E7EA
:10565000002C47D0FF2869D08024E4047A422543F7
:105660001B2A00DDC5E02C002026D440B21A95404C
:105670006A1E954125435D1B04008946A5E7AB01E1
:105680005B0A50E7002401224B461A406B07BAD14F
:1056900042E7002F3BD10134E0B201284ADDFF2C64
:1056A000BDD00726ED186D082E40A7E70723574DFC
:1056B000241A35401E40A1E7002C1BD1002D6ED1CD
:1056C000002B00D19AE00A001D003C0024E7013FB6
:1056D000002F00D158E7FF2C00D04AE7A7E75E1B58
:1056E000894676E7002D1CD10A00FF281FD0040050
:1056F0001D0011E7002D5DD1002B17D18023002262
:10570000DB03FF260FE70A00FF2600230BE7002C30
:1057100021D1002D66D1FF28E9D11D0087E70123A3
:1057200052E77A1CA7D0FA43FF2899D10A001D003E
:10573000FF24F1E6002E21D1002D4FD0002B4CD0BC
:10574000ED186B019ED5314B07362E4001241D40CC
:1057500054E7012318E7FF28DFD08024E4047F42C8
:1057600025431B2F4DDC2026F61B2C00B540FC40AA
:105770006A1E95412543ED18040006E7002DCCD0A4
:10578000002B00D153E780216046C903084203D0B3
:105790004046084200D11D000121114047E7002B7F
:1057A00000D1B9E6EA1A500125D507265D1B2E4027
:1057B000894623E7FF24002B00D1ADE68022604616
:1057C000D203104204D04046104201D11D00894648
:1057D00001224B46FF241A409EE62B00DD080A00FA
:1057E00000249DE67A1CC6D0FF43FF28B9D11D00D6
:1057F0001DE701253FE7151E00D044E700220023E6
:1058000091E60125B7E7C046FFFFFF7DFFFFFFFBE5
:10581000F8B557464E464546DE464402E0B54600DA
:105820008846640A360EC70F002E63D0FF2E24D0A0
:105830008023E400DB041C43002399469B467F3E03
:10584000434642465D02D20F5B006D0A1B0E904636
:10585000924665D0FF2B55D080220021ED00D20466
:105860007F3B1543F61A43464A467B400F2A00D930
:105870008DE06D48920082589746002C54D1082341
:105880009946063BFF269B46DAE700255346022948
:105890001BD0032900D1BFE0012928D030007F3080
:1058A000002820DD6A0704D00F222A40042A00D0F5
:1058B00004352A0103D530005C4A80301540FE28AB
:1058C00003DCAC01640AC2B201E0FF2200246402DE
:1058D000D205600ADB07104318433CBC904699464A
:1058E000A246AB46F8BD0122101A1B287CDD00221F
:1058F0000024ECE7002C1DD104239946033B00262D
:105900009B469DE7FF3E002D20D1022143464A469B
:105910007B400A430F2AD8D84548920082589746C0
:10592000002D19D10121F1E70C239946093BFF26EF
:105930009B4685E7200000F0E3FC7626431F9C4051
:1059400000237642361A99469B4679E74A46032356
:105950001A439146032186E7280000F0D1FC431F3B
:1059600036189D40763600217DE780240023E4032D
:10597000FF22ACE700258023DB031C4228D01D4218
:1059800026D12B435C02640A4346FF229FE7620153
:105990006C01A24224D21B210025013E01271000E8
:1059A0006D005200002801DB944201D8121B3D43D8
:1059B00001390029F3D11400621E944125436DE79B
:1059C000BA46594625005346022900D061E77CE7D4
:1059D0008023DB031C436402640A3B00FF2276E75A
:1059E000121B1A210125D9E79E362A00B5402C004A
:1059F000C240651EAC411443620704D00F2222400E
:105A0000042A00D00434620103D4A401640A0022F1
:105A10005DE7012200245AE78024E4032C4364025A
:105A2000640AFF2253E7C046606A0000FFFFFFF7E9
:105A3000A06A000070B542004E024C0045026D0A9B
:105A4000120EC30F760A240EC90FFF2A0FD0FF2CA7
:105A500011D00120A24200D070BDB542FCD18B42D2
:105A60000DD0002AF8D12800451EA841F4E70120F6
:105A7000002DF1D1EBE70120002EEDD1E9E7002068
:105A8000EAE7C04670B54A004E02450244006D0A7E
:105A9000240EC30F760A120EC90FFF2C15D0FF2A51
:105AA0000ED0002C15D1002A01D1002E1CD0002DC3
:105AB00014D08B4227D00220013B1840013870BD22
:105AC000002EEED002204042F9E7002DFAD1FF2A45
:105AD0000ED0002A0ED1002EEDD00BE001230139AB
:105AE000994308000130EAE70020002DE7D0E2E703
:105AF000002EE7D18B42DED1944205DD0221581EF3
:105B000008400138DBE70024A24204DCB542D2D8C9
:105B10000020B542D3D2581E012398430130CEE76E
:105B200030B5420044024D02C30F4800640A120E11
:105B30006D0A000EC90FFF2A12D0FF280CD0002AD0
:105B400012D1002819D1002D17D1002C2BD0022002
:105B5000013B1840013826E0002DF0D0022022E061
:105B6000002CFBD1FF281FD000281FD1002D1DD1F4
:105B70000220013B1840013815E0002C0ED08B426A
:105B8000E5D10022904204DCAC42E0D80020AC42D7
:105B900009D2581E01239843013004E00123013942
:105BA00099430800013030BD002DD7D18B42CED1B2
:105BB0008242E7DD0221581E08400138F3E7C04663
:105BC000F0B54E4657464546DE46E0B543025B0A11
:105BD000450083B00F1C99462D0EC60F002D57D0DF
:105BE000FF2D24D08020DB00C00418430023814611
:105BF0009A469B467F3D7C027A00FB0F640A120E98
:105C0000984623D0FF2A4BD0E30080240020E404F0
:105C10007F3A1C43AD186B1C4746019353467740AF
:105C20003A000F2B48D87D499B00CB589F46002B4C
:105C300000D085E008339A46063B9B467C027A00FA
:105C4000FB0FFF25640A120E9846DBD1002C00D012
:105C500090E0524601231A4392460120DBE74C466E
:105C600058461700022824D0032800D1CFE0002294
:105C7000002301284DD15802D205400AFF071043E6
:105C8000384303B03CBC90469946A246AB46F0BDB3
:105C9000002B5BD104239A46033B00259B46AAE7D1
:105CA000FF35002C60D1524602231A43924602204F
:105CB000B1E7FF220023DEE74B461B0C9C464B4618
:105CC0002604360C180461463300220C6446000C8E
:105CD00043434E435043544380191A0C12189642C2
:105CE00003D9802149028C4664441B041B0C100418
:105CF000C01883015E1EB341800E1843130C1B199C
:105D00009B0103431C00230179D5012362081C4039
:105D10001443019A7F32002A4DDD630704D00F231C
:105D20002340042B00D00434230103D53C4B019ABB
:105D30001C408032FE2ABCDCA3015B0AD2B29AE787
:105D40000C239A46093BFF259B4654E7180000F0B8
:105D5000D7FA4A46431F76259A4000236D42914662
:105D60002D1A9A469B4646E7524603231A4392460B
:105D7000032050E7200000F0C3FA431F2D1A9C4077
:105D8000763D002047E780230027DB03FF2272E7F0
:105D9000424666E74C463200584662E780234A4650
:105DA000DB031A4222D01C4220D123435B025B0A50
:105DB0004746FF225FE701239A1A1B2A21DC2300B2
:105DC0000199D3409E318C401A0023005C1EA341F0
:105DD00013435A0704D00F221A40042A00D0043378
:105DE0005A0111D49B015B0A002244E780234A46F2
:105DF000DB0313435B025B0A3700FF223BE701959D
:105E000087E70022002336E70122002333E78023BF
:105E1000DB0323435B025B0AFF222CE7E06A0000FE
:105E2000FFFFFFF7F8B54746CE464400C20F80B5E6
:105E300047024802400A8446664648007F0A240E0C
:105E4000F60025009046FB00000EC90FB146FF2862
:105E500000D185E001267140261A914257D0002ECC
:105E600043DD002800D07FE04946002900D1AAE0A8
:105E7000013E002E00D0F7E05B1A5A0100D48BE0FF
:105E80009B019C09200000F03BFA053884408542C4
:105E900000DDD3E0451B230020200135EB40451BEE
:105EA000AC40621E94412343072400251C4001227C
:105EB00041460A40002C04D00F211940042900D08B
:105EC0000433590100D480E00135ECB2FF2D00D03D
:105ED000A3E0FF2400235B02E405580AD207204315
:105EE00010430CBC90469946F8BD002E74D1601C3E
:105EF000C0B2012800DCA7E04A469C1A620100D526
:105F0000B6E0002CBED1002200240023E3E7002EDF
:105F100000DC85E0002846D0FF2C49D0802248468E
:105F2000D2041043814601221B2E09DC20204C465E
:105F3000801B84404A462000F240441EA041024398
:105F40009B185A0128D50135FF2D00D1A8E0012268
:105F5000072494491A405B080B4013431C40A6E7F2
:105F6000002E00D078E775E7FF2C54D080224946F8
:105F7000D2041143894601221B2E09DC2021484608
:105F8000891B88404A460100F240481E81410A436D
:105F90009B1A5A0100D573E7012241460A4059076E
:105FA00000D089E711E04846002858D1FF2C0CD1D9
:105FB000DB08002B00D18CE78020C00303435B0289
:105FC0005B0AFF2487E7FF2C25D0DB08FF2DF0D0EC
:105FD0005B025B0AECB27EE7002C4DD0FF2818D0A4
:105FE0008024E404724223431B2A00DDC4E01C0029
:105FF0002025D440AA1A93405A1E934123434A466F
:106000000500D31A884638E7721CF8D0F243FF28FF
:10601000EAD10A004B46FF25D7E79B015B0A5AE706
:10602000002E41D1651CE9B2012945DDFF2D00D1CB
:106030004FE707244B445B081C4038E707225A4BC4
:106040002D1A2340144032E7002C1DD1002B7AD1A9
:106050004B46002B00D191E00A000025B5E7013E38
:10606000002E19D14B446CE7FF2C84D1FF25ACE7FF
:106070004A468846D41A05E7002BC5D10A00FF28F6
:10608000C8D005004B46A0E7002B49D14B46002B5A
:1060900077D00A00FF2598E7FF2C00D043E787E779
:1060A0000A00FF24002316E7002C15D1002B57D13E
:1060B000FF28E6D14B467BE7002C20D1002B57D0A0
:1060C0004946002953D04B445A0168D50724364A23
:1060D0001C4001251340EAE6FF28EBD08022D204C1
:1060E000764213431B2E53DC2025AD1B1A00AB4018
:1060F000F2405C1EA34113434B44050021E7002BF3
:10610000D8D04946002900D152E78021C9030F4267
:1061100000D14DE76046084200D049E74B4647E7CB
:106120004846FF25002800D14FE78022D2031742BE
:1061300004D06046104201D14B46884601224146B8
:10614000FF250A4041E7484600281FD01A1A50018F
:1061500020D54A460724D31A1C4088460025A6E6C7
:10616000741CC9D0F643FF28BCD14B4620E79946A2
:106170004B460025DB082BE7012340E700220023E4
:10618000A9E680230022DB03FF24A4E600251CE708
:106190000123B1E7002AF1D013000025FCE6002519
:1061A000FAE6C046FFFFFF7DFFFFFFFB4102420012
:1061B000C30F490A120E00207E2A0DD99D2A0CD841
:1061C000802000040143952A0ADC9620821AD140DF
:1061D0004842002B00D108007047034A9818FBE79B
:1061E000963A9140F4E7C046FFFFFF7F70B5002864
:1061F0003DD0C317C5185D40C40F280000F080F8DB
:106200009E22121A962A07DCD2B2082833DD0838FB
:1062100085406802400A23E0992A0BDD0523290006
:106220001B1AD94003001B339D402B005D1EAB4160
:1062300019430D00052801DD431F9D402B000F4928
:106240000B406E0709D00F263540042D05D00433CE
:106250005D0102D59F220B40121A9B01580AD2B24F
:106260004002D205400AE4071043204370BD0024D9
:1062700000220020F4E76802400AF1E7FFFFFFFB7D
:1062800070B5041E34D000F03BF89E22121A962AF4
:1062900007DCD2B208282EDD083884406002400AAC
:1062A00021E0992A09DD030021001B3399404B1E90
:1062B000994105231B1ADC400C43052801DD431FCF
:1062C0009C4023000D490B40650709D00F252C4049
:1062D000042C05D004335C0102D59F220B40121A16
:1062E0009B01580AD2B24002D205400A104370BD49
:1062F00000220020F7E76002400AF4E7FFFFFFFBFF
:106300001C2101231B04984201D3000C10391B0AE5
:10631000984201D3000A08391B09984201D30009A9
:10632000043902A2105C40187047C0460403020200
:1063300001010101000000000000000070B500260E
:106340000C4D0D4C641BA410A64209D1002600F090
:1063500011F90A4D0A4C641BA410A64205D170BD68
:10636000B300EB5898470136EEE7B300EB58984777
:106370000136F2E77C0000207C0000207C00002039
:106380009000002010B5034B0100186800F06AF877
:1063900010BDC0461800002010B5034B010018685E
:1063A00000F016F810BDC04618000020002310B5FC
:1063B0009A4200D110BDCC5CC4540133F8E703000D
:1063C0001218934200D1704719700133F9E70000A9
:1063D00070B50500002910D00C1F2368002B00DACF
:1063E000E418280000F0B5F81D4A1368002B05D109
:1063F00063601460280000F0ADF870BDA34209D9B5
:10640000216860188342F3D118685B6841182160E5
:10641000EEE713005A68002A01D0A242F9D91968A0
:106420005818A0420BD120680918581819608242E8
:10643000E0D110685268411819605A60DAE7A0424A
:1064400002D90C232B60D5E721686018824203D162
:10645000106852684118216062605C60CAE7C046FB
:10646000700E0020032370B5CD1C9D430835060037
:106470000C2D1ED20C25A9421DD8300000F069F861
:10648000254A14682100002919D1244C2368002BC7
:1064900003D1300000F044F820602900300000F003
:1064A0003FF8431C2BD10C233000336000F052F82E
:1064B00003E0002DDFDA0C233360002070BD0B6891
:1064C0005B1B19D40B2B03D90B60CC18256003E0A0
:1064D0004B688C420DD11360300000F03BF8200077
:1064E00007220B30231D9043C31AE7D05A42E250D3
:1064F000E4E763600C00EFE70C004968C3E703239F
:10650000C41C9C43A042E1D0211A300000F008F8DE
:10651000431CDBD1C7E7C046700E0020740E00207C
:10652000002370B5064C05000800236000F014F845
:10653000431C03D12368002B00D02B6070BDC046E4
:106540007C0E00200023C25C0133002AFBD1581EC0
:106550007047704770470000044A1368002B00D151
:10656000034B1818106018007047C046780E0020C2
:10657000800E0020F8B5C046F8BC08BC9E467047A7
:10658000F8B5C046F8BC08BC9E46704733373500A6
:106590003338320033393600343033003432380087
:1065A000343338003434380034383500353039006D
:1065B00035323200363337004572726F72206F63A6
:1065C000637572656421006973466174616C3A2079
:1065D000006572726F72436F64653A200053746194
:1065E0007475733A20000D0A00425554544F4E5FA3
:1065F0004F4E453A2000425554544F4E5F54574F2A
:106600003A200053454C5F5357495443483A2000C1
:106610004D6F76654C656674004D6F76655269679F
:1066200068740053746F70005553420055415254C2
:10663000006265666F726500636C6F636B73006107
:10664000667465720077616974696E67007465735A
:1066500074696E6700000000010000001700000070
:106660000300000004000000FF00FFFFFFFFFF0029
:1066700001000000160000000300000004000000FC
:10668000FF00FFFFFFFFFF00010000000A00000005
:10669000080000001C000000FF00000500050A00C3
:1066A000010000000B000000080000001C000000BA
:1066B000FF00010501050B000000000007000000BD
:1066C000080000001C000000070001010101FF009C
:1066D0000000000005000000080000001C00000091
:1066E000050001000100FF000000000004000000A0
:1066F000080000001C000000040000000000FF0073
:106700000000000006000000080000000400000077
:106710000600FFFFFFFFFF00000000001200000066
:106720000800000004000000FF00FFFFFFFFFF0063
:106730000000000014000000080000002C00000011
:10674000FF0002000200040000000000150000002D
:10675000080000002C000000FF00030003000500FB
:106760000000000010000000020000001C000000FB
:10677000FF00000200020000000000001300000003
:10678000020000001C000000FF0001030103FF00E5
:1067900000000000110000000200000004000000E2
:1067A000FF00FFFFFFFF01000000000002000000EB
:1067B00001000000060000000000FFFFFFFFFF00D7
:1067C00001000000020000000100000004000000C1
:1067D0000A00FFFFFFFF0200000000000B000000A6
:1067E000010000002C000000130003000300FF0064
:1067F000000000000A000000010000002C00000062
:10680000120002000200FF0001000000080000006A
:1068100003000000060000000200FFFFFFFFFF0072
:106820000100000009000000030000001800000043
:106830000300010401040900000000000900000039
:1068400001000000040000001100FFFFFFFFFF0037
:10685000010000000300000001000000040000002F
:106860000B00FFFFFFFF0300000000000C00000012
:106870000200000000000000FF00FFFFFFFFFF001C
:10688000000000000D0000000200000000000000F9
:10689000FF00FFFFFFFFFF00000000000E000000F0
:1068A0000800000000000000FF00FFFFFFFFFF00E6
:1068B000000000000F0000000200000000000000C7
:1068C000FF00FFFFFFFFFF00000000001B000000B3
:1068D0000800000000000000FF00FFFFFFFF0F00A6
:1068E0000000000008000000080000000400000094
:1068F000FF00FFFFFFFFFF00000000001C00000082
:106900000800000004000000FF00FFFFFFFFFF0081
:106910000000000016000000020000001C00000043
:10692000FF00000400040600000000001700000043
:10693000020000001C000000FF0001040104070029
:106940000000000018000000060000000000000029
:10695000FF00FFFFFFFFFF00000000001900000024
:106960000600000000000000FF00FFFFFFFFFF0027
:1069700000000000000000007D320000B53400007F
:10698000793200009934000079340000F1340000BD
:10699000D534000075320000773200006534000005
:1069A00015350000A734000091320000F9310000D5
:1069B000BD33000021320000F0FFFFFF00000000A7
:1069C00055340000AD3300003D3500006532000055
:1069D0000000000000000000713700007743000055
:1069E0004F4300005B430000D9350000DB35000059
:1069F000C936000041726475696E6F204E414E4F7A
:106A000020333320496F5400040309044172647534
:106A1000696E6F204C4C430012010002EF020140EE
:106A20004123578000010102030100000000000023
:106A3000000000005D490000354B00005F4500008C
:106A4000AB45000059450000F94900006F450000C2
:106A50004945000009460000874500004545000003
:106A60008E590000CA580000EE5800008C580000F3
:106A7000EE5800006A590000EE5800008C580000E3
:106A8000CA580000CA5800006A5900008C5800001B
:106A9000C0590000C0590000C059000076590000DC
:106AA000CA580000CA580000EE5800008A5800007A
:106AB000EE5800006A590000EE5800008A580000A5
:106AC000CA580000CA5800006A5900008A580000DD
:106AD000C0590000C0590000C0590000745900009E
:106AE000B85C0000625C0000625C0000905D000029
:106AF0005E5C00005E5C0000865D0000905D000052
:106B00005E5C0000865D00005E5C0000905D000041
:106B1000945D0000945D0000945D00009C5D0000A9
:046B20000000000071
:106B2400FFFFFFFF00C2010000000800FFFFFFFF9E
:106B340040420F00FFFFFFFF1C0000200000000088
:106B44000000000000000000000000000000000041
:106B54000000000000000000000000000000000031
:106B64000000000000000000000000000000000021
:106B74000000000000000000000000000000000011
:106B84000000000000000000000000000000000001
:106B9400000000000000000000000000DD200000F4
:106BA400DD210000092F0000C5350000D943000095
:046BB400B520000008
:0400000300004C614C
:00000001FF
