:1020000000800020254200000D4200000D4200002B
:1020100000000000000000000000000000000000C0
:102020000000000000000000000000000D42000061
:1020300000000000000000000D4200007942000096
:102040000D4200000D4200000D4200000D42000054
:102050000D4200000D4200000D4200001142000040
:102060000D4200000D4200000D420000B13500009D
:10207000A13500000D420000913500000D42000026
:102080000D4200000D4200000D4200000D42000014
:10209000000000000D4200000D4200000D42000053
:1020A0000D4200000D4200000D4200000D420000F4
:1020B0000000000010B5064C2378002B07D1054B1B
:1020C000002B02D0044800E000BF0123237010BDA4
:1020D0000802002000000000ACC00000044B10B556
:1020E000002B03D00349044800E000BF10BDC046E8
:1020F000000000000C020020ACC00000F0B5012779
:1021000085B00390051C0AA806780BA800780193F7
:102110000290E8B203AD6D783A40A9400223BA407C
:102120000F4CC00100190468AE4021430160411901
:1021300040310C789C4322430A70019B0A781F406F
:1021400004239A431300BF003B430B7003691E43F3
:102150000661029B426AAB401343436205B0F0BD87
:102160000044004110B50400C06A01F02FFBA06CD0
:102170000368DB6A984710BD104A114B116A0B4384
:102180001362104B104A5A605A78D209FCD10F4A98
:102190005A805A78D209FCD10D4A5A805A78D2090D
:1021A000FCD10C4A5A605A78D209FCD10A4A5A80AA
:1021B0000A4A5A805A78D209FCD17047000400407C
:1021C000FC310000000C0040040703001A4400002A
:1021D00005440000050603001C4500001D450000E5
:1021E000F02110B5194A4900515C194BFC201970B7
:1021F000F221490051584000597000219970105C3B
:102200001478D870FE2040001058597118711000D1
:10221000303000789871506B5C72D871012054682E
:1022200018729C72D9729973117E1973D16959739E
:10223000084B09495871196003211971110048317F
:10224000064B09781970D26C5A7010BD60B8000046
:1022500024020020D802002000127A00CC020020C4
:1022600010B5054C0A000100200001F08AFE200094
:1022700001F0C1FB10BDC0462803002010B5054C7D
:102280000A000100200001F08CFE200001F0B3FBE9
:1022900010BDC0462803002010B5044C01002000EA
:1022A00001F01BFE200001F0A6FB10BD280300205A
:1022B00010B50248FFF7F0FF10BDC046C2B50000E0
:1022C00010B5FFF7CDFFFFF7F3FF10BD10B50A21E2
:1022D000FFF7C6FFFFF7ECFF10BD10B5FFF7DCFFFF
:1022E000FFF7E6FF10BD0000F7B5524D01262F00A5
:1022F0008124514B514A3133127801931B78504954
:10230000D2019B185B181A78303732431A703B7829
:102310004C4863435B181A7832431A70FFF7DDFFAD
:102320004948FFF7DAFF2B00397831331B78CA01AF
:1023300043489B181B184C431A78241832431A70D0
:102340002378424833432370FFF7C7FF4048FFF725
:10235000C4FF3A4B3F4C1978019BC90118784310D0
:102360005A18121912780524D2B2304200D04B34D8
:1023700038485B1822431B181A702B003135303354
:102380001B782C78DB016110CA181218127805200E
:10239000D2B2E40700D54B30CB182E4902435B186C
:1023A0001A702D48FFF799FF02222C4BDA639A68C6
:1023B0005206FCD42A4A1A649A681206FCD40222F5
:1023C00019680A431A609A689207FCD42548FFF7F7
:1023D00084FF9822244B52011A80DA7BD209FCD167
:1023E000224C02325C8019880A431A80DA7BD209B7
:1023F000FCD11F48FFF771FF98221E4B52011A8033
:10240000DA7BD209FCD15C80198802320A431A8037
:10241000DA7BD209FCD11848FFF75FFF0A210720B9
:10242000FFF74EFF0122154B15481A70FFF755FFB5
:10243000F7BDC04680020020340200206402002064
:102440004044004128B500002CB5000030B5000024
:1024500034B500003044004138B50000002000428F
:10246000EE0400003CB500000030004210C0FFFF49
:1024700040B500000034004244B50000D402002002
:1024800048B50000E121F0B5490287B0F34801F0FA
:1024900081FAF34C4C220021200006F02EFCF14B77
:1024A000F14AA360F14B0120A361E3612362F04B89
:1024B000F04E636202231370EF4B2075E362CC236E
:1024C0005B00F15C0433F2582300002732331F70A5
:1024D000230030331970230031331A703300F43382
:1024E0001A683300F0331B78E4490B70230034334F
:1024F0001A70230035331870E14BE24A1B6F1F300E
:102500000593B4235B00F35C13706A462300127DCD
:1025100037331A709C235B00F25CD94B1B6CDA4991
:10252000059323003B331F70230039331A706A462A
:102530002300127D3A331A7090235B00F25CD04B7B
:102540009B6A059323003E331F7023003C331A70AF
:102550006A462300127D3D331A703300FF335A7AE6
:10256000C74B1B690593230041331F7023003F3382
:102570001A706A462300127D40331A703300C43348
:102580001A683300C0331B780B70230043331A7072
:1025900001F0FEFE03230500029308330093019728
:1025A00002330C22E16A00F0E3FEA564B74D4C2231
:1025B0003900280006F0A1FBB54B03226B622B000B
:1025C00028331A70B34B0120EB62C02328755B00DF
:1025D000F15C0433F2582B0032331F702B00303380
:1025E00019702B0031331A703300DC331A68330052
:1025F000D8331B78A8490B702B0034331A702B008A
:1026000035331870A8239E495B00F35C8A6DA3499B
:102610001F300B702B0037331A70330078331A7861
:102620002B003B331F702B0039331A702B00F16FD6
:102630003A331970330060331A782B003E331F7021
:102640002B003C331A702B00716E3D331970330030
:1026500090331978330094331A682B0041331F707C
:102660002B003F3319702B0040331A703300A8360B
:10267000AC331A688A4933780B702B0043331A70D5
:1026800001F086FE032206230600029200930197C2
:10269000013B0132E96A00F06BFE784AAE64774B89
:1026A0000197009750781B7800020343907801212E
:1026B000000418433A003B00FFF720FD714A0197E0
:1026C00000979078E38E000418433A003B00012104
:1026D000FFF714FD6C4A019700976B4B90781B88AD
:1026E000000418433A003B000121FFF707FD6A4A46
:1026F00001970097684B50781B780002034390784D
:102700000121000418433A003B00FFF7F7FC634A3D
:10271000019700979078EB8E000418433A003B0035
:102720000121FFF7EBFC5E4A019700975C4B907824
:102730001B88000418433A003B000121FFF7DEFC30
:102740000120584E019000907078337800020343C6
:10275000B07839000004184301231A00FFF7CEFCBB
:102760000120019000903079F378000203437079E2
:1027700039000004184301231A00FFF7BFFC0120B1
:1027800001900090F079B37900020343307A390068
:102790000004184301231A00FFF7B0FCFFF7ECFC1C
:1027A000FFF7A2FD304B404E1B781C339B009F511E
:1027B000B3689B02DB0FFBD12A00283212781C324F
:1027C0009200B350B3685B02FCD4244801F0EAF8ED
:1027D0000028FAD03548FFF780FD012200211F486C
:1027E00001F0E8FC2B00002800D12300304F3148D5
:1027F0003B60FFF751FD3B682F4828331B78022BC5
:1028000000D12E48FFF769FD2000FFF7ABFC280040
:10281000FFF7A8FC23007E22012528331B781C33F8
:102820009B00F2500D4801F0BDF80028FAD00B488B
:1028300001F010FB2300210035331B78343198421E
:1028400043D1230033331B781D4ADB019B180A78E0
:10285000290091400A00186834E0C046280300208F
:1028600034020020000060405C0200200AD7A33B35
:102870000030004260B80000FC0900206702002020
:102880005CB900006A02002076020020800200206D
:1028900000340042F4090020B3020020B6020020F8
:1028A000C2020020240200200020004297B600004F
:1028B000D0020020A0B600008FB6000092B6000043
:1028C0001800006002431A60ACE70978034ACB01A4
:1028D0009B182A0018688A40F4E7C046140000607C
:1028E000F8B50600FFF7E4FC1D48FFF7F6FC1D48AD
:1028F000FFF7D2FC3000FFF7E9FC1B48FFF7CCFCE8
:102900001A4D1B4F2B7D9B00D859FFF7E6FC194849
:10291000FFF7C2FC184C237D9B00D859FFF7DDFC64
:102920001648FFF7B9FC6B7D154F9B00D859FFF790
:10293000D4FC1448FFF7B0FC637D9B00D859FFF727
:10294000CCFC114A137EDB07FCD52B7D217D1B01BE
:102950000B439362002E02D007236B756375F8BD9D
:102960007BB500008AB5000094B500003402002059
:10297000E8B500009FB5000080020020A8B5000067
:10298000C8B50000B6B5000000080042836CF0B581
:1029900019000500494A8DB004925A6804AC62607F
:1029A0001A7A103122725A7A2F0062729A7A433759
:1029B000A272DA7AE2721A7B227308AA41C941C272
:1029C0001A7E290022765A7E443162769A7EDB692D
:1029D000A2760122E3613B78019109789A400029AF
:1029E00058D02B00C02142331B78C905DB015B188E
:1029F00099690A439A61002302AA13711300012204
:102A00002F495A71039A2000029100F047FDAA2134
:102A1000200000F022FCAA210600200000F01DFC8E
:102A2000AA21200000F019FC3204360216430643A6
:102A3000200000F089FC019B1B78002B32D12B0079
:102A4000C022012042331B78D205DB019B183A7863
:102A50009969904002000A439A6101243700274097
:102A600015D11848FFF718FC02213000FFF706FCCB
:102A70001548FFF711FC0A213800FFF7FFFB03237D
:102A800012482B75FFF729FC2000FFF729FF3000C3
:102A90000DB0F0BDC021DB01C9055B1859690A43BF
:102AA0005A61A8E7C0233978DB05CA01D21801238F
:102AB0008B40506903435361CFE7C046D0B7000055
:102AC000400D03005EB5000065B5000071B5000063
:102AD00070B50500FFF75AFF402304006A6A517978
:102AE0000B4353716A6A138A132BFCD92800FFF732
:102AF0004DFF6642664186422BD0244EA4096B6886
:102B00006640F01A04F0D2F90021041C03F0FCFA2C
:102B100000280DD08F21201CC90503F0F5FA0028EC
:102B200010D1DC216E608905201C03F0A9FE70BD68
:102B30001749201C03F0D4FA0028F2D09020211C61
:102B4000C00502E09021201CC90503F0CBFF041C46
:102B5000E7E71048FFF7A0FB02212000FFF78EFBFC
:102B60000D48FFF799FB30000221FFF787FB30008B
:102B700002216040FFF782FB0848FFF7AEFB042309
:102B800000202B75FFF7ACFED1E7C046FFFF010028
:102B9000000080C74DB500004CB5000054B50000E2
:102BA000F7B5436A0400188A80B204F0C9F90190AD
:102BB0002000E568FFF78CFF011C281C03F0EEFAEB
:102BC000FC21E368A768051C89050198009303F0C0
:102BD00057FE391C03F054FE291C061C009803F014
:102BE000DDFA8021C90503F07DFF011C301C03F0D4
:102BF00047FE216903F0D2FA391C061C2061281C0B
:102C000003F070FFA16903F03BFEE169071C301C73
:102C100003F036FE011C381C03F0C0FA0099061CB4
:102C2000281C03F05FFF019903F052FC216A03F0B6
:102C300027FE011C301C03F0B1FA0021061C0127FD
:102C400003F04EFA002800D1071C22002100353283
:102C50001278FFB23431974229D12300C022333396
:102C60001B78D205DB019B180122097898698A40FC
:102C700002439A610021301C03F046FA002802D179
:102C800080231B06F6180F49301C03F029FA002890
:102C900000D10C4E230028331F78301C03F048FA73
:102CA0003B00094A1C339B009850E560F7BDC023E8
:102CB0000978DB05CA01D21801238B405069034310
:102CC0005361D7E700C09D440020004213B505F0D2
:102CD00015FF0B000221054C02000091200001F0BD
:102CE00023FA200000F087FE13BDC0462803002011
:102CF00010B5FFF7EBFFFFF7DBFA10BDF7B5C04CDF
:102D00002368587D0138062800D969E103F018F8D6
:102D10005E0007002901980114021C023C020124F4
:102D2000B8498D790F7AEB010193019AB64BD3180C
:102D300022001E68CB799A40B14B94461A686546CA
:102D4000130038331878013B009020001B782E4088
:102D50009840B74200D1C7E00D78AB4EED01AD19F8
:102D600026002F688D78AC464D78AE40374016006F
:102D70002836BC456AD10099002961D11300363349
:102D80001B78A249DB015B1819680843186013001F
:102D900010002100343335301B780078994000282A
:102DA00051D033321378994ADB019B181A6898483E
:102DB0001143BD221960337896491C339B00CA50D9
:102DC000FFF78BFA642001F09BFAA9E701252E009A
:102DD0008C498D4A0B7888784978DB018E409B18A6
:102DE0001A6823683240904227D028331B788A48DB
:102DF000022B00D08948FFF74FFA23685A6AD37B29
:102E0000DB09FCD18648FFF747FA2068FFF760FE30
:102E10002768011C061CF86803F0C0F9F860301C34
:102E2000FFF754FF7F48FFF737FA2368D868FFF7AA
:102E30005FFF642001F064FAC9E702225A75CFE00F
:102E4000DB0179499FE7DB01774AAEE7CF786E4D2A
:102E5000FF017F194D790979AC4625008D403F6807
:102E600000992F40BC452AD1002922D113003633C6
:102E70001B786649DB015B1819680843186013006A
:102E800010002100343335301B7800789940002839
:102E900012D1333213785D4ADB019B181A686348FC
:102EA0001143BD22196033785A491C339B00CA5024
:102EB00086E7DB015C49DEE7DB015B4AEDE70029E1
:102EC0000FD036321378514ADB019B181A685149EA
:102ED000104300221860337855481C339B00CA50B9
:102EE0006EE7DB01504AF0E7009C002C31D0130064
:102EF000C02436331B78E405DB011B199C69204391
:102F00009861C0230198DB05C51860462B6A034011
:102F10009F4265D1C0200B78C005DB011B18012042
:102F200006004D781B6AAE408C7833409C4257D1E6
:102F3000C024CB78E405DB011B194C7909791B6AA5
:102F40008840184084424BD100239360032353757B
:102F500046E0C024DB01E4051B195C69204358618D
:102F6000CFE71A0018000121373238301278007884
:102F70009140002835D01A00C02036321278C005A2
:102F8000D20112189069014391612A4A517D0329A7
:102F90002FD12949497D03292BD12848FFF79DF9D5
:102FA0000120184BD9799A7988401749D2011C7AA7
:102FB0005218116801408C42FBD1C0211A78C90512
:102FC000D201521801215C78126AA14098780A4017
:102FD000904205D1C022DB78D205DB019B181B6A29
:102FE000F7BDC020D201C0051218506901435161DC
:102FF000CBE728331978022900D00F4A2260EFE787
:10300000D002002024020020200000601800006090
:103010003DB60000002000422BB6000024B60000A0
:1030200030B6000035B600001400006046B600005F
:1030300050B60000340200208002002055B6000087
:103040001A00180001213732383012780078914088
:1030500000282BD0C02236331B78D205DB019B1809
:103060009A6911439961694B1B78002B32D0684EE5
:10307000300000F097FC0228F9D9300000F0EAFE99
:103080000700300000F0E6FEFFB20500300000F05F
:10309000E1FEAA2FA4D12D0228435E4B80B29842B4
:1030A0000CD105235C4A53755C4A50E7D301C0221A
:1030B000D2059B185A6911435961D4E7584B98427D
:1030C00001D10723EEE70422236800201A75FFF7D9
:1030D00007FC85E7C025534BED055A7A9C7AD2014F
:1030E0005219116A01221600A640D87A314088424E
:1030F000D7D01600DC799979A640C9014919096A27
:10310000187A3140884200D16AE716005C78197855
:10311000A640C9014919096A987831408842D0D03F
:10312000D97858791B79C9019A404919096A0A4026
:10313000904200D054E7C4E75A6A022311880B4337
:1031400013802368062279E61A001800012137321D
:10315000383012780078914000280DD11A00C02034
:1031600036321278C005D20112189069014391617C
:103170001800FFF715FD33E7C020D201C005121873
:10318000506901435161F3E7234801220300010024
:10319000373338311B7809789A40002925D103004C
:1031A000C02136331B78C905DB015B1899690A43D6
:1031B0009A611A4C012223002100373338311B78E1
:1031C00009789A40002918D12300C02136331B7892
:1031D000C905DB015B1899690A439A610023836082
:1031E000A360FFF7DDFC2000C3E7C021DB01C905B8
:1031F0005B1859690A435A61DBE7C021DB01C90545
:103200005B1859690A435A61E8E7C046D4020020B6
:1032100028030020A1780000340200208002002052
:103220004AA800002402002070B506000C008D188A
:10323000AC4207D0336821789B68300098472070F3
:103240000134F5E770BD7047704710B50400406861
:1032500000F0BCFA0023237610BD10B5406800F0E2
:10326000DAFA10BDF8B5050040680C0000F0CEFA9F
:103270002B68E7B2260A9B68012810D13900280084
:10328000FF2798472B68BC4304439B683100280004
:103290009847030220003840184380B2F8BD31003F
:1032A00028009847FF262B680002344004439B689F
:1032B000390028009847B4432043EEE710B50400D6
:1032C00001F06AF8200010BD10B54B1C0BD010297E
:1032D00009D0EFF3108472B6102905DD022343767E
:1032E000002C00D162B610BD0123427E1A43427603
:1032F00018224A430449891816228A569340C26903
:103300001343C361ECE7C04660B800004B1C17D004
:10331000102915D0437E9B0712D4EFF3108272B6AA
:1033200018234B430749C9180123897D49B28B40B3
:10333000C1699943C16100D14176002A00D162B6CA
:103340007047C04660B80000437E002B05D09A0746
:1033500004D5837E002B00D062B67047DB07FCD516
:10336000C369024A9BB2D360F7E7C0460018004029
:10337000F7B508AC277809AC26780AAC25780D4C4F
:10338000019308340460012300244375046104752B
:103390000476A14205D1084B084A3B21084805F0B4
:1033A0001DFC6B461B794772C67205734160027241
:1033B0008372FEBDC8B7000052B7000004B8000019
:1033C00063B70000037E002B04D143768376C3618C
:1033D00001330376704700007FB5036902AE040035
:1033E0000D00029172608B4203D1828AB3889A42A7
:1033F00026D0200006223100103005F075FC6068F0
:1034000000F0FBF97379E17A013B581E8341227B7E
:1034100000936068002300F095FA33790021013BA6
:10342000DBB2022B01D8074AD15C074B2A009D4230
:1034300000D91A00606800F0B1F9606800F0D3F9B3
:103440007FBDC0464FB70000001BB70070B51826FF
:103450000400FFF7B7FF33000821207A0D4D4343E6
:10346000EB18595601F088F933000821A07A43433C
:10347000EB18595601F080F90821607A4643AD19DE
:10348000695601F079F9044B200006CBFFF7A4FF41
:1034900070BDC04660B800002003002007B5437E21
:1034A00000910192002B07D09A070AD5EFF3108301
:1034B0005A425341837672B60099019AFFF78CFF06
:1034C00007BDDB07F8D5C369014A9BB29360F3E7F8
:1034D00000180040F7B500240125194B194A5D7109
:1034E0001A601C71184B1948083301930360184B7C
:1034F000184F4360184B194E03810D233A003100D9
:1035000045750461047583720A3B0476C4720373C3
:1035100002F004FC1248134B019A4360124B4575AC
:10352000038119233100026004613A00047583723B
:10353000163B05730476C37202F0F0FBF7BDC0467C
:103540002003002000093D00C8B70000E002002071
:10355000FC090020000000200C0B00004932000094
:1035600000030020040A00201716000010B50121F6
:103570001A2001F089F801211A2001F0D1F8012167
:103580001B2001F081F800211B2001F0C9F810BDBB
:1035900010B5024800F0BDFB10BDC0462803002056
:1035A00010B5024800F0B5FB10BDC0466C05002008
:1035B00010B5024800F0ADFB10BDC046B0070020BA
:1035C000F0B51F4985B01F4800F058F81E491F4844
:1035D00000F054F81E4D1F49280000F04FF81E4E11
:1035E0001E49300000F04AF81D491E4800F046F818
:1035F0001D4F1E49380000F041F801240323390013
:103600000093019423000022194800F0FBFA0023E4
:103610003100019300941D331E22164800F0F2FA87
:1036200019230393013B0293163B01930094143337
:1036300017222900104800F0A1FA05B0F0BDC046DD
:1036400000080042F4090020000C0042FC090020A0
:10365000040A0020001000420C0A0020001400425E
:1036600000180042140A00201C0A0020001C00421E
:10367000280300206C050020B00700200023037100
:10368000016070479446F0B59E1E721E96416246D8
:10369000056892072F6836063A4332432A600725A9
:1036A00005AC24780068A401294021434268002425
:1036B000022B00D05C03114321434160F0BD30B5C3
:1036C000C0250368AD031C6812052A402243C024AC
:1036D0000904A40221401143196003685A68144385
:1036E0005C6030BD0123026811680B4313600368FE
:1036F0001A68D207FCD4DA69D207F9D470470223DA
:10370000026811680B4313600268D3699B07FCD4FD
:1037100070470268137E9B0702D40379002BF9D10E
:10372000002303717047002203685A8370470368BF
:10373000187E4007C00F70470368187EC0097047A5
:10374000802302685B42117E0B4313767047036847
:10375000588B8007C00F704702230268518B0B43C0
:10376000538370470368187EC007C00F7047036813
:10377000188DC0B2704703681A7ED207FCD589B293
:1037800019850123037118007047012203689A7597
:103790007047012203681A757047000070B5012652
:1037A00004684B0833403140256809075B070B4329
:1037B0002B43236004685100034802F0CBFA013820
:1037C000C0B2207370BDC046006CDC0201230268E9
:1037D00011680B43136003681A68D207FCD4DA69D6
:1037E000D207F9D470470223026811680B431360B3
:1037F0000268D3699B07FCD470470368DA699207B3
:10380000FCD402211A688A431A607047036818685A
:103810004000C00F70470268936A5B0A5B0219435D
:10382000916203681A7E5207FCD5986AC0B270474D
:103830000368214A30B593422FD0204A93422FD0BB
:103840001F4A93422FD01F4A93422FD01E4A9342C1
:103850002FD01E4A93421FD10E2319220121032586
:1038600099401B48C024016099082B40AB40FC35AF
:103870009D4089000918A4000859A843C0259D400F
:103880002B0003430B518023DB011A43114B5A8059
:103890005A7852B2002AFBDB30BD09231422DDE73F
:1038A0000A231522DAE70B231622D7E70C23172267
:1038B000D4E70D231822D1E700080042000C004293
:1038C000001000420014004200180042001C004298
:1038D00000E100E0000C0040F8B504000F00160005
:1038E0001D00FFF7A5FF2000FFF7FCFE1C21BB0019
:1038F0000B4071072268090C0B4313608423226874
:103900009375012F1AD11021012E00D008390C4BCC
:1039100069431868C00002F01DFA072221680240BE
:103920008B895203DB04DB0C13438B812268030475
:103930009089DB0C400B400318439081F8BDC046D2
:1039400004000020F7B50600019308AB1F780D00B6
:103950001400FFF73BFF3000FFF76AFFC022240589
:1039600092031440BA070C2717433C43C027072291
:10397000BF022D0433683D4025431D60019B316823
:1039800013401A0080239B0213434B60F7BD0120B4
:103990007047000010B50368014A1B6A984710BDC4
:1039A00013040000FC30006A704787239B00C01896
:1039B000C36880204000C01A70470300FC331A6AB5
:1039C000002A03D0DB69C018007D70470120404207
:1039D000FBE710B504000069FFF784FE2200002316
:1039E000FC329361D361136287229200A418636052
:1039F000A360E36010BD872310B59B00C218D36895
:103A0000002BFCD10069FFF784FE10BD0368002B7A
:103A100002D162B6BFF36F8F7047F020014030399A
:103A2000484248417047F0231B011940802306207B
:103A30009B0099420AD00133FF330130994205D0EF
:103A4000802302385B00994200D0002070470F208D
:103A500001400020012903D00239481E8141481C41
:103A6000704700008B23F0B5182685B002919B00AB
:103A70000400C05C330008214343324D1700EB18AB
:103A8000595600F079FE304B0821E05C3300434387
:103A9000EB18595600F070FE2C4BE25C0393022A9F
:103AA00009D11133E05CFF2805D008214643AE1947
:103AB000715600F061FE8C26B600A05DFF2819D07B
:103AC000012100F0E1FD1822A35D21495A43AB56C4
:103AD000AD18DB0158188D21890060501D49012265
:103AE0005B188E218900635069688A408F218900A4
:103AF00062501A600122029B11002069FFF7ECFE60
:103B000039002000FFF78FFF390005002000FFF784
:103B10009EFF390006002000FFF77FFF3300009072
:103B2000290020690122FFF7ADFD0B4B2069E25C03
:103B3000039BE15CFFF7C3FD2069FFF7E0FD05B0E3
:103B4000F0BDC04660B800002D0200002F0200004A
:103B500018440041144400412E020000802210B598
:103B600004005200002105F0C8F823000022FC33B5
:103B70005A6020009A60DA6010BD0000F0B585B090
:103B80001D000AAB1B78040000930BAB1B781600DA
:103B900001930CAB1B780F0002930DAB1B780393C2
:103BA00000234360FA239B008360124B08330360B9
:103BB0001430FFF7D3FF20002130FF30FFF7CEFF96
:103BC0008B236A469B002761E6540B4B1278E55421
:103BD0000A4B2000E2546A46094B1279E2546A46C5
:103BE000127A0133E2546A46127B1033E25405B074
:103BF000F0BDC04678BB00002D0200002E02000080
:103C00002F020000F7B51D0008AB1B7804000093DD
:103C100009AB1B781600019300234360FA239B0035
:103C20008360114B0F00083303601430FFF796FFD9
:103C300020002130FF30FFF791FF8B236A469B0065
:103C40002761E654094B1278E554094B2000E254F1
:103C50006A46084B1279E2548C22313BFF3B9200BA
:103C6000A3541032A354FEBD78BB00002D02000007
:103C70002E0200002F020000F7B5EFF3108300932F
:103C80000123019372B680260200FF25019BFC32BE
:103C90007600013B5C1C0FD0D4685F1EB44209D093
:103CA00054680155546801342C405460D468013480
:103CB000D460EEE73B00EDE768460193FFF7A6FE10
:103CC000F7BD13B5EFF3108300930123019372B690
:103CD000019B5A1E0192002B15D00300FC33DA68B9
:103CE000002A0DD09A68845C9A680132D2B29A6038
:103CF000DA68013ADA606846FFF788FE200016BDF0
:103D000001246442F7E701246846FFF77FFE64421E
:103D1000F4E710B504000069FFF719FD002805D08D
:103D20002069FFF724FD2069FFF716FD2069FFF7E2
:103D3000FEFC00281BD02069FFF719FD01002000C0
:103D40001430FFF799FF8C239B00E35CFF2B0ED010
:103D50002300FC331A6A80235B009B1A092B06DCC4
:103D60008D238F229B009200E358A2581A6020698D
:103D7000FFF7F8FC00280ED087239B00E318DB68D0
:103D8000002B14D020002130FF30FFF79AFFC1B282
:103D90002069FFF7F0FC2069FFF7CEFC002805D072
:103DA0002069FFF7CDFC2069FFF7BDFC10BD20693D
:103DB000FFF7EFFCEFE70000F8B5040000690D0025
:103DC000FFF7D0FC87239B00E618002802D0F36899
:103DD000002B34D001278022F3685200934223D174
:103DE000EFF310833B4210D1174B5B68DB05DB0D13
:103DF000F1D0103B5BB2002B10DAF13A1340083BD4
:103E00009B08124A9B009B181B682069FFF7AAFCBD
:103E10000028E0D02000FFF77CFFDCE79B08C033E0
:103E20000B4A9B009B58F0E720002130FF3029000F
:103E3000FFF722FF2069FFF7A8FC0120F8BD290049
:103E40002069FFF798FCF8E700ED00E01CED00E0CA
:103E500000E100E010B504001430FFF732FF8C23BE
:103E60009B00E35CFF2B0ED02300FC331A6A8023F7
:103E70005B009B1A0A2B06DD8E238F229B0092008B
:103E8000E358A2581A6010BDF7B506000D000C00EB
:103E90008B180193019B671B9C4207D033682178E4
:103EA0001B683000984701340028F3D13800FEBD6C
:103EB00070B5040008000D0005F07EFD23680200C7
:103EC00029005B682000984770BD10B50B1E02D01A
:103ED000FFF7EEFF0300180010BD10B5FFF7F5FF68
:103EE00010BD10B503681B68984710BD10B5024996
:103EF000FFF7DEFF10BDC046C2B50000F0B58BB0C5
:103F00006B461500002205330600DA770800012D04
:103F100000D80A2509AC290001F0A2FFCAB213009B
:103F200037330700DBB2092902D813003033DBB284
:103F3000013C2370002FEED121003000FFF7C5FFB8
:103F40000BB0F0BDF8B506000C00151E04D10368D7
:103F5000C9B21B689847F8BD0A2A0CD100290BDAB0
:103F60002D21FFF7BEFF614207002A003000FFF756
:103F7000C5FF3818EFE7D2B221003000FFF7BEFFCF
:103F8000E9E710B5FFF7DEFF10BD10B5002A04D138
:103F90000368C9B21B68984710BDD2B2FFF7AEFFE5
:103FA000FAE770B50500FFF7F0FF04002800FFF7FF
:103FB0009DFF201870BD0000F7B51E00089B05008E
:103FC0001700002B01DA0223089331003A00330076
:103FD000380004F0D5FC4B49002814D101227400AC
:103FE00064085242484B3800210004F0C9FC002804
:103FF0000FD10122444B52423800210002F040F818
:10400000002806D141492800FFF752FF0400200094
:10401000FEBDE0223E4B12063800310002F03AF8B5
:10402000002801D03B49EEE7E0223B4B1206380066
:10403000310002F01BF80028F4D1002200233800E0
:10404000310002F013F8002814D02D212800FFF7CA
:1040500048FF80231B060090F618002400202F49FB
:10406000089B9C4208DA00222D4B013403F0C4FA6D
:10407000E4B2F5E70090F0E70B00020031003800F1
:1040800002F09EFF0F00060002F06AF80A2201907B
:1040900001002800FFF732FF009B1C18089B002B33
:1040A000B5D0019804F0F8FC02000B003000390094
:1040B00004F01EF906000F0028001A49FFF7F8FE69
:1040C0002418089B5A1E0892A1D3154B00223000D9
:1040D000390003F09BFE0F00060002F041F80A22AF
:1040E000010000902800FFF709FF2418009804F051
:1040F000D3FC02000B003000390004F0F9F8060090
:104100000F00DEE7ACBB0000FFFFEF7FB0BB00009D
:10411000FFFFEF41B4BB0000FFFFEFC10000E03F35
:1041200000002440B8BB000007B504990091FFF7D8
:1041300043FF0EBD10B5040000F0ACF8E06023684A
:1041400020009B699847002808DA00F0A3F8E3688C
:10415000C01AA3689842F2D30120404210BD00006B
:10416000F8B504000D00160001272000FFF7E2FF5C
:1041700000281CDB2D281AD00300303B092B16D950
:10418000002E01D02E2812D0012D0ED0022D07D1E5
:104190000938172809D83A008240054B1A4204D042
:1041A000236820005B699847DFE701204042F8BDA3
:1041B00013008000F8B51700002205000024FFF767
:1041C000CFFFA0421EDB2600C3B2BB4209D02D2880
:1041D0001AD00300303B092B03D80A235C43241870
:1041E000303C2B6828005B6998472800FFF7A2FF46
:1041F0000300303B092BE7D9C3B2BB42E4D0002E09
:1042000000D064422000F8BD0126EAE7FEE7000086
:10421000034B10B51B68002B00D0984710BDC0465B
:10422000240A002070B50F490F4CA14204D100F0C0
:10423000B7F800F08DF8FEE70C4D00238D42F6D064
:10424000CA18E818A24205D3094B8242EFD00949A7
:10425000002204E0006804331060F1E704C38B42DD
:10426000FCD3E4E70000002008020020B0C00000FA
:10427000080200206410002010B500F066F8002845
:1042800001D100F057F810BD014B18607047C046CF
:10429000240A0020014B18687047C046280A0020F5
:1042A000F7B51348012284461249134C8E6863689F
:1042B00005689B0E1340019288686268019F920E08
:1042C0003A4067463F6893420ED1BD420CD18642C8
:1042D0000AD35B19FA254868AD00861B07486B4373
:1042E0007043000DC018FEBD3D0013000600E3E75B
:1042F000280A002010E000E000ED00E05555000025
:1043000070B5041E10D0FFF7CBFF050000F01CF8BD
:10431000FFF7C6FF054B401B9842F7D9FA23013C33
:104320009B00ED18002CF3D170BDC046E7030000E0
:104330007047000010B5034A13680133136000F0A2
:104340008DFA10BD280A0020704700207047000039
:1043500010B500F0EFF804F07DFCFFF707F901203D
:10436000FFF7CEFF084C200001F0B6F9200000F066
:10437000F9FBFEF787F8FEF7C1FC044B002BFAD0DF
:1043800000E000BFF7E7C046540A0020000000002C
:1043900010B504F083FC10BD10B504F089FC10BD0D
:1043A0001E22F0B5504851494368514D93431A00BD
:1043B00002231343436008238A691343FE228B615F
:1043C0002B68D2039B0213404A4A13434A4A936123
:1043D00013000422DC681442FCD00124474A147004
:1043E0001678264203D0567876B2002EF8DB0124E8
:1043F0009460547864B2002CFBDB414C54605478D8
:1044000064B2002CFBDB8224E4015480547864B253
:10441000002CFBDB02249C840E34DE682642FCD098
:10442000384CDC621024DE682642FCD02C68A40ED6
:104430003F2C00D1203C9E6A334FA4023E403443BF
:104440009C629C6A314EA40AA40234439C62304CA4
:10445000DC6200249C841034DE682642FCD02D4CA3
:104460009C841024DE682642FCD002249E8C3443B7
:104470009C841024DE682642FCD00024946054788A
:1044800064B2002CFBDB244C5460547864B2002CE2
:10449000FBDB1C6A214E344080261C621C6AB4433C
:1044A0001C62032393601E4B536053785BB2002B56
:1044B000FBDB0023FF240B721A4A4B728B72CB7208
:1044C000194B1A60194A2B6811689A065B01C90ECC
:1044D0002340520F12020B431343154A13858023C6
:1044E000426813434360F0BD0040004100040040B7
:1044F000246080000606000000080040000C004018
:1045000001040100B905FF7DFF03FFFFFF0100006B
:1045100080BB0A1C2405000000070300FFFCFFFF0E
:1045200003060100006CDC02040000202060800013
:1045300000400042FA21314B10B51868890001F0A3
:1045400009FC2F4B0138984256D82E492E4A486014
:10455000C020136A00061B021B0A034313620024D7
:1045600007238C600B608021136A09061B021B0A5B
:104570000B431362FC22254B196A0A431A62FC2280
:10458000196A92010A431A62A022196AD2020A43E6
:104590001A62E0B20021013400F076F81F2CF8D145
:1045A0001B4B1C005A7852B2002AFBDB194A5A8076
:1045B000194B1A00597EC9090129FBD0E421C90011
:1045C00099803F21D970537EDB09012BFBD0C0239A
:1045D00000205B011361907000F024F863785BB2F7
:1045E000002BFBDB0D4B0E4A6380D379DB09012BDB
:1045F000FBD04123537010BDFEE7C04604000020ED
:10460000FFFFFF0010E000E000ED00E000040040CC
:10461000000C00401E40000000400042214000000D
:1046200000480042164A00B51300517EC90901290D
:10463000FBD00138042816D81969124A0A400F2104
:104640001A615A788A4301F071FB0308060B0300D4
:10465000110001220A435A7000BD11000322F9E73C
:1046600011000222F6E7F02311691B050B430F210D
:10467000136153788B43190002230B435370EBE70C
:1046800000400042FFFFFFF0182330B51D0004007A
:1046900045430820204A55192856013014D00329D3
:1046A00012D808006343D156D31801F03FFB02280B
:1046B0000E1B5868CB010221184A9B181A18403269
:1046C0001170012282405A6030BD5868CB0106212A
:1046D000124A9B181A1840321170012282405A6007
:1046E0009A61F1E75868CB0106210C4A9B181A1809
:1046F00040321170012282405A605A61E4E75868E2
:10470000CB010221054A9B181A1840321170012270
:1047100082409A60D8E7C04660B80000004400417B
:104720001823F0B508245843114A13181C570134B4
:104730001BD0012635005F688356BD400D4ADB0162
:104740009A18906805420BD10C00601E8441D21962
:104750004032107834400336A400B0432043107038
:10476000044A9B18002901D15D61F0BD9D61FCE701
:1047700060B800000044004118224243F8B52C4EB6
:104780000300B218127A52B2140001320ED0481C43
:1047900000240C280AD801F0C9FA07202020202084
:1047A0002020200B0B0B0B00012464422000F8BDDD
:1047B000092905D10021D8B2FFF766FF0024F5E7EB
:1047C0000A2902D1D8B20839F6E700240B29EDD125
:1047D000D8B20A39FFF758FFE8E718204343F21828
:1047E0005568F3562C00134ADB016E0817389B18E6
:1047F000C9B204409E19002C0DD00F2430363278F7
:10480000090122401143C9B25B19317040331A7853
:1048100010431870D2E732000F27303216785B1938
:10482000BE433143117040331A7810431870BDE70E
:1048300060B800000044004110B50400FFF778FDA7
:10484000014B1C6010BDC046080000200122024B35
:1048500052421A607047C04608000020164A10B540
:104860001368591C26D0013B1360002B22D172B66D
:10487000124B134A0433934213D9124A01211000F8
:10488000147D0C42FCD02021148BFF319B085B006F
:1048900021431183D3610C4B13800123027D1A4203
:1048A000FCD0BFF34F8F094B094ADA60BFF34F8F3B
:1048B000C046FDE710BDC0460800002000200000F3
:1048C000030200000040004102A5FFFF00ED00E0F0
:1048D0000400FA05704710B50400FFF75DFD2000E5
:1048E00010BD0000F0B5822919D1C3B2294D5A017B
:1048F000AA189169284C80010C40C02189052143E8
:1049000091612649083340187021506128685B0185
:104910001A5C8A43110030220A431A54F0BD002960
:10492000FCD1C026C1B21B4C4B01E3189A681A4D4A
:10493000B6052A4032439A60194A800182185A60AB
:104940000A000727246808325201115DB9430F009D
:104950000121394311559F6910493D4040182E43AC
:104960009E6158617020115D814308001021014350
:10497000115599680B48A21808408021490301434A
:1049800099609968890B89039960402311790B43D9
:104990001371C3E70C0F0020FFFFFF8F800A002078
:1049A000400C0020FF3F00F0EFF310830360012371
:1049B000436072B6704773B5836D0400002B1BD142
:1049C0000600A83635786846FFF7EEFF019BEDB28A
:1049D000013B02D33578EDB2FAE768460193FFF761
:1049E00015F8002D01D1002076BD2300A4331868EE
:1049F000A0342368C01AF7E76846FFF7D5FF220006
:104A00000025019BF432013B02D31578EDB2FAE7A1
:104A100068460193FEF7FAFF002DE4D02300F0333F
:104A20001868EC34E5E7000010B5436D4468DBB26C
:104A30005A01A218916809480833084080214903A7
:104A40000143916091685B01890B89039160226841
:104A5000D318402219790A431A7110BDFF3F00F0A4
:104A6000F7B5436D4268DBB21900040008311068E5
:104A700049014118C979C90711D55B01D21893685A
:104A80009B049B0C0CD12000FFF7CEFF63681A68D3
:104A9000636DDBB208335B01D3187F22DA71F7BD97
:104AA000E16D002923D12100A4310B6023000125F1
:104AB000AC33E56568465360FFF776FF26002000BB
:104AC0002100019BA836013BF430F5315A1C33D04C
:104AD000357002785F1ED2B20A700A78002A04D1BB
:104AE00020000193FFF7A0FFE8E73B00EEE721007D
:104AF000F0310B600023E3652300603353606846A8
:104B0000FFF752FF0125260020002100019BF4360B
:104B1000013BA830F5315A1C0ED0357002785F1E6B
:104B2000D2B20A700A78002A04D120000193FFF75C
:104B30007BFFE8E73B00EEE768460193FEF766FF80
:104B4000A4E737B56B46DC1D00230D00237000F091
:104B5000E3FE210000F06EFE2B6818182860207814
:104B60003EBD00000078002810D00121084B1B68D2
:104B70001A898A431A810822198B0A431A8304224C
:104B8000198B0A431A830022024B1A607047C046F1
:104B90000C0F0020040F002010B50F4A93699B0BE7
:104BA0009B03936113680222FF331A729879823A49
:104BB00002439A711A7A9207FCD57F24074A214052
:104BC000937A0800A3431900802301439172917ADC
:104BD0005B420B43937210BD0C0F0020005000414C
:104BE00010B50C0000F098FE210000F056FE0028E1
:104BF00004D1034A93699B0B9B03936110BDC0468C
:104C00000C0F0020F8B50D00832A19D1CBB23B4C14
:104C10005A01A21891693A48AD010840C02189059E
:104C200001439161374920686D187021083355613F
:104C30005B011A5C8A43110040220A431A54F8BDF2
:104C4000022A55D1304A8B009858002802D00368B8
:104C50005B699847F820FFF79BFB0400274E2B4B1E
:104C60004660036040220021083004F046F822002C
:104C70000023A032A3646565E3642365A365E3654F
:104C80005360D3641372136013654C321372537202
:104C9000FF222B001340590171188868184F083300
:104CA0000740C020800538438860306807265B01D4
:104CB000195CAD00B1430E000321314319542300A8
:104CC000616D606811404901411860334B60616D4E
:104CD00063680A401B6852019B180122FF33997ACE
:104CE00020000A439A72FFF79FFE074B5C51A6E72C
:104CF00011002800FFF7F6FDA1E7C0460C0F0020C9
:104D0000FFFFFF8F800A0020580A0020C4BB00006C
:104D100070B505000124064BA200D258002A06D027
:104D2000210028000134FFF76DFF0A2CF3D170BD7C
:104D30002C0A00200B4BCAB20B488901C918530139
:104D4000C318596199690832890B8903996103680D
:104D500052019A180223D3715179823B0B4353714C
:104D60007047C046800A00200C0F0020084B8A00C4
:104D7000D05810B5002803D003689B68984710BD31
:104D8000C9B2044B4901591888688004800CF6E7C1
:104D9000580A00200C0F002010B50C00FFF7E6FFAA
:104DA00000280CD0064BE4B21B68083464011C19BF
:104DB000802362795B42134363710223E37110BD68
:104DC0000C0F0020F0B51C002A4B85B01B680700B3
:104DD0000D000292002B4AD0274B8A00D0580028A1
:104DE00008D0036822005B680299984704002000FD
:104DF00005B0F0BD3800FFF7B9FF844204D929009F
:104E00003800FFF7B3FF04000121EBB21B4E039300
:104E10005B010193F21893689B0B9B039360019ACB
:104E2000336802989B18FF335A7A0A435A72144B1C
:104E3000A901C918220003F057FF002CD7D0290080
:104E40003800FFF793FF0028D1D14021039B32683F
:104E500008335B01D3181879014319710121D97105
:104E6000019BD318FF339A7A0A439A72BFE7012451
:104E70006442BCE7040F0020580A00200C0F0020F9
:104E8000400C002013B56B46DC1D22000123FFF708
:104E900099FF012801D1207816BD01204042FBE78F
:104EA00070B5CBB2124A13485C0189018918021906
:104EB00051609168104D08330D408021490329430A
:104EC000402591609168890B8903916001685A01BE
:104ED0008A1816793543157195796D06FCD55B01F5
:104EE000C918CB79DB07FCD500198068C0B270BD4A
:104EF000400C00200C0F0020FF3F00F070B50D00AB
:104F000000211400FFF7CCFFA04200D920000023AD
:104F10000349A34203D0CA5CEA540133F9E770BDE8
:104F2000400C0020F0B51E003A4B85B01B680F0006
:104F30000192002B35D08023DB019E4231D8002521
:104F4000354B8A01D3180293002E2CD0334B1B68AB
:104F50000393FF233B401C0000930834039B640130
:104F60001C19A379DB0921D02D4B2E49186800F0BC
:104F7000F1FE2D4B1721584300F0ECFE2B4BE2794C
:104F8000920713D4DA5D002A01D10138F7D2012249
:104F9000DA55009B5A01214B9B189A69920B920398
:104FA0009A6101256D42280005B0F0BD00221F4B1B
:104FB0003400DA553F2E09D9009B40245A01174B83
:104FC0009B188022996912060A439A61220001996E
:104FD000029803F089FE009BA1045A010F4B890C33
:104FE0009B18029A2D195A619A69361B920B9203EB
:104FF0000A439A61009B039A08335B01D31802228B
:10500000DA715979823A0A435A71019B1B1901934B
:105010009AE7C046040F0020800A00200C0F0020F1
:105020000400002040420F0070110100750A0020AA
:1050300070B50D001C000D4BAE01F61811003000CC
:10504000220003F051FEEDB209496D014D196E6168
:10505000AB69084A20001340AB61AB69A2049B0B0B
:10506000920C9B031343AB6170BDC046800A0020C5
:105070000C0F0020FF3F00F0F7B5104B01901B789C
:105080000F001500002B0CD10D4B16001C78002CC6
:1050900009D00C4E0C4834882018641903F024FE03
:1050A00034802800FEBD002EFBD03A1933000021C9
:1050B0000198FFF7BDFF2418361AF4E7000E002010
:1050C000010F0020020F0020010E0020F8B50F0094
:1050D00016000024012A26D9100003F0DFFD050088
:1050E000380004F069FC03230222013040002870DC
:1050F0006B7096420DD9397800290AD0531CDBB267
:105100000137A9549E4203D00232EC54D2B2F0E7E8
:10511000320029000548FFF7AFFF441EA041C4B28A
:10512000280003F0C5FD2000F8BDC046540A002049
:10513000F0B50024012685B0184B0F0069461E709B
:1051400005000094FFF7FDFC154B01A90B806A3B9D
:10515000FF3BCB715A330B72009B8C7109334B8030
:105160000E4B4E7108711C703A00092F0FD00D4F75
:1051700009223E700C4E280000943480FFF77CFF1B
:1051800069462800FFF7DDFC328808493C7028009A
:10519000FFF772FF012005B0F0BDC046000E0020F1
:1051A00009020000010F0020020F0020010E002064
:1051B00070B5CE7892B005000C00022E0BD18B7921
:1051C000C9792C4809021943FFF7B2FF411E8841F3
:1051D000C0B212B070BD00F09FFB210000F03EFB9A
:1051E000002803D0C117081AC00FF2E7012E0ED114
:1051F000E279A37912021A431F49112A13D8D2B2B5
:10520000002A10D02800FFF737FF0120E1E7032E26
:10521000DFD1A378002B08D1E279A37912021A43D7
:105220001649032AEBD90A78ECE7022B08D1E27978
:10523000A379120212491A432800FFF747FFC8E773
:10524000012B05D1E279A37912021A430D49F3E744
:10525000032BBED14122010001A803F04EFD00F056
:105260005BFB01A900F00AFBE279A37912021A4361
:1052700001A9E1E7540A002004BC0000F4BB0000CF
:10528000E0BB0000F8BB0000CBB204495B01C918C9
:105290008B699B0B9B038B617047C0460C0F0020F2
:1052A00037B5050048780C000B2810D800F03EFDFB
:1052B000061B0F2B0F404561494C5A5D097801AA26
:1052C000002906D1022311802800FFF7B1FE01203A
:1052D0003EBD00231380284B1B78012B00D1137097
:1052E00002230021F0E78A780023012A03D101AAD2
:1052F0001380224BF0E7204A1370214A93699B0BDD
:105300009B039361E3E78C78012C06D100211B4BB2
:1053100001AA1C7011702300D6E70120002CD7D100
:10532000154B174A187093699B0B9B039361CFE74A
:1053300089782800FFF730FCC9E72800FFF738FF1D
:10534000C6E701230F4ACCE70B780020DB06BFD16C
:105350002800FFF7DDFCA2780A4B0B481A6000F02A
:10536000BBFCCAE70123094ABBE78A78074B1A60EE
:10537000C3E70020ACE7C046740A00207C0A002086
:105380000C0F0020040F002020100020080F002028
:105390003A4BF7B51E780500002E5FD1384C2368D4
:1053A0009A8B12070DD5082231009A833000FFF73F
:1053B00099FA10222368FF33997A0A439A72314B83
:1053C0001E6023689A8B520701D504229A83FF330B
:1053D0001A7A920603D52022597A0A435A721A7A07
:1053E000D20623D569460800274AC0CAC0C0A268B1
:1053F000920B9203A2604022587902435A716023B3
:105400000A7828001A422AD1FFF74AFF2368FF339F
:10541000002827D08022997952420A439A711A7A39
:10542000520603D54022597A0A435A727F26012533
:105430002368FF331E722F00236808377F01DB19B2
:10544000DB79002B07D0114BAA00D05800280DD0D3
:1054500003681B6898470135082DECD1F7BDFFF7AD
:10546000BFFBD3E720210A4A9171D8E729000948F8
:1054700000F008FC2368DF19FE71ECE7010F002043
:105480000C0F0020040F0020400C0020580A0020C0
:10549000FF5000412010002010B50248FFF778FFB0
:1054A00010BDC046540A002080235B000380002307
:1054B000436007330372704783000148C018704788
:1054C0002C0A0020836C402B09D03F22036CC1546E
:1054D000036C013313400364836C013383647047AE
:1054E000F7B505006846FFF75FFA00264022019BEA
:1054F000013B02D32E6D961BFAE768460193FEF737
:1055000085FAAB6D6846002B4FD1FFF74DFA2900A5
:10551000019BA831013B5A1C0CD00C785A1EE4B2F6
:10552000002C05D168460193FEF770FA2000FEBDFD
:105530001300F0E7684601930024FEF767FA2A009B
:105540002900A0321368A431B4420ED008689842F2
:105550000BD92800591CEB181160603319780830FA
:10556000C9B2FFF7AFFF0134E9E709689942DDD11D
:10557000002313600133AB656846FFF715FA2F006F
:105580002A000021019BA837013BF532581CC9D0E5
:10559000397010785E1E002805D011702800019324
:1055A000FFF742FAEBE73300F0E7FFF7FDF92900D8
:1055B000019BF431013B5A1C06D00C785A1EE4B210
:1055C000002CAFD01300F6E7684601930024FEF7E5
:1055D0001DFA2A002900EC321368F031B44202D0DF
:1055E000086898421DD8096899429FD100236846EF
:1055F0001360AB65FFF7D8F92F002A000021019B4B
:10560000F437013BF532581C00D18BE73970107824
:105610005E1E002811D0117028000193FFF704FAD4
:10562000EAE72800591CEB181160AC3319780830F0
:10563000C9B2FFF747FF0134CBE73300E3E710B50A
:105640000400FFF74DFF206D10BD10B50400FFF7FB
:1056500047FF236D002B03D0E36CE418207A10BDC4
:1056600001204042FBE7F7B517000E000400FFF7EA
:1056700037FF6846FFF798F93F2200259446019BC3
:10568000013B5A1C19D0BD4215D2226D002A12D0FE
:105690000121226D4942002A0AD06046E26CA2181C
:1056A000117AE26C01320240E264226D013A226515
:1056B00071550135E7E7013BE3E768460193FEF7E3
:1056C000A5F92800FEBD0000014B024A1A60704790
:1056D0000C0F0020005000412023F7B5474A050079
:1056E000D1690F200B43D361012245490B78134345
:1056F0000B70444B19788143197006211C782143A3
:10570000197041490C7822430A701A7802401A70C5
:10571000602219780A431A703C4B3D4A5A805F78E0
:10572000FF09FCD13B48FEF7AFFD01233A4C3B4E4D
:105730002268300011780B43137080223900520028
:1057400003F0DBFA22689378DB07FCD456621F264D
:10575000334B1B68590B980C9B01314030405B0F59
:10576000B14200D105211F2800D10238072B00D1FA
:10577000043B31408901178D01912A4930400F4087
:10578000019939431185118D0700B1430800384351
:105790001085118D1803244B7F260B4003430C20EA
:1057A00013850823D17881430B430321D3702268EA
:1057B000D3788B4301390B43D3702268137833407D
:1057C0001370042322681678334313702268C124AF
:1057D0001389A40083431548138103591B021B0A34
:1057E000035180230360137811481943012311707A
:1057F0002B70002100F0E0F8F7BDC0460004004027
:10580000584400413C44004159440041000C0040D0
:1058100006400000995400000C0F0020100F0020DB
:10582000246080003FF8FFFFFF8FFFFF00E100E0F2
:105830002010002070B50E0000254468002C0BD00D
:10584000236831005B6820009847002802DB2D1890
:10585000E468F3E701256D42280070BD70B50D00C6
:105860004468002C08D0236829009B6820009847D2
:10587000002802D1E468F4E7200070BD70B50D0087
:105880004468002C07D0236829002000DB68984773
:10589000E4682D18F5E72C7070BD70B50D004468F4
:1058A000002C08D0236829001B6820009847002896
:1058B00002D1E468F4E7200070BDF8B542788B7936
:1058C0000D00017A9B18040000208B4222DC6368E3
:1058D000834219D16560002623786A71EA792B71B9
:1058E0009B182370AB79B34213D9AB68B7006078CB
:1058F000DF19FFF7E1FD3B68013603606378F6B21C
:1059000001336370EEE70B00D9680029FBD1DD603D
:10591000E1E70120F8BD000070B50126054D064CF9
:105920002B68334203D12000FFF7BEFD2E6020001C
:1059300070BDC046101000201410002000207047D9
:1059400070B50F26CB1D013902003240D5B22C00B4
:1059500000093034092A00DD07341C70013B8B42FA
:10596000F2D170BD10B50C000B4B1868FFF7E8FFC3
:1059700021000A4B08311868FFF7E2FF2100084BAD
:1059800010311868FFF7DCFF2100064B183118684A
:10599000FFF7D6FF202010BD0CA0800040A08000A3
:1059A00044A0800048A0800008B4024B9C461038F8
:1059B00008BC604765590000704770473F2070473A
:1059C00013B56B460268D971073354681900012278
:1059D000A04716BD70B50A260B7892B06E4402330C
:1059E00005000B703C220021300003F086F9394895
:1059F00001AC06903848242107900620207768469D
:105A0000364AA1742281364A364BA281FD3AFF3ACA
:105A10008018C177684623390630C1776846073059
:105A2000C17702A8C1770720F277032608316944BD
:105A3000C87703A9CE7710212B366E443170092622
:105A400021851F3169440E700CA9053E0E7033216B
:105A50002380022369440B7006360DA90E7022497B
:105A60003536A1863B216E44307010A86274E2770F
:105A700002703D3269446A440B7013704021002269
:105A8000E37023716371A37341336B4421871970F1
:105A90005A702B7DC039A370A37263770133DBB2D8
:105AA000A3776A7D0B200D0068441543C57731202C
:105AB000684403703A23501C6B441870412302322F
:105AC0000A436B441A70210042220848FFF7D4FAB7
:105AD00012B070BD10010424020605240904000060
:105AE00001020000080B000007050000540A002016
:105AF00008B4024B9C46103808BC6047D5590000DA
:105B000070B5027D0B790C0000259A420BD10B7801
:105B10004E78A12B09D1212E05D107221B491C4803
:105B2000FFF7AAFA0135280070BD212BFBD1202EEA
:105B300022D1072215491648FFF7E0F99622134BA8
:105B4000D200196891421DD1DB79DB071AD4FA2003
:105B5000FEF772FE00210E48FFF796FB0125232E6B
:105B6000E1D1E378A2781B0213430A4A00210848D6
:105B70001360FFF789FBD6E7222EEFD18A78034B1B
:105B8000DA71DBE7FEF762FEE4E7C04610000020B2
:105B9000540A00200C00002008B4024B9C46103828
:105BA00008BC6047015B000010B5082200210248D4
:105BB00003F0A3F810BDC0461000002010B5417DD1
:105BC000006A0131FFF7D2F8034B1B6801335A1EFC
:105BD0009341181810BDC0461800002010B5417D33
:105BE000006A0231FFF7D8F810BD10B5417D006A98
:105BF0000231FFF79FF810BD70B50D00417D040024
:105C0000130002312A00006AFFF78CF9002801D145
:105C10000123636070BD000010B5054C23685A1C59
:105C200004D103685B69984703002060180010BD29
:105C300018000020074A0300106810B5411C03D06B
:105C400001235B42136010BD597D186A0131FFF7D3
:105C500019F9F8E71800002010B5FEF71BFBF42334
:105C6000FF330024984207D9044B0A20DC79631ED5
:105C70009C41E4B2FEF744FB200010BD1000002060
:105C80000020704770470000FA239B0010B5836026
:105C90000F4B0022C3820300283383610D4B0400A5
:105CA0004260C2611800503323610830631D2162D5
:105CB0002060DA778323A362813BE362803323632E
:105CC000FFF72AFE21001031FFF7F7FD200010BD7D
:105CD0000302000018BC0000022110B5094B1A682D
:105CE000437D5B01D318FF339C7A21439972437D36
:105CF0000133DBB25B01D3180122FF33997A0A43E7
:105D00009A7210BD0C0F002010B502490248FFF72F
:105D1000BBFF10BD540A0020201000200B0010B55E
:105D20000100180002F078FF10BD000002B47146B7
:105D300049084900095C49008E4402BC7047C046CE
:105D400003B47146490840004900095A49008E448D
:105D500003BC7047002243088B4274D303098B4273
:105D60005FD3030A8B4244D3030B8B4228D3030C2B
:105D70008B420DD3FF22090212BA030C8B4202D3CD
:105D80001212090265D0030B8B4219D300E0090AF5
:105D9000C30B8B4201D3CB03C01A5241830B8B42FE
:105DA00001D38B03C01A5241430B8B4201D34B03E7
:105DB000C01A5241030B8B4201D30B03C01A52414C
:105DC000C30A8B4201D3CB02C01A5241830A8B42D1
:105DD00001D38B02C01A5241430A8B4201D34B02BA
:105DE000C01A5241030A8B4201D30B02C01A52411E
:105DF000CDD2C3098B4201D3CB01C01A52418309D2
:105E00008B4201D38B01C01A524143098B4201D30B
:105E10004B01C01A524103098B4201D30B01C01A36
:105E20005241C3088B4201D3CB00C01A52418308B0
:105E30008B4201D38B00C01A524143088B4201D3DD
:105E40004B00C01A5241411A00D20146524110463D
:105E50007047FFE701B5002000F0F0F802BDC04632
:105E60000029F7D076E7704703460B437FD4002222
:105E700043088B4274D303098B425FD3030A8B42DE
:105E800044D3030B8B4228D3030C8B420DD3FF2248
:105E9000090212BA030C8B4202D31212090265D016
:105EA000030B8B4219D300E0090AC30B8B4201D3C9
:105EB000CB03C01A5241830B8B4201D38B03C01A10
:105EC0005241430B8B4201D34B03C01A5241030B87
:105ED0008B4201D30B03C01A5241C30A8B4201D338
:105EE000CB02C01A5241830A8B4201D38B02C01AE3
:105EF0005241430A8B4201D34B02C01A5241030A5A
:105F00008B4201D30B02C01A5241CDD2C3098B423E
:105F100001D3CB01C01A524183098B4201D38B01BB
:105F2000C01A524143098B4201D34B01C01A52415E
:105F300003098B4201D30B01C01A5241C3088B42A3
:105F400001D3CB00C01A524183088B4201D38B008E
:105F5000C01A524143088B4201D34B00C01A524130
:105F6000411A00D201465241104670475DE0CA0F07
:105F700000D04942031000D34042534000229C46C7
:105F800003098B422DD3030A8B4212D3FC228901D1
:105F900012BA030A8B420CD3890192118B4208D3A7
:105FA000890192118B4204D389013AD0921100E009
:105FB0008909C3098B4201D3CB01C01A524183091D
:105FC0008B4201D38B01C01A524143098B4201D34A
:105FD0004B01C01A524103098B4201D30B01C01A75
:105FE0005241C3088B4201D3CB00C01A52418308EF
:105FF0008B4201D38B00C01A5241D9D243088B4245
:1060000001D34B00C01A5241411A00D201466346E7
:1060100052415B10104601D34042002B00D549424B
:10602000704763465B1000D3404201B5002000F08A
:1060300005F802BD0029F8D016E770477047C04642
:106040008446101C62468C46191C634600E0C0461C
:106050001FB501F073FE002801D40021C8421FBD06
:1060600010B501F0CBFD4042013010BD10B501F07C
:1060700065FE002801DB002010BD012010BDC046D8
:1060800010B501F05BFE002801DD002010BD0120ED
:1060900010BDC04610B501F0EDFD002801DC002068
:1060A00010BD012010BDC04610B501F0E3FD002871
:1060B00001DA002010BD012010BDC0468446081C36
:1060C0006146FFE71FB500F08BFB002801D40021DB
:1060D000C8421FBD10B500F00DFB4042013010BD9D
:1060E00010B500F07DFB002801DB002010BD012071
:1060F00010BDC04610B500F073FB002801DD002084
:1061000010BD012010BDC04610B500F01BFB0028DB
:1061100001DC002010BD012010BDC04610B500F00C
:1061200011FB002801DA002010BD012010BDC0467F
:106130009E2110B5C905041CFFF7F0FF002803D10C
:10614000201C00F093FE10BD9E21201CC90500F00C
:10615000C9FC00F08BFE80231B069C466044F2E7DE
:1061600070B500220C4B04000D00FFF79DFF0028C6
:1061700004D12000290002F01FFC70BD064B002254
:106180002000290002F0B4F802F016FC80231B0660
:106190009C466044F1E7C0460000E041F8B5474640
:1061A000CE4643025B0A4400C20F9C464800DD0015
:1061B0004B02240E5B0A000E80B5984626009146DD
:1061C000C90FDB00271A8A4229D0002F15DD0028CD
:1061D0004AD1002B00D095E0ED08FF2C00D188E0DB
:1061E0006B025B0AE6B25B02F605580A3043D2073F
:1061F00010430CBC90469946F8BD002F00D087E0B4
:10620000601CC0B2012800DCB6E0EE1A720100D5B5
:10621000C5E0002E3DD1002200260023E3E7002F39
:1062200000DC96E000285DD0FF2C60D08022D204F4
:1062300013431B2F00DDECE02022D21B18009340FB
:10624000F8405A1E93410343ED186B017BD501348E
:10625000FF2C00D1B7E0012207262A406B089A4D97
:106260001D4015432E4029E0FF2CB5D08022D204DA
:1062700013431B2F00DDB2E02022D21B19009340F4
:10628000F9405A1E93410B43ED1A6B015BD5AD01EA
:10629000AE09300002F084FC05388640844265DC9B
:1062A000041B330020200134E340041BA640751E6C
:1062B000AE41334307261D0000241E4001224B46F9
:1062C0001A40002E04D00F232B40042B00D004359D
:1062D0006B0100D480E70134E6B2FF2C2FD1FF26FA
:1062E000002380E7002B52D1FF2C00D074E70A0076
:1062F000ED08002DF3D08023DB032B435B025B0A08
:10630000FF2670E7013F002FBED0FF2CB1D163E71D
:10631000002C47D0FF2869D08024E4047A4225432A
:106320001B2A00DDC5E02C002026D440B21A95407F
:106330006A1E954125435D1B04008946A5E7AB0114
:106340005B0A50E7002401224B461A406B07BAD182
:1063500042E7002F3BD10134E0B201284ADDFF2C97
:10636000BDD00726ED186D082E40A7E70723574D2F
:10637000241A35401E40A1E7002C1BD1002D6ED100
:10638000002B00D19AE00A001D003C0024E7013FE9
:10639000002F00D158E7FF2C00D04AE7A7E75E1B8B
:1063A000894676E7002D1CD10A00FF281FD0040083
:1063B0001D0011E7002D5DD1002B17D18023002295
:1063C000DB03FF260FE70A00FF2600230BE7002C64
:1063D00021D1002D66D1FF28E9D11D0087E70123D7
:1063E00052E77A1CA7D0FA43FF2899D10A001D0072
:1063F000FF24F1E6002E21D1002D4FD0002B4CD0F0
:10640000ED186B019ED5314B07362E4001241D40FF
:1064100054E7012318E7FF28DFD08024E4047F42FB
:1064200025431B2F4DDC2026F61B2C00B540FC40DD
:106430006A1E95412543ED18040006E7002DCCD0D7
:10644000002B00D153E780216046C903084203D0E6
:106450004046084200D11D000121114047E7002BB2
:1064600000D1B9E6EA1A500125D507265D1B2E405A
:10647000894623E7FF24002B00D1ADE68022604649
:10648000D203104204D04046104201D11D0089467B
:1064900001224B46FF241A409EE62B00DD080A002D
:1064A00000249DE67A1CC6D0FF43FF28B9D11D0009
:1064B0001DE701253FE7151E00D044E70022002319
:1064C00091E60125B7E7C046FFFFFF7DFFFFFFFB19
:1064D000F8B557464E464546DE464402E0B546000E
:1064E0008846640A360EC70F002E63D0FF2E24D0D4
:1064F0008023E400DB041C43002399469B467F3E37
:10650000434642465D02D20F5B006D0A1B0E904669
:10651000924665D0FF2B55D080220021ED00D20499
:106520007F3B1543F61A43464A467B400F2A00D963
:106530008DE06D48920082589746002C54D1082374
:106540009946063BFF269B46DAE70025534602297B
:106550001BD0032900D1BFE0012928D030007F30B3
:10656000002820DD6A0704D00F222A40042A00D028
:1065700004352A0103D530005C4A80301540FE28DE
:1065800003DCAC01640AC2B201E0FF220024640211
:10659000D205600ADB07104318433CBC904699467D
:1065A000A246AB46F8BD0122101A1B287CDD002252
:1065B0000024ECE7002C1DD104239946033B002660
:1065C0009B469DE7FF3E002D20D1022143464A46CF
:1065D0007B400A430F2AD8D84548920082589746F4
:1065E000002D19D10121F1E70C239946093BFF2623
:1065F0009B4685E7200002F0D3FA7626431F9C4095
:1066000000237642361A99469B4679E74A46032389
:106610001A439146032186E7280002F0C1FA431F7E
:1066200036189D40763600217DE780240023E40360
:10663000FF22ACE700258023DB031C4228D01D424B
:1066400026D12B435C02640A4346FF229FE7620186
:106650006C01A24224D21B210025013E012710001B
:106660006D005200002801DB944201D8121B3D430B
:1066700001390029F3D11400621E944125436DE7CE
:10668000BA46594625005346022900D061E77CE707
:106690008023DB031C436402640A3B00FF2276E78D
:1066A000121B1A210125D9E79E362A00B5402C007D
:1066B000C240651EAC411443620704D00F22224041
:1066C000042A00D00434620103D4A401640A002225
:1066D0005DE7012200245AE78024E4032C4364028E
:1066E000640AFF2253E7C04678BC0000FFFFFFF7B3
:1066F000B8BC000070B542004E024C0045026D0A65
:10670000120EC30F760A240EC90FFF2A0FD0FF2CDA
:1067100011D00120A24200D070BDB542FCD18B4205
:106720000DD0002AF8D12800451EA841F4E7012029
:10673000002DF1D1EBE70120002EEDD1E9E700209B
:10674000EAE7C04670B54A004E02450244006D0AB1
:10675000240EC30F760A120EC90FFF2C15D0FF2A84
:106760000ED0002C15D1002A01D1002E1CD0002DF6
:1067700014D08B4227D00220013B1840013870BD55
:10678000002EEED002204042F9E7002DFAD1FF2A78
:106790000ED0002A0ED1002EEDD00BE001230139DE
:1067A000994308000130EAE70020002DE7D0E2E736
:1067B000002EE7D18B42DED1944205DD0221581E26
:1067C00008400138DBE70024A24204DCB542D2D8FD
:1067D0000020B542D3D2581E012398430130CEE7A2
:1067E00030B5420044024D02C30F4800640A120E45
:1067F0006D0A000EC90FFF2A12D0FF280CD0002A04
:1068000012D1002819D1002D17D1002C2BD0022035
:10681000013B1840013826E0002DF0D0022022E094
:10682000002CFBD1FF281FD000281FD1002D1DD127
:106830000220013B1840013815E0002C0ED08B429D
:10684000E5D10022904204DCAC42E0D80020AC420A
:1068500009D2581E01239843013004E00123013975
:1068600099430800013030BD002DD7D18B42CED1E5
:106870008242E7DD0221581E08400138F3E7C04696
:10688000F0B54E4657464546DE46E0B543025B0A44
:10689000450083B00F1C99462D0EC60F002D57D012
:1068A000FF2D24D08020DB00C00418430023814644
:1068B0009A469B467F3D7C027A00FB0F640A120ECB
:1068C000984623D0FF2A4BD0E30080240020E40424
:1068D0007F3A1C43AD186B1C4746019353467740E3
:1068E0003A000F2B48D87D499B00CB589F46002B80
:1068F00000D085E008339A46063B9B467C027A002E
:10690000FB0FFF25640A120E9846DBD1002C00D045
:1069100090E0524601231A4392460120DBE74C46A1
:1069200058461700022824D0032800D1CFE00022C7
:10693000002301284DD15802D205400AFF07104319
:10694000384303B03CBC90469946A246AB46F0BDE6
:10695000002B5BD104239A46033B00259B46AAE704
:10696000FF35002C60D1524602231A439246022082
:10697000B1E7FF220023DEE74B461B0C9C464B464B
:106980002604360C180461463300220C6446000CC1
:1069900043434E435043544380191A0C12189642F5
:1069A00003D9802149028C4664441B041B0C10044B
:1069B000C01883015E1EB341800E1843130C1B19CF
:1069C0009B0103431C00230179D5012362081C406D
:1069D0001443019A7F32002A4DDD630704D00F2350
:1069E0002340042B00D00434230103D53C4B019AEF
:1069F0001C408032FE2ABCDCA3015B0AD2B29AE7BB
:106A00000C239A46093BFF259B4654E7180002F0E9
:106A1000C7F84A46431F76259A4000236D429146A7
:106A20002D1A9A469B4646E7524603231A4392463E
:106A3000032050E7200002F0B3F8431F2D1A9C40BA
:106A4000763D002047E780230027DB03FF2272E723
:106A5000424666E74C463200584662E780234A4683
:106A6000DB031A4222D01C4220D123435B025B0A83
:106A70004746FF225FE701239A1A1B2A21DC2300E5
:106A80000199D3409E318C401A0023005C1EA34123
:106A900013435A0704D00F221A40042A00D00433AB
:106AA0005A0111D49B015B0A002244E780234A4625
:106AB000DB0313435B025B0A3700FF223BE70195D0
:106AC00087E70022002336E70122002333E78023F3
:106AD000DB0323435B025B0AFF222CE7F8BC0000C8
:106AE000FFFFFFF7F8B54746CE464400C20F80B51A
:106AF00047024802400A8446664648007F0A240E40
:106B0000F60025009046FB00000EC90FB146FF2895
:106B100000D185E001267140261A914257D0002EFF
:106B200043DD002800D07FE04946002900D1AAE0DB
:106B3000013E002E00D0F7E05B1A5A0100D48BE032
:106B40009B019C09200002F02BF805388440854207
:106B500000DDD3E0451B230020200135EB40451B21
:106B6000AC40621E94412343072400251C400122AF
:106B700041460A40002C04D00F211940042900D0BE
:106B80000433590100D480E00135ECB2FF2D00D070
:106B9000A3E0FF2400235B02E405580AD207204348
:106BA00010430CBC90469946F8BD002E74D1601C71
:106BB000C0B2012800DCA7E04A469C1A620100D559
:106BC000B6E0002CBED1002200240023E3E7002E13
:106BD00000DC85E0002846D0FF2C49D080224846C2
:106BE000D2041043814601221B2E09DC20204C4692
:106BF000801B84404A462000F240441EA0410243CC
:106C00009B185A0128D50135FF2D00D1A8E001229B
:106C1000072494491A405B080B4013431C40A6E725
:106C2000002E00D078E775E7FF2C54D0802249462B
:106C3000D2041143894601221B2E09DC202148463B
:106C4000891B88404A460100F240481E81410A43A0
:106C50009B1A5A0100D573E7012241460A405907A1
:106C600000D089E711E04846002858D1FF2C0CD10C
:106C7000DB08002B00D18CE78020C00303435B02BC
:106C80005B0AFF2487E7FF2C25D0DB08FF2DF0D01F
:106C90005B025B0AECB27EE7002C4DD0FF2818D0D7
:106CA0008024E404724223431B2A00DDC4E01C005C
:106CB0002025D440AA1A93405A1E934123434A46A2
:106CC0000500D31A884638E7721CF8D0F243FF2833
:106CD000EAD10A004B46FF25D7E79B015B0A5AE73A
:106CE000002E41D1651CE9B2012945DDFF2D00D1FF
:106CF0004FE707244B445B081C4038E707225A4BF8
:106D00002D1A2340144032E7002C1DD1002B7AD1DC
:106D10004B46002B00D191E00A000025B5E7013E6B
:106D2000002E19D14B446CE7FF2C84D1FF25ACE732
:106D30004A468846D41A05E7002BC5D10A00FF2829
:106D4000C8D005004B46A0E7002B49D14B46002B8D
:106D500077D00A00FF2598E7FF2C00D043E787E7AC
:106D60000A00FF24002316E7002C15D1002B57D171
:106D7000FF28E6D14B467BE7002C20D1002B57D0D3
:106D80004946002953D04B445A0168D50724364A56
:106D90001C4001251340EAE6FF28EBD08022D204F4
:106DA000764213431B2E53DC2025AD1B1A00AB404B
:106DB000F2405C1EA34113434B44050021E7002B26
:106DC000D8D04946002900D152E78021C9030F429B
:106DD00000D14DE76046084200D049E74B4647E7FF
:106DE0004846FF25002800D14FE78022D2031742F2
:106DF00004D06046104201D14B46884601224146EC
:106E0000FF250A4041E7484600281FD01A1A5001C2
:106E100020D54A460724D31A1C4088460025A6E6FA
:106E2000741CC9D0F643FF28BCD14B4620E79946D5
:106E30004B460025DB082BE7012340E70022002317
:106E4000A9E680230022DB03FF24A4E600251CE73B
:106E50000123B1E7002AF1D013000025FCE600254C
:106E6000FAE6C046FFFFFF7DFFFFFFFB4102420045
:106E7000C30F490A120E00207E2A0DD99D2A0CD874
:106E8000802000040143952A0ADC9620821AD14012
:106E90004842002B00D108007047034A9818FBE7CE
:106EA000963A9140F4E7C046FFFFFF7F70B5002897
:106EB0003DD0C317C5185D40C40F280001F070FE17
:106EC0009E22121A962A07DCD2B2082833DD08382F
:106ED00085406802400A23E0992A0BDD052329003A
:106EE0001B1AD94003001B339D402B005D1EAB4194
:106EF00019430D00052801DD431F9D402B000F495C
:106F00000B406E0709D00F263540042D05D0043301
:106F10005D0102D59F220B40121A9B01580AD2B282
:106F20004002D205400AE4071043204370BD00240C
:106F300000220020F4E76802400AF1E7FFFFFFFBB0
:106F400070B5041E34D001F02BFE9E22121A962A30
:106F500007DCD2B208282EDD083884406002400ADF
:106F600021E0992A09DD030021001B3399404B1EC3
:106F7000994105231B1ADC400C43052801DD431F02
:106F80009C4023000D490B40650709D00F252C407C
:106F9000042C05D004335C0102D59F220B40121A49
:106FA0009B01580AD2B24002D205400A104370BD7C
:106FB00000220020F7E76002400AF4E7FFFFFFFB32
:106FC000F0B54F464646D6460C000903C0B5490AFF
:106FD000470F5E0039431F03DB0F9C4665007B0AA9
:106FE000570F1F436D0DE40F760DA146C000B84644
:106FF000D200AB1B64457BD0002B5FDD002E00D0A0
:10700000A4E03E00164300D112E15E1E002E00D027
:107010009EE1871A4346B84280410125C91A404281
:10702000091A0B0200D431E149024E0A002E00D1A8
:107030006EE1300001F0B4FD0300083B1F2B00DDC2
:1070400061E120223900D21A9E40D1409F400E4378
:107050009D4200DD51E15D1B6B1C1F2B00DD7CE1BF
:107060002021C91A3D0030008F408840DD40791E44
:107070008F41310007222843D940002507433A4079
:10708000002A09D00F233B40042B05D03B1DBB42F7
:10709000BF417F42C9191F000B0200D426E26A1CBF
:1070A000C64B55056D0D9A4200D106E1C44AFF0852
:1070B0000A40530752023B43120B8EE0002B00D0D4
:1070C000B8E06B1C5B055B0D012B00DC30E1871A1F
:1070D0004346B842B641CB1A76429E1B330200D5D6
:1070E0004CE13B003343A1D100220024002570E095
:1070F000002B00DCE5E0002E00D183E0AF4EB5426E
:1071000060D0802636043743B846382B00DC3EE199
:10711000434613431F007A1E97413F188742804120
:10712000404209180B0200D4B0E0A44B01359D4247
:1071300000D1C3E0A24A7B080A4001210F401F434F
:107140005108D30707221F433A4099E79B4EB542A7
:1071500038D0802636043743B846382B00DDDCE0D3
:107160001F2B00DC30E11E004746203EF740BC46A6
:10717000202B04D04026F31A46469E403243170087
:1071800063467A1E97411F43CCE0002B00D104E2F6
:107190004346134300D159E14B07C00818438023ED
:1071A000C9081B03194208D04546ED081D4204D109
:1071B0004346D008590708432900420FC9007F4DB4
:1071C0001143C0004B07CA087C49C00803438D42E5
:1071D00068D012036D05120B6D0D0021120318000B
:1071E000130B0A0D12051A43764B2D0513402B4342
:1071F0005B00E4075B08234319001CBC90469946DA
:10720000A246F0BD3E00164312D05E1E002E00D0F6
:1072100000E1871887428041414440420918012516
:107220000B0233D5022585E7644633004146100042
:107230001D00C7E7002D00D0DAE00C000443F3D0B6
:107240005C1C00D19FE15D4CA64200D12FE1DB43E5
:10725000382B00DD66E11F2B00DD83E120240500D3
:10726000E41A0F00DD40D940A0404346A7405B1A16
:10727000441EA04198462F433843171ABA42924100
:1072800043465242991A64463500CAE607223A40FC
:10729000002A00D0F6E64B07CA084849FF083B43DE
:1072A0008D4296D11900114300D19EE1802109033E
:1072B0000A431203120B414D8FE7150000220023F1
:1072C0008BE7002B00D0C7E06B1C5F057F0D012F03
:1072D00000DCF1E0394DAB4200D1B9E085180A007D
:1072E000854289414244494251180722CF076D081F
:1072F0002F4349083A401D00C2E607223049ED1AE3
:1073000031403A40BCE63E002838864000279FE6E0
:10731000380001F045FC20308EE6434613431F0041
:107320007A1E9741C71BB84280414042091A78E64D
:107330000E003B0006431343002D61D1002E00D008
:10734000F4E0002B00D11BE164463900100039E75E
:107350001A4FBB427AD03300FFE630001F3DE840B1
:10736000202B03D04021CB1A9E4037437B1E9F41E8
:10737000072207433A400021002589E7171A4346B0
:10738000BA42B641591A76428E1B64464EE61F2B0E
:1073900000DDADE020264746F61AB740B946170093
:1073A000B246DF404E463E4337005646B240561E78
:1073B000B24117434246DA408918AEE6FF070000A3
:1073C000FFFF7FFFFFFF0F8020264746F61AB740DA
:1073D000B9461700B246DF404E463E433700564698
:1073E000B240561EB24117434246DA40891A99E725
:1073F0007F4CA6425BD0802424045B42214327E7D4
:10740000002E0CD1002B00D1CBE0644639001000D7
:10741000774DD7E6764FBB4218D0330075E6002B88
:1074200014D04B07C00818438023C9081B03194216
:1074300007D0FC081C4204D17907D0080843E14674
:1074400021004C46420FC9001143C000684DB9E607
:107450001D0000220023C0E6002D5BD10D00054376
:1074600000D1E2E65D1C00D1B0E0614DAE421FD01C
:10747000DB43382B71DC1F2B00DD96E020250F004D
:10748000ED1AAF40B9460700AA46DF404D463D43DE
:107490002F005546A840D940451EA84188440743BF
:1074A000BF18974292415142414435003AE6644642
:1074B00035004146100085E60B000343002D00D047
:1074C00063E6002BF5D04346134300D17AE68718D4
:1074D0008742804107224144404209183A400B024A
:1074E00000D4D5E6434B01351940C9E5380069E6BB
:1074F0001E004746203EF740BC46202B04D04026C5
:10750000F31A46469E403243170063467A1E97415F
:107510001F4302E6364DAE42CAD080252D045B42A1
:107520002943A6E70843411E8841A6E6002B00D167
:1075300048E6871A4346B842B641CB1A76429E1BAC
:1075400033024BD5171A4346BA429241591A524256
:10755000891A072264463A4092E501430F00791EDA
:107560008F419DE71C000F00203CE740202B03D0FB
:107570004024E31A99400843411E884138437CE681
:107580000022002425E6171A4346BA429241591AAE
:107590005242891A6446350043E541461000144DB5
:1075A00010E680220024120380E61D000F00203D1B
:1075B000EF40BC46202B03D04025EB1A99400843EE
:1075C00007006346781E87411F4369E78718974283
:1075D0009B4141445B42C9183500A3E53B0033435E
:1075E000CED0072231003A4052E600231A00F4E5DB
:1075F000FF070000FFFF7FFFF0B55746DE464E460F
:107600004546E0B5834607000E03480085B0924624
:107610001C00360B400DCD0F002800D19DE0954B8E
:10762000984239D08023F6001B041E43924A7B0FF8
:107630003343994694460300634400930023002695
:10764000FF00029323031B0B98466300E40F52468E
:107650005B0D019400D1B3E086498B4200D19EE0DE
:107660004246D100802212040A435146490F114379
:107670008B46814952468C4600996344CB1A0021BF
:10768000D20000932B0063409A460F2E00D905E1EB
:107690007A4BB6009B599F465B463343994600D0D0
:1076A000B8E002230826002700900293CAE7CB46E1
:1076B0003A0002990195019B9A46022927D0032995
:1076C00000D180E2012944D06D49009B8C4663447F
:1076D0001C00002C38DD530700D013E2D2085B46B3
:1076E000DB0109D55946674B19408B468021C900FB
:1076F0008C46009B63441C00634B9C4207DC5B464A
:1077000064055F075B0217431B0B620D02E0002359
:107710000027584A00211B031C0B0B0D1B0523439C
:1077200014055A4A380013401C4353466400DB07D3
:1077300064081C43210005B03CBC90469946A24613
:10774000AB46F0BD0122524201231B1B382B00DC4B
:10775000ADE1002200230027DCE75B463343994676
:107760005ED0002E00D18AE1300001F019FA03004A
:107770000B3B1C2B00DD7BE11D22D31A5A46010076
:10778000DA4008398E4013005F46334399468F40F4
:107790003F4B00261B1A00930023029352E74146F9
:1077A00053460B433B499B468C46009B63440093E6
:1077B0005B46002B3BD1022300221E43022161E7DE
:1077C000434613439B4637D04346002B00D162E12A
:1077D000404601F0E5F903000B3B1C2B00DD53E1B3
:1077E00002004146083A914088461D21CB1A514675
:1077F000D9400B0041460B439B46534693401A0029
:10780000009B25499C46604403008C4663440093DA
:10781000002137E70323B14600900C26029311E7BD
:107820000023009301330426002702930AE7032371
:10783000C3461E43032125E701331E4300220121D5
:1078400020E700239A46802300271B03094A61E7AB
:10785000802349461B03194200D1E2E059461942F0
:1078600000D0DEE00B431B0317001B0BA246014AAE
:1078700050E7C046FF07000001FCFFFF38BD0000D5
:10788000FF030000FFFFFFFEFE070000FFFF0F8069
:107890000DFCFFFF01F8FFFFF3030000D94500D9FD
:1078A000CBE000D1C6E03C0048460027009B013BEE
:1078B00000935B46160E1B021E43130298463304C8
:1078C0001B0C9946310C0191FEF7CAFA4A46424315
:1078D0000B04210C050019438A4207D98919013D7F
:1078E0008E4203D88A4201D9851E8919881A0199C6
:1078F000FEF7B6FA09048C464A4621046446424320
:10790000090C030021438A4204D98919013B8E42A4
:1079100000D8F1E02D041D43AB464346891A424688
:10792000280C12041D0C5B46140C22001B041B0CBB
:107930005A4303946B434443029568431B19150C47
:10794000EB189C4203D980246402A44660441C0CBA
:1079500015041B042D0C20185D19814277D373D0B8
:107960000C1AA24A7D1BAF42BF419446009B7F4246
:107970006344E01B1C00864200D1DBE00199FEF766
:107980006FFA4A4642430B04290C070019438A4206
:1079900007D98919013F8E4203D88A4201D9871E2F
:1079A0008919881A0199FEF75BFA09044A46894643
:1079B00029044D464243090C030029438A4207D952
:1079C0008919013B8E4203D88A4201D9831E891945
:1079D0003F04891A3A00039F1A43380013041B0C12
:1079E000584381460298150C6F434343454348462C
:1079F000000C8446DB1963449F4203D98020400277
:107A00008446654448461F0C00041B04000C7D1985
:107A10001818A94200D284E000D17FE001231A4364
:107A200057E680234A461B0313431B031B0BAA463E
:107A30006F4A6FE6BA4200D935E74B46DC07580873
:107A40007B081C43FF0734E70024AF4289D2474438
:107A50004745A4415B466442A4196418013BA64211
:107A60001ED2A0426DD800D1B6E0241A9B4678E71A
:107A700003005A46283B9A400027914688E658461C
:107A800001F08EF8203072E603005246283B9A40FF
:107A900093460022B4E6504601F082F820309AE680
:107AA000A642E2D1B845DCD9341A9B4659E71F2BD0
:107AB00065DC504C0099A4465C46614408008C404B
:107AC00011008240D940501E82410C4314435A4653
:107AD000DA401300620709D00F222240042A05D0A1
